{"contracts/mocks/MockDEXRouter.sol":{"MockDEXRouter":{"abi":[{"inputs":[{"internalType":"address","name":"_weth","type":"address"},{"internalType":"address[]","name":"_supportedTokens","type":"address[]"}],"stateMutability":"nonpayable","type":"constructor"},{"inputs":[{"internalType":"address","name":"token","type":"address"}],"name":"SafeERC20FailedOperation","type":"error"},{"inputs":[],"name":"WETH","outputs":[{"internalType":"address","name":"","type":"address"}],"stateMutability":"view","type":"function"},{"inputs":[{"internalType":"address","name":"tokenA","type":"address"},{"internalType":"address","name":"tokenB","type":"address"},{"internalType":"uint256","name":"amountADesired","type":"uint256"},{"internalType":"uint256","name":"amountBDesired","type":"uint256"},{"internalType":"uint256","name":"amountAMin","type":"uint256"},{"internalType":"uint256","name":"amountBMin","type":"uint256"},{"internalType":"address","name":"to","type":"address"},{"internalType":"uint256","name":"deadline","type":"uint256"}],"name":"addLiquidity","outputs":[{"internalType":"uint256","name":"amountA","type":"uint256"},{"internalType":"uint256","name":"amountB","type":"uint256"},{"internalType":"uint256","name":"liquidity","type":"uint256"}],"stateMutability":"nonpayable","type":"function"},{"inputs":[{"internalType":"uint256","name":"amountIn","type":"uint256"},{"internalType":"address[]","name":"path","type":"address[]"}],"name":"getAmountsOut","outputs":[{"internalType":"uint256[]","name":"amounts","type":"uint256[]"}],"stateMutability":"view","type":"function"},{"inputs":[{"internalType":"address","name":"","type":"address"},{"internalType":"address","name":"","type":"address"}],"name":"priceRatios","outputs":[{"internalType":"uint256","name":"","type":"uint256"}],"stateMutability":"view","type":"function"},{"inputs":[{"internalType":"uint256","name":"amountA","type":"uint256"},{"internalType":"uint256","name":"reserveA","type":"uint256"},{"internalType":"uint256","name":"reserveB","type":"uint256"}],"name":"quote","outputs":[{"internalType":"uint256","name":"amountB","type":"uint256"}],"stateMutability":"pure","type":"function"},{"inputs":[{"internalType":"address","name":"tokenA","type":"address"},{"internalType":"address","name":"tokenB","type":"address"},{"internalType":"uint256","name":"amountB","type":"uint256"},{"internalType":"uint256","name":"amountA","type":"uint256"}],"name":"setPriceRatio","outputs":[],"stateMutability":"nonpayable","type":"function"},{"inputs":[{"internalType":"address","name":"","type":"address"}],"name":"supportedTokens","outputs":[{"internalType":"bool","name":"","type":"bool"}],"stateMutability":"view","type":"function"},{"inputs":[{"internalType":"uint256","name":"amountIn","type":"uint256"},{"internalType":"uint256","name":"amountOutMin","type":"uint256"},{"internalType":"address[]","name":"path","type":"address[]"},{"internalType":"address","name":"to","type":"address"},{"internalType":"uint256","name":"deadline","type":"uint256"}],"name":"swapExactTokensForTokens","outputs":[{"internalType":"uint256[]","name":"amounts","type":"uint256[]"}],"stateMutability":"nonpayable","type":"function"}],"evm":{"bytecode":{"linkReferences":{},"object":"60a06040523480156200001157600080fd5b506040516200107a3803806200107a8339810160408190526200003491620000eb565b6001600160a01b03821660805260005b8151811015620000af576001806000848481518110620000685762000068620001d4565b6020908102919091018101516001600160a01b03168252810191909152604001600020805460ff191691151591909117905580620000a681620001ea565b91505062000044565b50505062000212565b80516001600160a01b0381168114620000d057600080fd5b919050565b634e487b7160e01b600052604160045260246000fd5b60008060408385031215620000ff57600080fd5b6200010a83620000b8565b602084810151919350906001600160401b03808211156200012a57600080fd5b818601915086601f8301126200013f57600080fd5b815181811115620001545762000154620000d5565b8060051b604051601f19603f830116810181811085821117156200017c576200017c620000d5565b6040529182528482019250838101850191898311156200019b57600080fd5b938501935b82851015620001c457620001b485620000b8565b84529385019392850192620001a0565b8096505050505050509250929050565b634e487b7160e01b600052603260045260246000fd5b6000600182016200020b57634e487b7160e01b600052601160045260246000fd5b5060010190565b608051610e4c6200022e60003960006101200152610e4c6000f3fe608060405234801561001057600080fd5b50600436106100885760003560e01c8063ad615dec1161005b578063ad615dec1461015a578063c71cbb591461016d578063d06ca61f14610182578063e8e337001461019557600080fd5b80630e5efd521461008d57806338ed1739146100c857806368c4ac26146100e8578063ad5c46481461011b575b600080fd5b6100b561009b366004610ad3565b600060208181529281526040808220909352908152205481565b6040519081526020015b60405180910390f35b6100db6100d6366004610b52565b6101c3565b6040516100bf9190610bc2565b61010b6100f6366004610c06565b60016020526000908152604090205460ff1681565b60405190151581526020016100bf565b6101427f000000000000000000000000000000000000000000000000000000000000000081565b6040516001600160a01b0390911681526020016100bf565b6100b5610168366004610c28565b610509565b61018061017b366004610c54565b6105c2565b005b6100db610190366004610c96565b610650565b6101a86101a3366004610ce2565b6107e6565b604080519384526020840192909252908201526060016100bf565b60604282101561020d5760405162461bcd60e51b815260206004820152601060248201526f111958591b1a5b9948195e1c1a5c995960821b60448201526064015b60405180910390fd5b600284101561024d5760405162461bcd60e51b815260206004820152600c60248201526b092dcecc2d8d2c840e0c2e8d60a31b6044820152606401610204565b8367ffffffffffffffff81111561026657610266610d56565b60405190808252806020026020018201604052801561028f578160200160208202803683370190505b50905086816000815181106102a6576102a6610d6c565b6020026020010181815250506102f1333089888860008181106102cb576102cb610d6c565b90506020020160208101906102e09190610c06565b6001600160a01b03169291906109a3565b8660005b610300600187610d98565b81101561041857600080600089898581811061031e5761031e610d6c565b90506020020160208101906103339190610c06565b6001600160a01b03166001600160a01b03168152602001908152602001600020600089898560016103649190610db1565b81811061037357610373610d6c565b90506020020160208101906103889190610c06565b6001600160a01b03166001600160a01b03168152602001908152602001600020549050806000036103be5750670de0b6b3a76400005b670de0b6b3a76400006103d18285610dc4565b6103db9190610ddb565b925082846103ea846001610db1565b815181106103fa576103fa610d6c565b6020908102919091010152508061041081610dfd565b9150506102f5565b508682600184516104299190610d98565b8151811061043957610439610d6c565b6020026020010151101561048f5760405162461bcd60e51b815260206004820152601a60248201527f496e73756666696369656e74206f757470757420616d6f756e740000000000006044820152606401610204565b6104fe8483600185516104a29190610d98565b815181106104b2576104b2610d6c565b602090810291909101015188886104ca600182610d98565b8181106104d9576104d9610d6c565b90506020020160208101906104ee9190610c06565b6001600160a01b03169190610a10565b509695505050505050565b60008084116105505760405162461bcd60e51b8152602060048201526013602482015272125b9cdd59999a58da595b9d08185b5bdd5b9d606a1b6044820152606401610204565b6000831180156105605750600082115b6105a55760405162461bcd60e51b8152602060048201526016602482015275496e73756666696369656e74206c697175696469747960501b6044820152606401610204565b826105b08386610dc4565b6105ba9190610ddb565b949350505050565b806105d583670de0b6b3a7640000610dc4565b6105df9190610ddb565b6001600160a01b03808616600090815260208181526040808320938816835292905220558161061682670de0b6b3a7640000610dc4565b6106209190610ddb565b6001600160a01b039384166000908152602081815260408083209790961682529590955292909320919091555050565b60608167ffffffffffffffff81111561066b5761066b610d56565b604051908082528060200260200182016040528015610694578160200160208202803683370190505b50905083816000815181106106ab576106ab610d6c565b60209081029190910101528360005b6106c5600185610d98565b8110156107dd5760008060008787858181106106e3576106e3610d6c565b90506020020160208101906106f89190610c06565b6001600160a01b03166001600160a01b03168152602001908152602001600020600087878560016107299190610db1565b81811061073857610738610d6c565b905060200201602081019061074d9190610c06565b6001600160a01b03166001600160a01b03168152602001908152602001600020549050806000036107835750670de0b6b3a76400005b670de0b6b3a76400006107968285610dc4565b6107a09190610ddb565b925082846107af846001610db1565b815181106107bf576107bf610d6c565b602090810291909101015250806107d581610dfd565b9150506106ba565b50509392505050565b60008060004284101561082e5760405162461bcd60e51b815260206004820152601060248201526f111958591b1a5b9948195e1c1a5c995960821b6044820152606401610204565b6001600160a01b038b1660009081526001602052604090205460ff16801561086e57506001600160a01b038a1660009081526001602052604090205460ff165b6108ae5760405162461bcd60e51b81526020600482015260116024820152702ab739bab83837b93a32b2103a37b5b2b760791b6044820152606401610204565b6108c36001600160a01b038c1633308c6109a3565b6108d86001600160a01b038b1633308b6109a3565b886108eb89670de0b6b3a7640000610dc4565b6108f59190610ddb565b6001600160a01b03808d16600090815260208181526040808320938f16835292905220558761092c8a670de0b6b3a7640000610dc4565b6109369190610ddb565b6000808c6001600160a01b03166001600160a01b0316815260200190815260200160002060008d6001600160a01b03166001600160a01b03168152602001908152602001600020819055508888898b61098f9190610db1565b925092509250985098509895505050505050565b6040516001600160a01b038481166024830152838116604483015260648201839052610a0a9186918216906323b872dd906084015b604051602081830303815290604052915060e01b6020820180516001600160e01b038381831617835250505050610a46565b50505050565b6040516001600160a01b03838116602483015260448201839052610a4191859182169063a9059cbb906064016109d8565b505050565b600080602060008451602086016000885af180610a69576040513d6000823e3d81fd5b50506000513d91508115610a81578060011415610a8e565b6001600160a01b0384163b155b15610a0a57604051635274afe760e01b81526001600160a01b0385166004820152602401610204565b80356001600160a01b0381168114610ace57600080fd5b919050565b60008060408385031215610ae657600080fd5b610aef83610ab7565b9150610afd60208401610ab7565b90509250929050565b60008083601f840112610b1857600080fd5b50813567ffffffffffffffff811115610b3057600080fd5b6020830191508360208260051b8501011115610b4b57600080fd5b9250929050565b60008060008060008060a08789031215610b6b57600080fd5b8635955060208701359450604087013567ffffffffffffffff811115610b9057600080fd5b610b9c89828a01610b06565b9095509350610baf905060608801610ab7565b9150608087013590509295509295509295565b6020808252825182820181905260009190848201906040850190845b81811015610bfa57835183529284019291840191600101610bde565b50909695505050505050565b600060208284031215610c1857600080fd5b610c2182610ab7565b9392505050565b600080600060608486031215610c3d57600080fd5b505081359360208301359350604090920135919050565b60008060008060808587031215610c6a57600080fd5b610c7385610ab7565b9350610c8160208601610ab7565b93969395505050506040820135916060013590565b600080600060408486031215610cab57600080fd5b83359250602084013567ffffffffffffffff811115610cc957600080fd5b610cd586828701610b06565b9497909650939450505050565b600080600080600080600080610100898b031215610cff57600080fd5b610d0889610ab7565b9750610d1660208a01610ab7565b965060408901359550606089013594506080890135935060a08901359250610d4060c08a01610ab7565b915060e089013590509295985092959890939650565b634e487b7160e01b600052604160045260246000fd5b634e487b7160e01b600052603260045260246000fd5b634e487b7160e01b600052601160045260246000fd5b81810381811115610dab57610dab610d82565b92915050565b80820180821115610dab57610dab610d82565b8082028115828204841417610dab57610dab610d82565b600082610df857634e487b7160e01b600052601260045260246000fd5b500490565b600060018201610e0f57610e0f610d82565b506001019056fea26469706673582212205f9689ae1f6a9cad6973887eb9c14e247b961959109afdc50855e7aef9b0411764736f6c63430008140033","opcodes":"PUSH1 0xA0 PUSH1 0x40 MSTORE CALLVALUE DUP1 ISZERO PUSH3 0x11 JUMPI PUSH1 0x0 DUP1 REVERT JUMPDEST POP PUSH1 0x40 MLOAD PUSH3 0x107A CODESIZE SUB DUP1 PUSH3 0x107A DUP4 CODECOPY DUP2 ADD PUSH1 0x40 DUP2 SWAP1 MSTORE PUSH3 0x34 SWAP2 PUSH3 0xEB JUMP JUMPDEST PUSH1 0x1 PUSH1 0x1 PUSH1 0xA0 SHL SUB DUP3 AND PUSH1 0x80 MSTORE PUSH1 0x0 JUMPDEST DUP2 MLOAD DUP2 LT ISZERO PUSH3 0xAF JUMPI PUSH1 0x1 DUP1 PUSH1 0x0 DUP5 DUP5 DUP2 MLOAD DUP2 LT PUSH3 0x68 JUMPI PUSH3 0x68 PUSH3 0x1D4 JUMP JUMPDEST PUSH1 0x20 SWAP1 DUP2 MUL SWAP2 SWAP1 SWAP2 ADD DUP2 ADD MLOAD PUSH1 0x1 PUSH1 0x1 PUSH1 0xA0 SHL SUB AND DUP3 MSTORE DUP2 ADD SWAP2 SWAP1 SWAP2 MSTORE PUSH1 0x40 ADD PUSH1 0x0 KECCAK256 DUP1 SLOAD PUSH1 0xFF NOT AND SWAP2 ISZERO ISZERO SWAP2 SWAP1 SWAP2 OR SWAP1 SSTORE DUP1 PUSH3 0xA6 DUP2 PUSH3 0x1EA JUMP JUMPDEST SWAP2 POP POP PUSH3 0x44 JUMP JUMPDEST POP POP POP PUSH3 0x212 JUMP JUMPDEST DUP1 MLOAD PUSH1 0x1 PUSH1 0x1 PUSH1 0xA0 SHL SUB DUP2 AND DUP2 EQ PUSH3 0xD0 JUMPI PUSH1 0x0 DUP1 REVERT JUMPDEST SWAP2 SWAP1 POP JUMP JUMPDEST PUSH4 0x4E487B71 PUSH1 0xE0 SHL PUSH1 0x0 MSTORE PUSH1 0x41 PUSH1 0x4 MSTORE PUSH1 0x24 PUSH1 0x0 REVERT JUMPDEST PUSH1 0x0 DUP1 PUSH1 0x40 DUP4 DUP6 SUB SLT ISZERO PUSH3 0xFF JUMPI PUSH1 0x0 DUP1 REVERT JUMPDEST PUSH3 0x10A DUP4 PUSH3 0xB8 JUMP JUMPDEST PUSH1 0x20 DUP5 DUP2 ADD MLOAD SWAP2 SWAP4 POP SWAP1 PUSH1 0x1 PUSH1 0x1 PUSH1 0x40 SHL SUB DUP1 DUP3 GT ISZERO PUSH3 0x12A JUMPI PUSH1 0x0 DUP1 REVERT JUMPDEST DUP2 DUP7 ADD SWAP2 POP DUP7 PUSH1 0x1F DUP4 ADD SLT PUSH3 0x13F JUMPI PUSH1 0x0 DUP1 REVERT JUMPDEST DUP2 MLOAD DUP2 DUP2 GT ISZERO PUSH3 0x154 JUMPI PUSH3 0x154 PUSH3 0xD5 JUMP JUMPDEST DUP1 PUSH1 0x5 SHL PUSH1 0x40 MLOAD PUSH1 0x1F NOT PUSH1 0x3F DUP4 ADD AND DUP2 ADD DUP2 DUP2 LT DUP6 DUP3 GT OR ISZERO PUSH3 0x17C JUMPI PUSH3 0x17C PUSH3 0xD5 JUMP JUMPDEST PUSH1 0x40 MSTORE SWAP2 DUP3 MSTORE DUP5 DUP3 ADD SWAP3 POP DUP4 DUP2 ADD DUP6 ADD SWAP2 DUP10 DUP4 GT ISZERO PUSH3 0x19B JUMPI PUSH1 0x0 DUP1 REVERT JUMPDEST SWAP4 DUP6 ADD SWAP4 JUMPDEST DUP3 DUP6 LT ISZERO PUSH3 0x1C4 JUMPI PUSH3 0x1B4 DUP6 PUSH3 0xB8 JUMP JUMPDEST DUP5 MSTORE SWAP4 DUP6 ADD SWAP4 SWAP3 DUP6 ADD SWAP3 PUSH3 0x1A0 JUMP JUMPDEST DUP1 SWAP7 POP POP POP POP POP POP POP SWAP3 POP SWAP3 SWAP1 POP JUMP JUMPDEST PUSH4 0x4E487B71 PUSH1 0xE0 SHL PUSH1 0x0 MSTORE PUSH1 0x32 PUSH1 0x4 MSTORE PUSH1 0x24 PUSH1 0x0 REVERT JUMPDEST PUSH1 0x0 PUSH1 0x1 DUP3 ADD PUSH3 0x20B JUMPI PUSH4 0x4E487B71 PUSH1 0xE0 SHL PUSH1 0x0 MSTORE PUSH1 0x11 PUSH1 0x4 MSTORE PUSH1 0x24 PUSH1 0x0 REVERT JUMPDEST POP PUSH1 0x1 ADD SWAP1 JUMP JUMPDEST PUSH1 0x80 MLOAD PUSH2 0xE4C PUSH3 0x22E PUSH1 0x0 CODECOPY PUSH1 0x0 PUSH2 0x120 ADD MSTORE PUSH2 0xE4C PUSH1 0x0 RETURN INVALID PUSH1 0x80 PUSH1 0x40 MSTORE CALLVALUE DUP1 ISZERO PUSH2 0x10 JUMPI PUSH1 0x0 DUP1 REVERT JUMPDEST POP PUSH1 0x4 CALLDATASIZE LT PUSH2 0x88 JUMPI PUSH1 0x0 CALLDATALOAD PUSH1 0xE0 SHR DUP1 PUSH4 0xAD615DEC GT PUSH2 0x5B JUMPI DUP1 PUSH4 0xAD615DEC EQ PUSH2 0x15A JUMPI DUP1 PUSH4 0xC71CBB59 EQ PUSH2 0x16D JUMPI DUP1 PUSH4 0xD06CA61F EQ PUSH2 0x182 JUMPI DUP1 PUSH4 0xE8E33700 EQ PUSH2 0x195 JUMPI PUSH1 0x0 DUP1 REVERT JUMPDEST DUP1 PUSH4 0xE5EFD52 EQ PUSH2 0x8D JUMPI DUP1 PUSH4 0x38ED1739 EQ PUSH2 0xC8 JUMPI DUP1 PUSH4 0x68C4AC26 EQ PUSH2 0xE8 JUMPI DUP1 PUSH4 0xAD5C4648 EQ PUSH2 0x11B JUMPI JUMPDEST PUSH1 0x0 DUP1 REVERT JUMPDEST PUSH2 0xB5 PUSH2 0x9B CALLDATASIZE PUSH1 0x4 PUSH2 0xAD3 JUMP JUMPDEST PUSH1 0x0 PUSH1 0x20 DUP2 DUP2 MSTORE SWAP3 DUP2 MSTORE PUSH1 0x40 DUP1 DUP3 KECCAK256 SWAP1 SWAP4 MSTORE SWAP1 DUP2 MSTORE KECCAK256 SLOAD DUP2 JUMP JUMPDEST PUSH1 0x40 MLOAD SWAP1 DUP2 MSTORE PUSH1 0x20 ADD JUMPDEST PUSH1 0x40 MLOAD DUP1 SWAP2 SUB SWAP1 RETURN JUMPDEST PUSH2 0xDB PUSH2 0xD6 CALLDATASIZE PUSH1 0x4 PUSH2 0xB52 JUMP JUMPDEST PUSH2 0x1C3 JUMP JUMPDEST PUSH1 0x40 MLOAD PUSH2 0xBF SWAP2 SWAP1 PUSH2 0xBC2 JUMP JUMPDEST PUSH2 0x10B PUSH2 0xF6 CALLDATASIZE PUSH1 0x4 PUSH2 0xC06 JUMP JUMPDEST PUSH1 0x1 PUSH1 0x20 MSTORE PUSH1 0x0 SWAP1 DUP2 MSTORE PUSH1 0x40 SWAP1 KECCAK256 SLOAD PUSH1 0xFF AND DUP2 JUMP JUMPDEST PUSH1 0x40 MLOAD SWAP1 ISZERO ISZERO DUP2 MSTORE PUSH1 0x20 ADD PUSH2 0xBF JUMP JUMPDEST PUSH2 0x142 PUSH32 0x0 DUP2 JUMP JUMPDEST PUSH1 0x40 MLOAD PUSH1 0x1 PUSH1 0x1 PUSH1 0xA0 SHL SUB SWAP1 SWAP2 AND DUP2 MSTORE PUSH1 0x20 ADD PUSH2 0xBF JUMP JUMPDEST PUSH2 0xB5 PUSH2 0x168 CALLDATASIZE PUSH1 0x4 PUSH2 0xC28 JUMP JUMPDEST PUSH2 0x509 JUMP JUMPDEST PUSH2 0x180 PUSH2 0x17B CALLDATASIZE PUSH1 0x4 PUSH2 0xC54 JUMP JUMPDEST PUSH2 0x5C2 JUMP JUMPDEST STOP JUMPDEST PUSH2 0xDB PUSH2 0x190 CALLDATASIZE PUSH1 0x4 PUSH2 0xC96 JUMP JUMPDEST PUSH2 0x650 JUMP JUMPDEST PUSH2 0x1A8 PUSH2 0x1A3 CALLDATASIZE PUSH1 0x4 PUSH2 0xCE2 JUMP JUMPDEST PUSH2 0x7E6 JUMP JUMPDEST PUSH1 0x40 DUP1 MLOAD SWAP4 DUP5 MSTORE PUSH1 0x20 DUP5 ADD SWAP3 SWAP1 SWAP3 MSTORE SWAP1 DUP3 ADD MSTORE PUSH1 0x60 ADD PUSH2 0xBF JUMP JUMPDEST PUSH1 0x60 TIMESTAMP DUP3 LT ISZERO PUSH2 0x20D JUMPI PUSH1 0x40 MLOAD PUSH3 0x461BCD PUSH1 0xE5 SHL DUP2 MSTORE PUSH1 0x20 PUSH1 0x4 DUP3 ADD MSTORE PUSH1 0x10 PUSH1 0x24 DUP3 ADD MSTORE PUSH16 0x111958591B1A5B9948195E1C1A5C9959 PUSH1 0x82 SHL PUSH1 0x44 DUP3 ADD MSTORE PUSH1 0x64 ADD JUMPDEST PUSH1 0x40 MLOAD DUP1 SWAP2 SUB SWAP1 REVERT JUMPDEST PUSH1 0x2 DUP5 LT ISZERO PUSH2 0x24D JUMPI PUSH1 0x40 MLOAD PUSH3 0x461BCD PUSH1 0xE5 SHL DUP2 MSTORE PUSH1 0x20 PUSH1 0x4 DUP3 ADD MSTORE PUSH1 0xC PUSH1 0x24 DUP3 ADD MSTORE PUSH12 0x92DCECC2D8D2C840E0C2E8D PUSH1 0xA3 SHL PUSH1 0x44 DUP3 ADD MSTORE PUSH1 0x64 ADD PUSH2 0x204 JUMP JUMPDEST DUP4 PUSH8 0xFFFFFFFFFFFFFFFF DUP2 GT ISZERO PUSH2 0x266 JUMPI PUSH2 0x266 PUSH2 0xD56 JUMP JUMPDEST PUSH1 0x40 MLOAD SWAP1 DUP1 DUP3 MSTORE DUP1 PUSH1 0x20 MUL PUSH1 0x20 ADD DUP3 ADD PUSH1 0x40 MSTORE DUP1 ISZERO PUSH2 0x28F JUMPI DUP2 PUSH1 0x20 ADD PUSH1 0x20 DUP3 MUL DUP1 CALLDATASIZE DUP4 CALLDATACOPY ADD SWAP1 POP JUMPDEST POP SWAP1 POP DUP7 DUP2 PUSH1 0x0 DUP2 MLOAD DUP2 LT PUSH2 0x2A6 JUMPI PUSH2 0x2A6 PUSH2 0xD6C JUMP JUMPDEST PUSH1 0x20 MUL PUSH1 0x20 ADD ADD DUP2 DUP2 MSTORE POP POP PUSH2 0x2F1 CALLER ADDRESS DUP10 DUP9 DUP9 PUSH1 0x0 DUP2 DUP2 LT PUSH2 0x2CB JUMPI PUSH2 0x2CB PUSH2 0xD6C JUMP JUMPDEST SWAP1 POP PUSH1 0x20 MUL ADD PUSH1 0x20 DUP2 ADD SWAP1 PUSH2 0x2E0 SWAP2 SWAP1 PUSH2 0xC06 JUMP JUMPDEST PUSH1 0x1 PUSH1 0x1 PUSH1 0xA0 SHL SUB AND SWAP3 SWAP2 SWAP1 PUSH2 0x9A3 JUMP JUMPDEST DUP7 PUSH1 0x0 JUMPDEST PUSH2 0x300 PUSH1 0x1 DUP8 PUSH2 0xD98 JUMP JUMPDEST DUP2 LT ISZERO PUSH2 0x418 JUMPI PUSH1 0x0 DUP1 PUSH1 0x0 DUP10 DUP10 DUP6 DUP2 DUP2 LT PUSH2 0x31E JUMPI PUSH2 0x31E PUSH2 0xD6C JUMP JUMPDEST SWAP1 POP PUSH1 0x20 MUL ADD PUSH1 0x20 DUP2 ADD SWAP1 PUSH2 0x333 SWAP2 SWAP1 PUSH2 0xC06 JUMP JUMPDEST PUSH1 0x1 PUSH1 0x1 PUSH1 0xA0 SHL SUB AND PUSH1 0x1 PUSH1 0x1 PUSH1 0xA0 SHL SUB AND DUP2 MSTORE PUSH1 0x20 ADD SWAP1 DUP2 MSTORE PUSH1 0x20 ADD PUSH1 0x0 KECCAK256 PUSH1 0x0 DUP10 DUP10 DUP6 PUSH1 0x1 PUSH2 0x364 SWAP2 SWAP1 PUSH2 0xDB1 JUMP JUMPDEST DUP2 DUP2 LT PUSH2 0x373 JUMPI PUSH2 0x373 PUSH2 0xD6C JUMP JUMPDEST SWAP1 POP PUSH1 0x20 MUL ADD PUSH1 0x20 DUP2 ADD SWAP1 PUSH2 0x388 SWAP2 SWAP1 PUSH2 0xC06 JUMP JUMPDEST PUSH1 0x1 PUSH1 0x1 PUSH1 0xA0 SHL SUB AND PUSH1 0x1 PUSH1 0x1 PUSH1 0xA0 SHL SUB AND DUP2 MSTORE PUSH1 0x20 ADD SWAP1 DUP2 MSTORE PUSH1 0x20 ADD PUSH1 0x0 KECCAK256 SLOAD SWAP1 POP DUP1 PUSH1 0x0 SUB PUSH2 0x3BE JUMPI POP PUSH8 0xDE0B6B3A7640000 JUMPDEST PUSH8 0xDE0B6B3A7640000 PUSH2 0x3D1 DUP3 DUP6 PUSH2 0xDC4 JUMP JUMPDEST PUSH2 0x3DB SWAP2 SWAP1 PUSH2 0xDDB JUMP JUMPDEST SWAP3 POP DUP3 DUP5 PUSH2 0x3EA DUP5 PUSH1 0x1 PUSH2 0xDB1 JUMP JUMPDEST DUP2 MLOAD DUP2 LT PUSH2 0x3FA JUMPI PUSH2 0x3FA PUSH2 0xD6C JUMP JUMPDEST PUSH1 0x20 SWAP1 DUP2 MUL SWAP2 SWAP1 SWAP2 ADD ADD MSTORE POP DUP1 PUSH2 0x410 DUP2 PUSH2 0xDFD JUMP JUMPDEST SWAP2 POP POP PUSH2 0x2F5 JUMP JUMPDEST POP DUP7 DUP3 PUSH1 0x1 DUP5 MLOAD PUSH2 0x429 SWAP2 SWAP1 PUSH2 0xD98 JUMP JUMPDEST DUP2 MLOAD DUP2 LT PUSH2 0x439 JUMPI PUSH2 0x439 PUSH2 0xD6C JUMP JUMPDEST PUSH1 0x20 MUL PUSH1 0x20 ADD ADD MLOAD LT ISZERO PUSH2 0x48F JUMPI PUSH1 0x40 MLOAD PUSH3 0x461BCD PUSH1 0xE5 SHL DUP2 MSTORE PUSH1 0x20 PUSH1 0x4 DUP3 ADD MSTORE PUSH1 0x1A PUSH1 0x24 DUP3 ADD MSTORE PUSH32 0x496E73756666696369656E74206F757470757420616D6F756E74000000000000 PUSH1 0x44 DUP3 ADD MSTORE PUSH1 0x64 ADD PUSH2 0x204 JUMP JUMPDEST PUSH2 0x4FE DUP5 DUP4 PUSH1 0x1 DUP6 MLOAD PUSH2 0x4A2 SWAP2 SWAP1 PUSH2 0xD98 JUMP JUMPDEST DUP2 MLOAD DUP2 LT PUSH2 0x4B2 JUMPI PUSH2 0x4B2 PUSH2 0xD6C JUMP JUMPDEST PUSH1 0x20 SWAP1 DUP2 MUL SWAP2 SWAP1 SWAP2 ADD ADD MLOAD DUP9 DUP9 PUSH2 0x4CA PUSH1 0x1 DUP3 PUSH2 0xD98 JUMP JUMPDEST DUP2 DUP2 LT PUSH2 0x4D9 JUMPI PUSH2 0x4D9 PUSH2 0xD6C JUMP JUMPDEST SWAP1 POP PUSH1 0x20 MUL ADD PUSH1 0x20 DUP2 ADD SWAP1 PUSH2 0x4EE SWAP2 SWAP1 PUSH2 0xC06 JUMP JUMPDEST PUSH1 0x1 PUSH1 0x1 PUSH1 0xA0 SHL SUB AND SWAP2 SWAP1 PUSH2 0xA10 JUMP JUMPDEST POP SWAP7 SWAP6 POP POP POP POP POP POP JUMP JUMPDEST PUSH1 0x0 DUP1 DUP5 GT PUSH2 0x550 JUMPI PUSH1 0x40 MLOAD PUSH3 0x461BCD PUSH1 0xE5 SHL DUP2 MSTORE PUSH1 0x20 PUSH1 0x4 DUP3 ADD MSTORE PUSH1 0x13 PUSH1 0x24 DUP3 ADD MSTORE PUSH19 0x125B9CDD59999A58DA595B9D08185B5BDD5B9D PUSH1 0x6A SHL PUSH1 0x44 DUP3 ADD MSTORE PUSH1 0x64 ADD PUSH2 0x204 JUMP JUMPDEST PUSH1 0x0 DUP4 GT DUP1 ISZERO PUSH2 0x560 JUMPI POP PUSH1 0x0 DUP3 GT JUMPDEST PUSH2 0x5A5 JUMPI PUSH1 0x40 MLOAD PUSH3 0x461BCD PUSH1 0xE5 SHL DUP2 MSTORE PUSH1 0x20 PUSH1 0x4 DUP3 ADD MSTORE PUSH1 0x16 PUSH1 0x24 DUP3 ADD MSTORE PUSH22 0x496E73756666696369656E74206C6971756964697479 PUSH1 0x50 SHL PUSH1 0x44 DUP3 ADD MSTORE PUSH1 0x64 ADD PUSH2 0x204 JUMP JUMPDEST DUP3 PUSH2 0x5B0 DUP4 DUP7 PUSH2 0xDC4 JUMP JUMPDEST PUSH2 0x5BA SWAP2 SWAP1 PUSH2 0xDDB JUMP JUMPDEST SWAP5 SWAP4 POP POP POP POP JUMP JUMPDEST DUP1 PUSH2 0x5D5 DUP4 PUSH8 0xDE0B6B3A7640000 PUSH2 0xDC4 JUMP JUMPDEST PUSH2 0x5DF SWAP2 SWAP1 PUSH2 0xDDB JUMP JUMPDEST PUSH1 0x1 PUSH1 0x1 PUSH1 0xA0 SHL SUB DUP1 DUP7 AND PUSH1 0x0 SWAP1 DUP2 MSTORE PUSH1 0x20 DUP2 DUP2 MSTORE PUSH1 0x40 DUP1 DUP4 KECCAK256 SWAP4 DUP9 AND DUP4 MSTORE SWAP3 SWAP1 MSTORE KECCAK256 SSTORE DUP2 PUSH2 0x616 DUP3 PUSH8 0xDE0B6B3A7640000 PUSH2 0xDC4 JUMP JUMPDEST PUSH2 0x620 SWAP2 SWAP1 PUSH2 0xDDB JUMP JUMPDEST PUSH1 0x1 PUSH1 0x1 PUSH1 0xA0 SHL SUB SWAP4 DUP5 AND PUSH1 0x0 SWAP1 DUP2 MSTORE PUSH1 0x20 DUP2 DUP2 MSTORE PUSH1 0x40 DUP1 DUP4 KECCAK256 SWAP8 SWAP1 SWAP7 AND DUP3 MSTORE SWAP6 SWAP1 SWAP6 MSTORE SWAP3 SWAP1 SWAP4 KECCAK256 SWAP2 SWAP1 SWAP2 SSTORE POP POP JUMP JUMPDEST PUSH1 0x60 DUP2 PUSH8 0xFFFFFFFFFFFFFFFF DUP2 GT ISZERO PUSH2 0x66B JUMPI PUSH2 0x66B PUSH2 0xD56 JUMP JUMPDEST PUSH1 0x40 MLOAD SWAP1 DUP1 DUP3 MSTORE DUP1 PUSH1 0x20 MUL PUSH1 0x20 ADD DUP3 ADD PUSH1 0x40 MSTORE DUP1 ISZERO PUSH2 0x694 JUMPI DUP2 PUSH1 0x20 ADD PUSH1 0x20 DUP3 MUL DUP1 CALLDATASIZE DUP4 CALLDATACOPY ADD SWAP1 POP JUMPDEST POP SWAP1 POP DUP4 DUP2 PUSH1 0x0 DUP2 MLOAD DUP2 LT PUSH2 0x6AB JUMPI PUSH2 0x6AB PUSH2 0xD6C JUMP JUMPDEST PUSH1 0x20 SWAP1 DUP2 MUL SWAP2 SWAP1 SWAP2 ADD ADD MSTORE DUP4 PUSH1 0x0 JUMPDEST PUSH2 0x6C5 PUSH1 0x1 DUP6 PUSH2 0xD98 JUMP JUMPDEST DUP2 LT ISZERO PUSH2 0x7DD JUMPI PUSH1 0x0 DUP1 PUSH1 0x0 DUP8 DUP8 DUP6 DUP2 DUP2 LT PUSH2 0x6E3 JUMPI PUSH2 0x6E3 PUSH2 0xD6C JUMP JUMPDEST SWAP1 POP PUSH1 0x20 MUL ADD PUSH1 0x20 DUP2 ADD SWAP1 PUSH2 0x6F8 SWAP2 SWAP1 PUSH2 0xC06 JUMP JUMPDEST PUSH1 0x1 PUSH1 0x1 PUSH1 0xA0 SHL SUB AND PUSH1 0x1 PUSH1 0x1 PUSH1 0xA0 SHL SUB AND DUP2 MSTORE PUSH1 0x20 ADD SWAP1 DUP2 MSTORE PUSH1 0x20 ADD PUSH1 0x0 KECCAK256 PUSH1 0x0 DUP8 DUP8 DUP6 PUSH1 0x1 PUSH2 0x729 SWAP2 SWAP1 PUSH2 0xDB1 JUMP JUMPDEST DUP2 DUP2 LT PUSH2 0x738 JUMPI PUSH2 0x738 PUSH2 0xD6C JUMP JUMPDEST SWAP1 POP PUSH1 0x20 MUL ADD PUSH1 0x20 DUP2 ADD SWAP1 PUSH2 0x74D SWAP2 SWAP1 PUSH2 0xC06 JUMP JUMPDEST PUSH1 0x1 PUSH1 0x1 PUSH1 0xA0 SHL SUB AND PUSH1 0x1 PUSH1 0x1 PUSH1 0xA0 SHL SUB AND DUP2 MSTORE PUSH1 0x20 ADD SWAP1 DUP2 MSTORE PUSH1 0x20 ADD PUSH1 0x0 KECCAK256 SLOAD SWAP1 POP DUP1 PUSH1 0x0 SUB PUSH2 0x783 JUMPI POP PUSH8 0xDE0B6B3A7640000 JUMPDEST PUSH8 0xDE0B6B3A7640000 PUSH2 0x796 DUP3 DUP6 PUSH2 0xDC4 JUMP JUMPDEST PUSH2 0x7A0 SWAP2 SWAP1 PUSH2 0xDDB JUMP JUMPDEST SWAP3 POP DUP3 DUP5 PUSH2 0x7AF DUP5 PUSH1 0x1 PUSH2 0xDB1 JUMP JUMPDEST DUP2 MLOAD DUP2 LT PUSH2 0x7BF JUMPI PUSH2 0x7BF PUSH2 0xD6C JUMP JUMPDEST PUSH1 0x20 SWAP1 DUP2 MUL SWAP2 SWAP1 SWAP2 ADD ADD MSTORE POP DUP1 PUSH2 0x7D5 DUP2 PUSH2 0xDFD JUMP JUMPDEST SWAP2 POP POP PUSH2 0x6BA JUMP JUMPDEST POP POP SWAP4 SWAP3 POP POP POP JUMP JUMPDEST PUSH1 0x0 DUP1 PUSH1 0x0 TIMESTAMP DUP5 LT ISZERO PUSH2 0x82E JUMPI PUSH1 0x40 MLOAD PUSH3 0x461BCD PUSH1 0xE5 SHL DUP2 MSTORE PUSH1 0x20 PUSH1 0x4 DUP3 ADD MSTORE PUSH1 0x10 PUSH1 0x24 DUP3 ADD MSTORE PUSH16 0x111958591B1A5B9948195E1C1A5C9959 PUSH1 0x82 SHL PUSH1 0x44 DUP3 ADD MSTORE PUSH1 0x64 ADD PUSH2 0x204 JUMP JUMPDEST PUSH1 0x1 PUSH1 0x1 PUSH1 0xA0 SHL SUB DUP12 AND PUSH1 0x0 SWAP1 DUP2 MSTORE PUSH1 0x1 PUSH1 0x20 MSTORE PUSH1 0x40 SWAP1 KECCAK256 SLOAD PUSH1 0xFF AND DUP1 ISZERO PUSH2 0x86E JUMPI POP PUSH1 0x1 PUSH1 0x1 PUSH1 0xA0 SHL SUB DUP11 AND PUSH1 0x0 SWAP1 DUP2 MSTORE PUSH1 0x1 PUSH1 0x20 MSTORE PUSH1 0x40 SWAP1 KECCAK256 SLOAD PUSH1 0xFF AND JUMPDEST PUSH2 0x8AE JUMPI PUSH1 0x40 MLOAD PUSH3 0x461BCD PUSH1 0xE5 SHL DUP2 MSTORE PUSH1 0x20 PUSH1 0x4 DUP3 ADD MSTORE PUSH1 0x11 PUSH1 0x24 DUP3 ADD MSTORE PUSH17 0x2AB739BAB83837B93A32B2103A37B5B2B7 PUSH1 0x79 SHL PUSH1 0x44 DUP3 ADD MSTORE PUSH1 0x64 ADD PUSH2 0x204 JUMP JUMPDEST PUSH2 0x8C3 PUSH1 0x1 PUSH1 0x1 PUSH1 0xA0 SHL SUB DUP13 AND CALLER ADDRESS DUP13 PUSH2 0x9A3 JUMP JUMPDEST PUSH2 0x8D8 PUSH1 0x1 PUSH1 0x1 PUSH1 0xA0 SHL SUB DUP12 AND CALLER ADDRESS DUP12 PUSH2 0x9A3 JUMP JUMPDEST DUP9 PUSH2 0x8EB DUP10 PUSH8 0xDE0B6B3A7640000 PUSH2 0xDC4 JUMP JUMPDEST PUSH2 0x8F5 SWAP2 SWAP1 PUSH2 0xDDB JUMP JUMPDEST PUSH1 0x1 PUSH1 0x1 PUSH1 0xA0 SHL SUB DUP1 DUP14 AND PUSH1 0x0 SWAP1 DUP2 MSTORE PUSH1 0x20 DUP2 DUP2 MSTORE PUSH1 0x40 DUP1 DUP4 KECCAK256 SWAP4 DUP16 AND DUP4 MSTORE SWAP3 SWAP1 MSTORE KECCAK256 SSTORE DUP8 PUSH2 0x92C DUP11 PUSH8 0xDE0B6B3A7640000 PUSH2 0xDC4 JUMP JUMPDEST PUSH2 0x936 SWAP2 SWAP1 PUSH2 0xDDB JUMP JUMPDEST PUSH1 0x0 DUP1 DUP13 PUSH1 0x1 PUSH1 0x1 PUSH1 0xA0 SHL SUB AND PUSH1 0x1 PUSH1 0x1 PUSH1 0xA0 SHL SUB AND DUP2 MSTORE PUSH1 0x20 ADD SWAP1 DUP2 MSTORE PUSH1 0x20 ADD PUSH1 0x0 KECCAK256 PUSH1 0x0 DUP14 PUSH1 0x1 PUSH1 0x1 PUSH1 0xA0 SHL SUB AND PUSH1 0x1 PUSH1 0x1 PUSH1 0xA0 SHL SUB AND DUP2 MSTORE PUSH1 0x20 ADD SWAP1 DUP2 MSTORE PUSH1 0x20 ADD PUSH1 0x0 KECCAK256 DUP2 SWAP1 SSTORE POP DUP9 DUP9 DUP10 DUP12 PUSH2 0x98F SWAP2 SWAP1 PUSH2 0xDB1 JUMP JUMPDEST SWAP3 POP SWAP3 POP SWAP3 POP SWAP9 POP SWAP9 POP SWAP9 SWAP6 POP POP POP POP POP POP JUMP JUMPDEST PUSH1 0x40 MLOAD PUSH1 0x1 PUSH1 0x1 PUSH1 0xA0 SHL SUB DUP5 DUP2 AND PUSH1 0x24 DUP4 ADD MSTORE DUP4 DUP2 AND PUSH1 0x44 DUP4 ADD MSTORE PUSH1 0x64 DUP3 ADD DUP4 SWAP1 MSTORE PUSH2 0xA0A SWAP2 DUP7 SWAP2 DUP3 AND SWAP1 PUSH4 0x23B872DD SWAP1 PUSH1 0x84 ADD JUMPDEST PUSH1 0x40 MLOAD PUSH1 0x20 DUP2 DUP4 SUB SUB DUP2 MSTORE SWAP1 PUSH1 0x40 MSTORE SWAP2 POP PUSH1 0xE0 SHL PUSH1 0x20 DUP3 ADD DUP1 MLOAD PUSH1 0x1 PUSH1 0x1 PUSH1 0xE0 SHL SUB DUP4 DUP2 DUP4 AND OR DUP4 MSTORE POP POP POP POP PUSH2 0xA46 JUMP JUMPDEST POP POP POP POP JUMP JUMPDEST PUSH1 0x40 MLOAD PUSH1 0x1 PUSH1 0x1 PUSH1 0xA0 SHL SUB DUP4 DUP2 AND PUSH1 0x24 DUP4 ADD MSTORE PUSH1 0x44 DUP3 ADD DUP4 SWAP1 MSTORE PUSH2 0xA41 SWAP2 DUP6 SWAP2 DUP3 AND SWAP1 PUSH4 0xA9059CBB SWAP1 PUSH1 0x64 ADD PUSH2 0x9D8 JUMP JUMPDEST POP POP POP JUMP JUMPDEST PUSH1 0x0 DUP1 PUSH1 0x20 PUSH1 0x0 DUP5 MLOAD PUSH1 0x20 DUP7 ADD PUSH1 0x0 DUP9 GAS CALL DUP1 PUSH2 0xA69 JUMPI PUSH1 0x40 MLOAD RETURNDATASIZE PUSH1 0x0 DUP3 RETURNDATACOPY RETURNDATASIZE DUP2 REVERT JUMPDEST POP POP PUSH1 0x0 MLOAD RETURNDATASIZE SWAP2 POP DUP2 ISZERO PUSH2 0xA81 JUMPI DUP1 PUSH1 0x1 EQ ISZERO PUSH2 0xA8E JUMP JUMPDEST PUSH1 0x1 PUSH1 0x1 PUSH1 0xA0 SHL SUB DUP5 AND EXTCODESIZE ISZERO JUMPDEST ISZERO PUSH2 0xA0A JUMPI PUSH1 0x40 MLOAD PUSH4 0x5274AFE7 PUSH1 0xE0 SHL DUP2 MSTORE PUSH1 0x1 PUSH1 0x1 PUSH1 0xA0 SHL SUB DUP6 AND PUSH1 0x4 DUP3 ADD MSTORE PUSH1 0x24 ADD PUSH2 0x204 JUMP JUMPDEST DUP1 CALLDATALOAD PUSH1 0x1 PUSH1 0x1 PUSH1 0xA0 SHL SUB DUP2 AND DUP2 EQ PUSH2 0xACE JUMPI PUSH1 0x0 DUP1 REVERT JUMPDEST SWAP2 SWAP1 POP JUMP JUMPDEST PUSH1 0x0 DUP1 PUSH1 0x40 DUP4 DUP6 SUB SLT ISZERO PUSH2 0xAE6 JUMPI PUSH1 0x0 DUP1 REVERT JUMPDEST PUSH2 0xAEF DUP4 PUSH2 0xAB7 JUMP JUMPDEST SWAP2 POP PUSH2 0xAFD PUSH1 0x20 DUP5 ADD PUSH2 0xAB7 JUMP JUMPDEST SWAP1 POP SWAP3 POP SWAP3 SWAP1 POP JUMP JUMPDEST PUSH1 0x0 DUP1 DUP4 PUSH1 0x1F DUP5 ADD SLT PUSH2 0xB18 JUMPI PUSH1 0x0 DUP1 REVERT JUMPDEST POP DUP2 CALLDATALOAD PUSH8 0xFFFFFFFFFFFFFFFF DUP2 GT ISZERO PUSH2 0xB30 JUMPI PUSH1 0x0 DUP1 REVERT JUMPDEST PUSH1 0x20 DUP4 ADD SWAP2 POP DUP4 PUSH1 0x20 DUP3 PUSH1 0x5 SHL DUP6 ADD ADD GT ISZERO PUSH2 0xB4B JUMPI PUSH1 0x0 DUP1 REVERT JUMPDEST SWAP3 POP SWAP3 SWAP1 POP JUMP JUMPDEST PUSH1 0x0 DUP1 PUSH1 0x0 DUP1 PUSH1 0x0 DUP1 PUSH1 0xA0 DUP8 DUP10 SUB SLT ISZERO PUSH2 0xB6B JUMPI PUSH1 0x0 DUP1 REVERT JUMPDEST DUP7 CALLDATALOAD SWAP6 POP PUSH1 0x20 DUP8 ADD CALLDATALOAD SWAP5 POP PUSH1 0x40 DUP8 ADD CALLDATALOAD PUSH8 0xFFFFFFFFFFFFFFFF DUP2 GT ISZERO PUSH2 0xB90 JUMPI PUSH1 0x0 DUP1 REVERT JUMPDEST PUSH2 0xB9C DUP10 DUP3 DUP11 ADD PUSH2 0xB06 JUMP JUMPDEST SWAP1 SWAP6 POP SWAP4 POP PUSH2 0xBAF SWAP1 POP PUSH1 0x60 DUP9 ADD PUSH2 0xAB7 JUMP JUMPDEST SWAP2 POP PUSH1 0x80 DUP8 ADD CALLDATALOAD SWAP1 POP SWAP3 SWAP6 POP SWAP3 SWAP6 POP SWAP3 SWAP6 JUMP JUMPDEST PUSH1 0x20 DUP1 DUP3 MSTORE DUP3 MLOAD DUP3 DUP3 ADD DUP2 SWAP1 MSTORE PUSH1 0x0 SWAP2 SWAP1 DUP5 DUP3 ADD SWAP1 PUSH1 0x40 DUP6 ADD SWAP1 DUP5 JUMPDEST DUP2 DUP2 LT ISZERO PUSH2 0xBFA JUMPI DUP4 MLOAD DUP4 MSTORE SWAP3 DUP5 ADD SWAP3 SWAP2 DUP5 ADD SWAP2 PUSH1 0x1 ADD PUSH2 0xBDE JUMP JUMPDEST POP SWAP1 SWAP7 SWAP6 POP POP POP POP POP POP JUMP JUMPDEST PUSH1 0x0 PUSH1 0x20 DUP3 DUP5 SUB SLT ISZERO PUSH2 0xC18 JUMPI PUSH1 0x0 DUP1 REVERT JUMPDEST PUSH2 0xC21 DUP3 PUSH2 0xAB7 JUMP JUMPDEST SWAP4 SWAP3 POP POP POP JUMP JUMPDEST PUSH1 0x0 DUP1 PUSH1 0x0 PUSH1 0x60 DUP5 DUP7 SUB SLT ISZERO PUSH2 0xC3D JUMPI PUSH1 0x0 DUP1 REVERT JUMPDEST POP POP DUP2 CALLDATALOAD SWAP4 PUSH1 0x20 DUP4 ADD CALLDATALOAD SWAP4 POP PUSH1 0x40 SWAP1 SWAP3 ADD CALLDATALOAD SWAP2 SWAP1 POP JUMP JUMPDEST PUSH1 0x0 DUP1 PUSH1 0x0 DUP1 PUSH1 0x80 DUP6 DUP8 SUB SLT ISZERO PUSH2 0xC6A JUMPI PUSH1 0x0 DUP1 REVERT JUMPDEST PUSH2 0xC73 DUP6 PUSH2 0xAB7 JUMP JUMPDEST SWAP4 POP PUSH2 0xC81 PUSH1 0x20 DUP7 ADD PUSH2 0xAB7 JUMP JUMPDEST SWAP4 SWAP7 SWAP4 SWAP6 POP POP POP POP PUSH1 0x40 DUP3 ADD CALLDATALOAD SWAP2 PUSH1 0x60 ADD CALLDATALOAD SWAP1 JUMP JUMPDEST PUSH1 0x0 DUP1 PUSH1 0x0 PUSH1 0x40 DUP5 DUP7 SUB SLT ISZERO PUSH2 0xCAB JUMPI PUSH1 0x0 DUP1 REVERT JUMPDEST DUP4 CALLDATALOAD SWAP3 POP PUSH1 0x20 DUP5 ADD CALLDATALOAD PUSH8 0xFFFFFFFFFFFFFFFF DUP2 GT ISZERO PUSH2 0xCC9 JUMPI PUSH1 0x0 DUP1 REVERT JUMPDEST PUSH2 0xCD5 DUP7 DUP3 DUP8 ADD PUSH2 0xB06 JUMP JUMPDEST SWAP5 SWAP8 SWAP1 SWAP7 POP SWAP4 SWAP5 POP POP POP POP JUMP JUMPDEST PUSH1 0x0 DUP1 PUSH1 0x0 DUP1 PUSH1 0x0 DUP1 PUSH1 0x0 DUP1 PUSH2 0x100 DUP10 DUP12 SUB SLT ISZERO PUSH2 0xCFF JUMPI PUSH1 0x0 DUP1 REVERT JUMPDEST PUSH2 0xD08 DUP10 PUSH2 0xAB7 JUMP JUMPDEST SWAP8 POP PUSH2 0xD16 PUSH1 0x20 DUP11 ADD PUSH2 0xAB7 JUMP JUMPDEST SWAP7 POP PUSH1 0x40 DUP10 ADD CALLDATALOAD SWAP6 POP PUSH1 0x60 DUP10 ADD CALLDATALOAD SWAP5 POP PUSH1 0x80 DUP10 ADD CALLDATALOAD SWAP4 POP PUSH1 0xA0 DUP10 ADD CALLDATALOAD SWAP3 POP PUSH2 0xD40 PUSH1 0xC0 DUP11 ADD PUSH2 0xAB7 JUMP JUMPDEST SWAP2 POP PUSH1 0xE0 DUP10 ADD CALLDATALOAD SWAP1 POP SWAP3 SWAP6 SWAP9 POP SWAP3 SWAP6 SWAP9 SWAP1 SWAP4 SWAP7 POP JUMP JUMPDEST PUSH4 0x4E487B71 PUSH1 0xE0 SHL PUSH1 0x0 MSTORE PUSH1 0x41 PUSH1 0x4 MSTORE PUSH1 0x24 PUSH1 0x0 REVERT JUMPDEST PUSH4 0x4E487B71 PUSH1 0xE0 SHL PUSH1 0x0 MSTORE PUSH1 0x32 PUSH1 0x4 MSTORE PUSH1 0x24 PUSH1 0x0 REVERT JUMPDEST PUSH4 0x4E487B71 PUSH1 0xE0 SHL PUSH1 0x0 MSTORE PUSH1 0x11 PUSH1 0x4 MSTORE PUSH1 0x24 PUSH1 0x0 REVERT JUMPDEST DUP2 DUP2 SUB DUP2 DUP2 GT ISZERO PUSH2 0xDAB JUMPI PUSH2 0xDAB PUSH2 0xD82 JUMP JUMPDEST SWAP3 SWAP2 POP POP JUMP JUMPDEST DUP1 DUP3 ADD DUP1 DUP3 GT ISZERO PUSH2 0xDAB JUMPI PUSH2 0xDAB PUSH2 0xD82 JUMP JUMPDEST DUP1 DUP3 MUL DUP2 ISZERO DUP3 DUP3 DIV DUP5 EQ OR PUSH2 0xDAB JUMPI PUSH2 0xDAB PUSH2 0xD82 JUMP JUMPDEST PUSH1 0x0 DUP3 PUSH2 0xDF8 JUMPI PUSH4 0x4E487B71 PUSH1 0xE0 SHL PUSH1 0x0 MSTORE PUSH1 0x12 PUSH1 0x4 MSTORE PUSH1 0x24 PUSH1 0x0 REVERT JUMPDEST POP DIV SWAP1 JUMP JUMPDEST PUSH1 0x0 PUSH1 0x1 DUP3 ADD PUSH2 0xE0F JUMPI PUSH2 0xE0F PUSH2 0xD82 JUMP JUMPDEST POP PUSH1 0x1 ADD SWAP1 JUMP INVALID LOG2 PUSH5 0x6970667358 0x22 SLT KECCAK256 PUSH0 SWAP7 DUP10 0xAE 0x1F PUSH11 0x9CAD6973887EB9C14E247B SWAP7 NOT MSIZE LT SWAP11 REVERT 0xC5 ADDMOD SSTORE 0xE7 0xAE 0xF9 0xB0 COINBASE OR PUSH5 0x736F6C6343 STOP ADDMOD EQ STOP CALLER "},"methodIdentifiers":{"WETH()":"ad5c4648","addLiquidity(address,address,uint256,uint256,uint256,uint256,address,uint256)":"e8e33700","getAmountsOut(uint256,address[])":"d06ca61f","priceRatios(address,address)":"0e5efd52","quote(uint256,uint256,uint256)":"ad615dec","setPriceRatio(address,address,uint256,uint256)":"c71cbb59","supportedTokens(address)":"68c4ac26","swapExactTokensForTokens(uint256,uint256,address[],address,uint256)":"38ed1739"}}}}}