{"contracts/FlashLoanArbitrage.sol":{"FlashLoanArbitrage":{"abi":[{"inputs":[{"internalType":"address","name":"_addressProvider","type":"address"},{"internalType":"address","name":"_uniswapV3Router","type":"address"},{"internalType":"address","name":"_sushiSwapRouter","type":"address"},{"internalType":"address","name":"_oneInchRouter","type":"address"},{"internalType":"address","name":"_balancerVault","type":"address"}],"stateMutability":"nonpayable","type":"constructor"},{"inputs":[],"name":"EnforcedPause","type":"error"},{"inputs":[],"name":"ExcessiveGasPrice","type":"error"},{"inputs":[],"name":"ExpectedPause","type":"error"},{"inputs":[],"name":"FlashLoanFailed","type":"error"},{"inputs":[],"name":"InsufficientProfit","type":"error"},{"inputs":[],"name":"InvalidParameters","type":"error"},{"inputs":[],"name":"MaxLossExceeded","type":"error"},{"inputs":[{"internalType":"address","name":"owner","type":"address"}],"name":"OwnableInvalidOwner","type":"error"},{"inputs":[{"internalType":"address","name":"account","type":"address"}],"name":"OwnableUnauthorizedAccount","type":"error"},{"inputs":[],"name":"ReentrancyGuardReentrantCall","type":"error"},{"inputs":[{"internalType":"address","name":"token","type":"address"}],"name":"SafeERC20FailedOperation","type":"error"},{"inputs":[],"name":"SwapFailed","type":"error"},{"inputs":[],"name":"UnauthorizedCaller","type":"error"},{"anonymous":false,"inputs":[{"indexed":true,"internalType":"address","name":"token","type":"address"},{"indexed":false,"internalType":"uint256","name":"amount","type":"uint256"},{"indexed":false,"internalType":"uint256","name":"profit","type":"uint256"},{"indexed":false,"internalType":"string[]","name":"dexPath","type":"string[]"},{"indexed":false,"internalType":"uint256","name":"gasUsed","type":"uint256"}],"name":"ArbitrageExecuted","type":"event"},{"anonymous":false,"inputs":[{"indexed":true,"internalType":"address","name":"token","type":"address"},{"indexed":false,"internalType":"uint256","name":"amount","type":"uint256"},{"indexed":false,"internalType":"string","name":"reason","type":"string"}],"name":"ArbitrageFailed","type":"event"},{"anonymous":false,"inputs":[{"indexed":true,"internalType":"address","name":"caller","type":"address"},{"indexed":false,"internalType":"bool","name":"authorized","type":"bool"}],"name":"AuthorizedCallerUpdated","type":"event"},{"anonymous":false,"inputs":[{"indexed":false,"internalType":"uint256","name":"totalLoss","type":"uint256"}],"name":"CircuitBreakerTriggered","type":"event"},{"anonymous":false,"inputs":[{"indexed":true,"internalType":"address","name":"token0","type":"address"},{"indexed":true,"internalType":"address","name":"token1","type":"address"},{"indexed":false,"internalType":"address","name":"pool","type":"address"}],"name":"CurvePoolUpdated","type":"event"},{"anonymous":false,"inputs":[{"indexed":true,"internalType":"address","name":"token","type":"address"},{"indexed":false,"internalType":"uint256","name":"amount","type":"uint256"}],"name":"MaxFlashLoanAmountUpdated","type":"event"},{"anonymous":false,"inputs":[{"indexed":true,"internalType":"address","name":"previousOwner","type":"address"},{"indexed":true,"internalType":"address","name":"newOwner","type":"address"}],"name":"OwnershipTransferStarted","type":"event"},{"anonymous":false,"inputs":[{"indexed":true,"internalType":"address","name":"previousOwner","type":"address"},{"indexed":true,"internalType":"address","name":"newOwner","type":"address"}],"name":"OwnershipTransferred","type":"event"},{"anonymous":false,"inputs":[{"indexed":false,"internalType":"address","name":"account","type":"address"}],"name":"Paused","type":"event"},{"anonymous":false,"inputs":[{"indexed":false,"internalType":"address","name":"account","type":"address"}],"name":"Unpaused","type":"event"},{"inputs":[],"name":"ADDRESSES_PROVIDER","outputs":[{"internalType":"contract IPoolAddressesProvider","name":"","type":"address"}],"stateMutability":"view","type":"function"},{"inputs":[],"name":"POOL","outputs":[{"internalType":"contract IPool","name":"","type":"address"}],"stateMutability":"view","type":"function"},{"inputs":[{"internalType":"address","name":"asset","type":"address"},{"internalType":"uint256","name":"amount","type":"uint256"},{"internalType":"bytes","name":"params","type":"bytes"}],"name":"_executeArbitrageInternal","outputs":[{"internalType":"uint256","name":"","type":"uint256"}],"stateMutability":"nonpayable","type":"function"},{"inputs":[],"name":"acceptOwnership","outputs":[],"stateMutability":"nonpayable","type":"function"},{"inputs":[{"internalType":"address","name":"","type":"address"}],"name":"authorizedCallers","outputs":[{"internalType":"bool","name":"","type":"bool"}],"stateMutability":"view","type":"function"},{"inputs":[],"name":"balancerVault","outputs":[{"internalType":"contract IBalancerVault","name":"","type":"address"}],"stateMutability":"view","type":"function"},{"inputs":[],"name":"currentDayLoss","outputs":[{"internalType":"uint256","name":"","type":"uint256"}],"stateMutability":"view","type":"function"},{"inputs":[{"internalType":"address","name":"","type":"address"},{"internalType":"address","name":"","type":"address"}],"name":"curvePools","outputs":[{"internalType":"address","name":"","type":"address"}],"stateMutability":"view","type":"function"},{"inputs":[{"internalType":"address","name":"token","type":"address"}],"name":"emergencyWithdraw","outputs":[],"stateMutability":"nonpayable","type":"function"},{"inputs":[{"internalType":"address","name":"asset","type":"address"},{"internalType":"uint256","name":"amount","type":"uint256"},{"internalType":"bytes","name":"params","type":"bytes"}],"name":"executeArbitrage","outputs":[],"stateMutability":"nonpayable","type":"function"},{"inputs":[{"internalType":"address","name":"asset","type":"address"},{"internalType":"uint256","name":"amount","type":"uint256"},{"internalType":"uint256","name":"premium","type":"uint256"},{"internalType":"address","name":"initiator","type":"address"},{"internalType":"bytes","name":"params","type":"bytes"}],"name":"executeOperation","outputs":[{"internalType":"bool","name":"","type":"bool"}],"stateMutability":"nonpayable","type":"function"},{"inputs":[],"name":"getStatistics","outputs":[{"internalType":"uint256","name":"totalCount","type":"uint256"},{"internalType":"uint256","name":"successCount","type":"uint256"},{"internalType":"uint256","name":"dailyLoss","type":"uint256"},{"internalType":"bool","name":"isPaused","type":"bool"}],"stateMutability":"view","type":"function"},{"inputs":[{"internalType":"address","name":"caller","type":"address"}],"name":"isAuthorized","outputs":[{"internalType":"bool","name":"","type":"bool"}],"stateMutability":"view","type":"function"},{"inputs":[],"name":"lastResetTimestamp","outputs":[{"internalType":"uint256","name":"","type":"uint256"}],"stateMutability":"view","type":"function"},{"inputs":[],"name":"maxDailyLoss","outputs":[{"internalType":"uint256","name":"","type":"uint256"}],"stateMutability":"view","type":"function"},{"inputs":[{"internalType":"address","name":"","type":"address"}],"name":"maxFlashLoanAmount","outputs":[{"internalType":"uint256","name":"","type":"uint256"}],"stateMutability":"view","type":"function"},{"inputs":[],"name":"maxGasPrice","outputs":[{"internalType":"uint256","name":"","type":"uint256"}],"stateMutability":"view","type":"function"},{"inputs":[],"name":"oneInchRouter","outputs":[{"internalType":"contract IOneInchRouter","name":"","type":"address"}],"stateMutability":"view","type":"function"},{"inputs":[],"name":"owner","outputs":[{"internalType":"address","name":"","type":"address"}],"stateMutability":"view","type":"function"},{"inputs":[],"name":"pause","outputs":[],"stateMutability":"nonpayable","type":"function"},{"inputs":[],"name":"paused","outputs":[{"internalType":"bool","name":"","type":"bool"}],"stateMutability":"view","type":"function"},{"inputs":[],"name":"pendingOwner","outputs":[{"internalType":"address","name":"","type":"address"}],"stateMutability":"view","type":"function"},{"inputs":[],"name":"renounceOwnership","outputs":[],"stateMutability":"nonpayable","type":"function"},{"inputs":[{"internalType":"address","name":"caller","type":"address"},{"internalType":"bool","name":"authorized","type":"bool"}],"name":"setAuthorizedCaller","outputs":[],"stateMutability":"nonpayable","type":"function"},{"inputs":[{"internalType":"address","name":"token0","type":"address"},{"internalType":"address","name":"token1","type":"address"},{"internalType":"address","name":"pool","type":"address"}],"name":"setCurvePool","outputs":[],"stateMutability":"nonpayable","type":"function"},{"inputs":[{"internalType":"uint256","name":"_maxDailyLoss","type":"uint256"}],"name":"setMaxDailyLoss","outputs":[],"stateMutability":"nonpayable","type":"function"},{"inputs":[{"internalType":"address","name":"token","type":"address"},{"internalType":"uint256","name":"amount","type":"uint256"}],"name":"setMaxFlashLoanAmount","outputs":[],"stateMutability":"nonpayable","type":"function"},{"inputs":[{"internalType":"uint256","name":"_maxGasPrice","type":"uint256"}],"name":"setMaxGasPrice","outputs":[],"stateMutability":"nonpayable","type":"function"},{"inputs":[],"name":"successfulArbitrageCount","outputs":[{"internalType":"uint256","name":"","type":"uint256"}],"stateMutability":"view","type":"function"},{"inputs":[],"name":"sushiSwapRouter","outputs":[{"internalType":"contract ISushiSwapRouter","name":"","type":"address"}],"stateMutability":"view","type":"function"},{"inputs":[],"name":"totalArbitrageCount","outputs":[{"internalType":"uint256","name":"","type":"uint256"}],"stateMutability":"view","type":"function"},{"inputs":[{"internalType":"address","name":"","type":"address"}],"name":"totalProfitByToken","outputs":[{"internalType":"uint256","name":"","type":"uint256"}],"stateMutability":"view","type":"function"},{"inputs":[{"internalType":"address","name":"newOwner","type":"address"}],"name":"transferOwnership","outputs":[],"stateMutability":"nonpayable","type":"function"},{"inputs":[],"name":"uniswapV3Router","outputs":[{"internalType":"contract IUniswapV3Router","name":"","type":"address"}],"stateMutability":"view","type":"function"},{"inputs":[],"name":"unpause","outputs":[],"stateMutability":"nonpayable","type":"function"},{"inputs":[{"internalType":"address","name":"token","type":"address"},{"internalType":"uint256","name":"amount","type":"uint256"}],"name":"withdrawProfits","outputs":[],"stateMutability":"nonpayable","type":"function"},{"stateMutability":"payable","type":"receive"}],"evm":{"bytecode":{"linkReferences":{},"object":"6101406040526422ecb25c00600755670de0b6b3a7640000600b553480156200002757600080fd5b5060405162002ed338038062002ed38339810160408190526200004a91620001e7565b3385806001600160a01b03166080816001600160a01b031681525050806001600160a01b031663026b1d5f6040518163ffffffff1660e01b8152600401602060405180830381865afa158015620000a5573d6000803e3d6000fd5b505050506040513d601f19601f82011682018060405250810190620000cb919062000257565b6001600160a01b0390811660a052821690506200010257604051631e4fbdf760e01b81526000600482015260240160405180910390fd5b6200010d816200015c565b50600160028190556001600160a01b0394851660c05292841660e052908316610100529091166101205242600d55336000908152600560205260409020805460ff19169091179055506200027c565b600180546001600160a01b031916905562000177816200017a565b50565b600080546001600160a01b038381166001600160a01b0319831681178455604051919092169283917f8be0079c531659141344cd1fd0a4f28419497f9722a3daafe3b4186f6b6457e09190a35050565b80516001600160a01b0381168114620001e257600080fd5b919050565b600080600080600060a086880312156200020057600080fd5b6200020b86620001ca565b94506200021b60208701620001ca565b93506200022b60408701620001ca565b92506200023b60608701620001ca565b91506200024b60808701620001ca565b90509295509295909350565b6000602082840312156200026a57600080fd5b6200027582620001ca565b9392505050565b60805160a05160c05160e0516101005161012051612bba620003196000396000818161028201528181611b730152611c25015260008181610615015281816119d70152611a790152600081816107000152818161170e01526117c40152600081816103080152818161150e01526115b70152600081816104ed0152818161077801528181610b3001526110c8015260006102310152612bba6000f3fe6080604052600436106102135760003560e01c806379ba509711610118578063ac3af208116100a0578063e30c39781161006f578063e30c39781461069a578063e401797f146106b8578063f2fde38b146106ce578063fd829a23146106ee578063fe9fbb801461072257600080fd5b8063ac3af20814610603578063b343a0df14610637578063d2fa635e1461064d578063e2785e9c1461066d57600080fd5b8063958e80e1116100e7578063958e80e1146105775780639ea8741c1461058d578063a44b3638146105a3578063aafc9651146105c3578063ab63bdb5146105e357600080fd5b806379ba50971461050f5780637c1d9539146105245780638456cb59146105445780638da5cb5b1461055957600080fd5b8063454bbd291161019b57806354b543881161016a57806354b54388146104785780635c975abb1461048e5780636ff1c9bc146104a6578063715018a6146104c65780637535d246146104db57600080fd5b8063454bbd29146103c75780634bcdac0d146103e75780634d54021c14610428578063536fff6c1461044857600080fd5b80632c76d7a6116101e25780632c76d7a6146102f6578063372d6b271461032a5780633c988eb3146103615780633de39c111461039c5780633f4ba83a146103b257600080fd5b80630542975c1461021f578063158274a5146102705780631b11d0ff146102a45780631e673d3d146102d457600080fd5b3661021a57005b600080fd5b34801561022b57600080fd5b506102537f000000000000000000000000000000000000000000000000000000000000000081565b6040516001600160a01b0390911681526020015b60405180910390f35b34801561027c57600080fd5b506102537f000000000000000000000000000000000000000000000000000000000000000081565b3480156102b057600080fd5b506102c46102bf366004611ee2565b610742565b6040519015158152602001610267565b3480156102e057600080fd5b506102f46102ef366004611f5e565b610bc4565b005b34801561030257600080fd5b506102537f000000000000000000000000000000000000000000000000000000000000000081565b34801561033657600080fd5b5061033f610c5a565b6040805194855260208501939093529183015215156060820152608001610267565b34801561036d57600080fd5b5061038e61037c366004611fa9565b60066020526000908152604090205481565b604051908152602001610267565b3480156103a857600080fd5b5061038e60075481565b3480156103be57600080fd5b506102f4610c83565b3480156103d357600080fd5b506102f46103e2366004611fcd565b610c95565b3480156103f357600080fd5b5061025361040236600461200b565b60046020908152600092835260408084209091529082529020546001600160a01b031681565b34801561043457600080fd5b5061038e610443366004612039565b610cfd565b34801561045457600080fd5b506102c4610463366004611fa9565b60056020526000908152604090205460ff1681565b34801561048457600080fd5b5061038e600a5481565b34801561049a57600080fd5b5060035460ff166102c4565b3480156104b257600080fd5b506102f46104c1366004611fa9565b610e79565b3480156104d257600080fd5b506102f4610f1e565b3480156104e757600080fd5b506102537f000000000000000000000000000000000000000000000000000000000000000081565b34801561051b57600080fd5b506102f4610f30565b34801561053057600080fd5b506102f461053f366004612039565b610f79565b34801561055057600080fd5b506102f4611140565b34801561056557600080fd5b506000546001600160a01b0316610253565b34801561058357600080fd5b5061038e600c5481565b34801561059957600080fd5b5061038e600b5481565b3480156105af57600080fd5b506102f46105be366004612095565b611150565b3480156105cf57600080fd5b506102f46105de3660046120ae565b61115d565b3480156105ef57600080fd5b506102f46105fe3660046120ae565b61121e565b34801561060f57600080fd5b506102537f000000000000000000000000000000000000000000000000000000000000000081565b34801561064357600080fd5b5061038e600d5481565b34801561065957600080fd5b506102f4610668366004612095565b611273565b34801561067957600080fd5b5061038e610688366004611fa9565b60086020526000908152604090205481565b3480156106a657600080fd5b506001546001600160a01b0316610253565b3480156106c457600080fd5b5061038e60095481565b3480156106da57600080fd5b506102f46106e9366004611fa9565b611280565b3480156106fa57600080fd5b506102537f000000000000000000000000000000000000000000000000000000000000000081565b34801561072e57600080fd5b506102c461073d366004611fa9565b6112f1565b60006001600160a01b038416301461076d576040516349088f5960e11b815260040160405180910390fd5b336001600160a01b037f000000000000000000000000000000000000000000000000000000000000000016146107b657604051635c427cd960e01b815260040160405180910390fd5b6040516370a0823160e01b81523060048201526000906001600160a01b038916906370a0823190602401602060405180830381865afa1580156107fd573d6000803e3d6000fd5b505050506040513d601f19601f8201168201806040525081019061082191906120da565b604051631355008760e21b81529091503090634d54021c9061084d908b908b908990899060040161211c565b6020604051808303816000875af1925050508015610888575060408051601f3d908101601f19168201909252610885918101906120da565b60015b61094d57610894612144565b806308c379a0036108fd57506108a86121a3565b806108b357506108ff565b886001600160a01b0316600080516020612b6583398151915289836040516108dc92919061227d565b60405180910390a260405163081ceff360e41b815260040160405180910390fd5b505b876001600160a01b0316600080516020612b65833981519152886040516108dc918152604060208201819052600d908201526c2ab735b737bbb71032b93937b960991b606082015260800190565b6000610959888a6122b4565b905080821015610a4e57600061096f83836122c7565b905080600c600082825461098391906122b4565b9091555050600b54600c5411156109d85761099c61132b565b7fb93e15598c0191b5e8ad4033b4bfb998a7c8ba85d6b77f9dce086455bd2e8e22600c546040516109cf91815260200190565b60405180910390a15b8a6001600160a01b0316600080516020612b658339815191528b604051610a2d91815260406020820181905260149082015273496e73756666696369656e742072657475726e7360601b606082015260800190565b60405180910390a2604051632723fc7560e11b815260040160405180910390fd5b6000610a5a82846122c7565b90506000612710610a6c601e8d6122da565b610a7691906122f1565b905080821015610ade578b6001600160a01b0316600080516020612b658339815191528c604051610a2d918152604060208201819052601e908201527f42656c6f77206d696e696d756d2070726f666974207468726573686f6c640000606082015260800190565b6001600160a01b038c1660009081526008602052604081208054849290610b069084906122b4565b9091555050600a8054906000610b1b83612313565b90915550610b5590506001600160a01b038d167f000000000000000000000000000000000000000000000000000000000000000085611385565b6000610b63888a018a61254a565b50505090508c6001600160a01b03167fdec2cc5245d3af0f32f4a5967e8ee0301ab099b021e28c19ca1349f2c55959958d85848a604051610ba79493929190612687565b60405180910390a2600196505050505050505b9695505050505050565b610bcc611449565b6001600160a01b03838116600081815260046020818152604080842088871680865290835281852080549789166001600160a01b0319988916811790915593835281852086865283529381902080549096168317909555935190815290927f6b3efaa5c37ac07b67043f5d784b7c7134975eed33a064ef74b31746f5635b0b910160405180910390a3505050565b600080600080600954600a54600c54610c7560035460ff1690565b935093509350935090919293565b610c8b611449565b610c93611476565b565b610c9d611449565b6001600160a01b038216600081815260056020908152604091829020805460ff191685151590811790915591519182527fad857fa38c9319cb80848f1ef2f924383b90297eb5d71755738ff037d100faa191015b60405180910390a25050565b6000333014610d1f57604051635c427cd960e01b815260040160405180910390fd5b6000808080610d308688018861254a565b9350935093509350835160001480610d4a57508051845114155b15610d6857604051630e52390960e41b815260040160405180910390fd5b878960005b8651811015610e38576000858281518110610d8a57610d8a612700565b602002602001015190506000878381518110610da857610da8612700565b60200260200101519050600061271061012c612710610dc791906122c7565b610dd190846122da565b610ddb91906122f1565b9050610e1d8a8581518110610df257610df2612700565b6020026020010151868589858c8a81518110610e1057610e10612700565b60200260200101516114af565b95508294505050508080610e3090612313565b915050610d6d565b508a6001600160a01b0316816001600160a01b031614610e6b57604051630e52390960e41b815260040160405180910390fd5b509998505050505050505050565b610e81611449565b6040516370a0823160e01b81523060048201526000906001600160a01b038316906370a0823190602401602060405180830381865afa158015610ec8573d6000803e3d6000fd5b505050506040513d601f19601f82011682018060405250810190610eec91906120da565b90508015610f1a57610f1a610f096000546001600160a01b031690565b6001600160a01b0384169083611ce8565b5050565b610f26611449565b610c936000611d19565b60015433906001600160a01b03168114610f6d5760405163118cdaa760e01b81526001600160a01b03821660048201526024015b60405180910390fd5b610f7681611d19565b50565b3360009081526005602052604090205460ff16158015610fa457506000546001600160a01b03163314155b15610fc257604051635c427cd960e01b815260040160405180910390fd5b6007543a1115610fe557604051634755ff1960e01b815260040160405180910390fd5b610fed611d32565b600d54610ffd90620151806122b4565b42111561100e576000600c5542600d555b6001600160a01b0384161580611022575082155b1561104057604051630e52390960e41b815260040160405180910390fd5b6001600160a01b0384166000908152600660205260409020541580159061107e57506001600160a01b03841660009081526006602052604090205483115b1561109c57604051630e52390960e41b815260040160405180910390fd5b600980549060006110ac83612313565b90915550506040516310ac2ddf60e21b81526001600160a01b037f000000000000000000000000000000000000000000000000000000000000000016906342b0b77c906111089030908890889088908890600090600401612716565b600060405180830381600087803b15801561112257600080fd5b505af1158015611136573d6000803e3d6000fd5b5050505050505050565b611148611449565b610c9361132b565b611158611449565b600b55565b611165611449565b6040516370a0823160e01b81523060048201526000906001600160a01b038416906370a0823190602401602060405180830381865afa1580156111ac573d6000803e3d6000fd5b505050506040513d601f19601f820116820180604052508101906111d091906120da565b9050808211156111f357604051630e52390960e41b815260040160405180910390fd5b6112196112086000546001600160a01b031690565b6001600160a01b0385169084611ce8565b505050565b611226611449565b6001600160a01b03821660008181526006602052604090819020839055517fe88deb8818ab3c3cf7acd473d7e1d5260c0a931daa19a6eaa067c6e22cc7e2fb90610cf19084815260200190565b61127b611449565b600755565b611288611449565b600180546001600160a01b0383166001600160a01b031990911681179091556112b96000546001600160a01b031690565b6001600160a01b03167f38d16b8cac22d99fc7c124b9cd0de2d3fa1faef420bfe791d8c362d765e2270060405160405180910390a350565b6001600160a01b03811660009081526005602052604081205460ff168061132557506000546001600160a01b038381169116145b92915050565b611333611d32565b6003805460ff191660011790557f62e78cea01bee320cd4e420270b5ea74000d11b0c9f74754ebdbfc544b05a2586113683390565b6040516001600160a01b03909116815260200160405180910390a1565b604080516001600160a01b038416602482015260448082018490528251808303909101815260649091019091526020810180516001600160e01b031663095ea7b360e01b1790526113d68482611d56565b611443576040516001600160a01b0384811660248301526000604483015261143991869182169063095ea7b3906064015b604051602081830303815290604052915060e01b6020820180516001600160e01b038381831617835250505050611da0565b6114438482611da0565b50505050565b6000546001600160a01b03163314610c935760405163118cdaa760e01b8152336004820152602401610f64565b61147e611e11565b6003805460ff191690557f5db9ee0a495bf2e6ff9c91a7834c1ba4fdd244a5e8aa4e537bd38aeae4b073aa33611368565b604080518082019091526009815268556e6973776170563360b81b6020918201528651908701206000907f55bbc5b76385ab5ce5da1b40da3183baf1ebe0027a4440c291328a6fcf83bae7016116b2576115336001600160a01b0387167f000000000000000000000000000000000000000000000000000000000000000086611385565b6000808380602001905181019061154a9190612761565b9150915060006040518061010001604052808a6001600160a01b03168152602001896001600160a01b031681526020018462ffffff168152602001306001600160a01b03168152602001428152602001888152602001878152602001836001600160a01b031681525090507f00000000000000000000000000000000000000000000000000000000000000006001600160a01b031663414bf389826040518263ffffffff1660e01b8152600401611665919081516001600160a01b03908116825260208084015182169083015260408084015162ffffff16908301526060808401518216908301526080808401519083015260a0838101519083015260c0808401519083015260e09283015116918101919091526101000190565b6020604051808303816000875af1158015611684573d6000803e3d6000fd5b505050506040513d601f19601f820116820180604052508101906116a891906120da565b9350505050611cc7565b60408051808201909152600981526805375736869537761760bc1b6020918201528751908801207f9fd79529140912d426f996f8fd17d8c0a099cdcaf4ca5aa0192bebad6312b3840161187a576117336001600160a01b0387167f000000000000000000000000000000000000000000000000000000000000000086611385565b604080516002808252606082018352600092602083019080368337019050509050868160008151811061176857611768612700565b60200260200101906001600160a01b031690816001600160a01b031681525050858160018151811061179c5761179c612700565b6001600160a01b0392831660209182029290920101526040516338ed173960e01b81526000917f000000000000000000000000000000000000000000000000000000000000000016906338ed1739906118019089908990879030904290600401612798565b6000604051808303816000875af1158015611820573d6000803e3d6000fd5b505050506040513d6000823e601f3d908101601f191682016040526118489190810190612809565b9050806001825161185991906122c7565b8151811061186957611869612700565b602002602001015192505050611cc7565b604080518082019091526005815264437572766560d81b6020918201528751908801207fb41fbc53f8d9d9a3e2554b031e110cde08304beb0d6aef8f1c8ae28628b05f1d0161197f576001600160a01b0380871660009081526004602090815260408083208985168452909152902054168061190957604051630e52390960e41b815260040160405180910390fd5b61191d6001600160a01b0388168287611385565b6000808480602001905181019061193491906128bc565b604051630f7c084960e21b8152600f83810b600483015282900b6024820152604481018a90526064810189905291935091506001600160a01b03841690633df0212490608401611665565b604080518082019091526005815264062d2dcc6d60db1b6020918201528751908801207f2640f3f13fdf2e5d94599675db24c5ac7dea27040cfa774222196b7783b34aa201611b18576119fc6001600160a01b0387167f000000000000000000000000000000000000000000000000000000000000000086611385565b600080600084806020019051810190611a159190612947565b92509250925060006040518060e001604052808b6001600160a01b031681526020018a6001600160a01b03168152602001856001600160a01b03168152602001306001600160a01b03168152602001898152602001888152602001600081525090507f00000000000000000000000000000000000000000000000000000000000000006001600160a01b03166312aa3caf858386866040518563ffffffff1660e01b8152600401611ac994939291906129be565b60408051808303816000875af1158015611ae7573d6000803e3d6000fd5b505050506040513d601f19601f82011682018060405250810190611b0b9190612a43565b509450611cc79350505050565b6040805180820190915260088152672130b630b731b2b960c11b6020918201528751908801207ff7f53f66846af2ad3f241c2f641949f42bf8ca68233eee9dc73521512229d6c101611cae57611b986001600160a01b0387167f000000000000000000000000000000000000000000000000000000000000000086611385565b60008083806020019051810190611baf9190612a67565b6040805160c081018252838152600060208083018290526001600160a01b03808f16848601528d811660608086019190915260808086018f905260a0860188905286519081018752308082529381018590528087019390935282019290925292516352bbbe2960e01b81529496509294509290917f000000000000000000000000000000000000000000000000000000000000000016906352bbbe2990611c6090859085908c904290600401612aae565b6020604051808303816000875af1158015611c7f573d6000803e3d6000fd5b505050506040513d601f19601f82011682018060405250810190611ca391906120da565b945050505050611cc7565b604051630e52390960e41b815260040160405180910390fd5b82811015610bba57604051632723fc7560e11b815260040160405180910390fd5b6040516001600160a01b0383811660248301526044820183905261121991859182169063a9059cbb90606401611407565b600180546001600160a01b0319169055610f7681611e34565b60035460ff1615610c935760405163d93c066560e01b815260040160405180910390fd5b6000806000806020600086516020880160008a5af192503d91506000519050828015610bba57508115611d8c5780600114610bba565b50505050506001600160a01b03163b151590565b600080602060008451602086016000885af180611dc3576040513d6000823e3d81fd5b50506000513d91508115611ddb578060011415611de8565b6001600160a01b0384163b155b1561144357604051635274afe760e01b81526001600160a01b0385166004820152602401610f64565b60035460ff16610c9357604051638dfc202b60e01b815260040160405180910390fd5b600080546001600160a01b038381166001600160a01b0319831681178455604051919092169283917f8be0079c531659141344cd1fd0a4f28419497f9722a3daafe3b4186f6b6457e09190a35050565b6001600160a01b0381168114610f7657600080fd5b60008083601f840112611eab57600080fd5b50813567ffffffffffffffff811115611ec357600080fd5b602083019150836020828501011115611edb57600080fd5b9250929050565b60008060008060008060a08789031215611efb57600080fd5b8635611f0681611e84565b955060208701359450604087013593506060870135611f2481611e84565b9250608087013567ffffffffffffffff811115611f4057600080fd5b611f4c89828a01611e99565b979a9699509497509295939492505050565b600080600060608486031215611f7357600080fd5b8335611f7e81611e84565b92506020840135611f8e81611e84565b91506040840135611f9e81611e84565b809150509250925092565b600060208284031215611fbb57600080fd5b8135611fc681611e84565b9392505050565b60008060408385031215611fe057600080fd5b8235611feb81611e84565b91506020830135801515811461200057600080fd5b809150509250929050565b6000806040838503121561201e57600080fd5b823561202981611e84565b9150602083013561200081611e84565b6000806000806060858703121561204f57600080fd5b843561205a81611e84565b935060208501359250604085013567ffffffffffffffff81111561207d57600080fd5b61208987828801611e99565b95989497509550505050565b6000602082840312156120a757600080fd5b5035919050565b600080604083850312156120c157600080fd5b82356120cc81611e84565b946020939093013593505050565b6000602082840312156120ec57600080fd5b5051919050565b81835281816020850137506000828201602090810191909152601f909101601f19169091010190565b60018060a01b0385168152836020820152606060408201526000610bba6060830184866120f3565b600060033d111561215d5760046000803e5060005160e01c5b90565b634e487b7160e01b600052604160045260246000fd5b601f8201601f1916810167ffffffffffffffff8111828210171561219c5761219c612160565b6040525050565b600060443d10156121b15790565b6040516003193d81016004833e81513d67ffffffffffffffff81602484011181841117156121e157505050505090565b82850191508151818111156121f95750505050505090565b843d87010160208285010111156122135750505050505090565b61222260208286010187612176565b509095945050505050565b60005b83811015612248578181015183820152602001612230565b50506000910152565b6000815180845261226981602086016020860161222d565b601f01601f19169290920160200192915050565b8281526040602082015260006122966040830184612251565b949350505050565b634e487b7160e01b600052601160045260246000fd5b808201808211156113255761132561229e565b818103818111156113255761132561229e565b80820281158282048414176113255761132561229e565b60008261230e57634e487b7160e01b600052601260045260246000fd5b500490565b6000600182016123255761232561229e565b5060010190565b600067ffffffffffffffff82111561234657612346612160565b5060051b60200190565b600067ffffffffffffffff82111561236a5761236a612160565b50601f01601f191660200190565b600061238383612350565b6040516123908282612176565b8092508481528585850111156123a557600080fd5b8484602083013760006020868301015250509392505050565b600082601f8301126123cf57600080fd5b813560206123dc8261232c565b6040516123e98282612176565b83815260059390931b850182019282810191508684111561240957600080fd5b8286015b84811015612424578035835291830191830161240d565b509695505050505050565b600082601f83011261244057600080fd5b8135602061244d8261232c565b60405161245a8282612176565b83815260059390931b850182019282810191508684111561247a57600080fd5b8286015b8481101561242457803561249181611e84565b835291830191830161247e565b600082601f8301126124af57600080fd5b813560206124bc8261232c565b604080516124ca8382612176565b84815260059490941b86018301938381019250878511156124ea57600080fd5b8387015b8581101561253e57803567ffffffffffffffff81111561250e5760008081fd5b8801603f81018a136125205760008081fd5b6125308a87830135868401612378565b8552509284019284016124ee565b50979650505050505050565b6000806000806080858703121561256057600080fd5b843567ffffffffffffffff8082111561257857600080fd5b818701915087601f83011261258c57600080fd5b813560206125998261232c565b604080516125a78382612176565b84815260059490941b860183019383810192508c8511156125c757600080fd5b8387015b85811015612613578035878111156125e35760008081fd5b8801603f81018f136125f55760008081fd5b6126058f87830135868401612378565b8552509284019284016125cb565b5099508a83013595508486111561262957600080fd5b6126358c878d016123be565b98508a013594505050508082111561264c57600080fd5b6126588883890161242f565b9350606087013591508082111561266e57600080fd5b5061267b8782880161249e565b91505092959194509250565b600060808201868352602086818501526080604085015281865180845260a08601915060a08160051b870101935082880160005b828110156126e957609f198887030184526126d7868351612251565b955092840192908401906001016126bb565b505050505060609290920192909252949350505050565b634e487b7160e01b600052603260045260246000fd5b6001600160a01b038781168252861660208201526040810185905260a06060820181905260009061274a90830185876120f3565b905061ffff83166080830152979650505050505050565b6000806040838503121561277457600080fd5b825162ffffff8116811461278757600080fd5b602084015190925061200081611e84565b600060a082018783526020878185015260a0604085015281875180845260c086019150828901935060005b818110156127e85784516001600160a01b0316835293830193918301916001016127c3565b50506001600160a01b03969096166060850152505050608001529392505050565b6000602080838503121561281c57600080fd5b825167ffffffffffffffff81111561283357600080fd5b8301601f8101851361284457600080fd5b805161284f8161232c565b60405161285c8282612176565b82815260059290921b830184019184810191508783111561287c57600080fd5b928401925b8284101561289a57835182529284019290840190612881565b979650505050505050565b8051600f81900b81146128b757600080fd5b919050565b600080604083850312156128cf57600080fd5b6128d8836128a5565b91506128e6602084016128a5565b90509250929050565b600082601f83011261290057600080fd5b815161290b81612350565b6040516129188282612176565b82815285602084870101111561292d57600080fd5b61293e83602083016020880161222d565b95945050505050565b60008060006060848603121561295c57600080fd5b835161296781611e84565b602085015190935067ffffffffffffffff8082111561298557600080fd5b612991878388016128ef565b935060408601519150808211156129a757600080fd5b506129b4868287016128ef565b9150509250925092565b600061014060018060a01b03808816845280875116602085015280602088015116604085015280604088015116606085015280606088015116608085015250608086015160a084015260a086015160c084015260c086015160e084015280610100840152612a2e81840186612251565b905082810361012084015261289a8185612251565b60008060408385031215612a5657600080fd5b505080516020909101519092909150565b60008060408385031215612a7a57600080fd5b82519150602083015167ffffffffffffffff811115612a9857600080fd5b612aa4858286016128ef565b9150509250929050565b60e0808252855190820152602085015160ff1661010082015260408501516001600160a01b03908116610120830152606086015116610140820152608085015161016082015260a085015160c0610180830152600090612b126101a0840182612251565b915050612b52602083018680516001600160a01b039081168352602080830151151590840152604080830151909116908301526060908101511515910152565b60a082019390935260c001529291505056fe0e192ba196a0e3aed10f33e5881150a855fdcce8919368f474c59d3741573a72a2646970667358221220510f62336227201e8418a7b979f62caa8b17469c9de791d981b2ba5980fc9af364736f6c63430008140033","opcodes":"PUSH2 0x140 PUSH1 0x40 MSTORE PUSH5 0x22ECB25C00 PUSH1 0x7 SSTORE PUSH8 0xDE0B6B3A7640000 PUSH1 0xB SSTORE CALLVALUE DUP1 ISZERO PUSH3 0x27 JUMPI PUSH1 0x0 DUP1 REVERT JUMPDEST POP PUSH1 0x40 MLOAD PUSH3 0x2ED3 CODESIZE SUB DUP1 PUSH3 0x2ED3 DUP4 CODECOPY DUP2 ADD PUSH1 0x40 DUP2 SWAP1 MSTORE PUSH3 0x4A SWAP2 PUSH3 0x1E7 JUMP JUMPDEST CALLER DUP6 DUP1 PUSH1 0x1 PUSH1 0x1 PUSH1 0xA0 SHL SUB AND PUSH1 0x80 DUP2 PUSH1 0x1 PUSH1 0x1 PUSH1 0xA0 SHL SUB AND DUP2 MSTORE POP POP DUP1 PUSH1 0x1 PUSH1 0x1 PUSH1 0xA0 SHL SUB AND PUSH4 0x26B1D5F PUSH1 0x40 MLOAD DUP2 PUSH4 0xFFFFFFFF AND PUSH1 0xE0 SHL DUP2 MSTORE PUSH1 0x4 ADD PUSH1 0x20 PUSH1 0x40 MLOAD DUP1 DUP4 SUB DUP2 DUP7 GAS STATICCALL ISZERO DUP1 ISZERO PUSH3 0xA5 JUMPI RETURNDATASIZE PUSH1 0x0 DUP1 RETURNDATACOPY RETURNDATASIZE PUSH1 0x0 REVERT JUMPDEST POP POP POP POP PUSH1 0x40 MLOAD RETURNDATASIZE PUSH1 0x1F NOT PUSH1 0x1F DUP3 ADD AND DUP3 ADD DUP1 PUSH1 0x40 MSTORE POP DUP2 ADD SWAP1 PUSH3 0xCB SWAP2 SWAP1 PUSH3 0x257 JUMP JUMPDEST PUSH1 0x1 PUSH1 0x1 PUSH1 0xA0 SHL SUB SWAP1 DUP2 AND PUSH1 0xA0 MSTORE DUP3 AND SWAP1 POP PUSH3 0x102 JUMPI PUSH1 0x40 MLOAD PUSH4 0x1E4FBDF7 PUSH1 0xE0 SHL DUP2 MSTORE PUSH1 0x0 PUSH1 0x4 DUP3 ADD MSTORE PUSH1 0x24 ADD PUSH1 0x40 MLOAD DUP1 SWAP2 SUB SWAP1 REVERT JUMPDEST PUSH3 0x10D DUP2 PUSH3 0x15C JUMP JUMPDEST POP PUSH1 0x1 PUSH1 0x2 DUP2 SWAP1 SSTORE PUSH1 0x1 PUSH1 0x1 PUSH1 0xA0 SHL SUB SWAP5 DUP6 AND PUSH1 0xC0 MSTORE SWAP3 DUP5 AND PUSH1 0xE0 MSTORE SWAP1 DUP4 AND PUSH2 0x100 MSTORE SWAP1 SWAP2 AND PUSH2 0x120 MSTORE TIMESTAMP PUSH1 0xD SSTORE CALLER PUSH1 0x0 SWAP1 DUP2 MSTORE PUSH1 0x5 PUSH1 0x20 MSTORE PUSH1 0x40 SWAP1 KECCAK256 DUP1 SLOAD PUSH1 0xFF NOT AND SWAP1 SWAP2 OR SWAP1 SSTORE POP PUSH3 0x27C JUMP JUMPDEST PUSH1 0x1 DUP1 SLOAD PUSH1 0x1 PUSH1 0x1 PUSH1 0xA0 SHL SUB NOT AND SWAP1 SSTORE PUSH3 0x177 DUP2 PUSH3 0x17A JUMP JUMPDEST POP JUMP JUMPDEST PUSH1 0x0 DUP1 SLOAD PUSH1 0x1 PUSH1 0x1 PUSH1 0xA0 SHL SUB DUP4 DUP2 AND PUSH1 0x1 PUSH1 0x1 PUSH1 0xA0 SHL SUB NOT DUP4 AND DUP2 OR DUP5 SSTORE PUSH1 0x40 MLOAD SWAP2 SWAP1 SWAP3 AND SWAP3 DUP4 SWAP2 PUSH32 0x8BE0079C531659141344CD1FD0A4F28419497F9722A3DAAFE3B4186F6B6457E0 SWAP2 SWAP1 LOG3 POP POP JUMP JUMPDEST DUP1 MLOAD PUSH1 0x1 PUSH1 0x1 PUSH1 0xA0 SHL SUB DUP2 AND DUP2 EQ PUSH3 0x1E2 JUMPI PUSH1 0x0 DUP1 REVERT JUMPDEST SWAP2 SWAP1 POP JUMP JUMPDEST PUSH1 0x0 DUP1 PUSH1 0x0 DUP1 PUSH1 0x0 PUSH1 0xA0 DUP7 DUP9 SUB SLT ISZERO PUSH3 0x200 JUMPI PUSH1 0x0 DUP1 REVERT JUMPDEST PUSH3 0x20B DUP7 PUSH3 0x1CA JUMP JUMPDEST SWAP5 POP PUSH3 0x21B PUSH1 0x20 DUP8 ADD PUSH3 0x1CA JUMP JUMPDEST SWAP4 POP PUSH3 0x22B PUSH1 0x40 DUP8 ADD PUSH3 0x1CA JUMP JUMPDEST SWAP3 POP PUSH3 0x23B PUSH1 0x60 DUP8 ADD PUSH3 0x1CA JUMP JUMPDEST SWAP2 POP PUSH3 0x24B PUSH1 0x80 DUP8 ADD PUSH3 0x1CA JUMP JUMPDEST SWAP1 POP SWAP3 SWAP6 POP SWAP3 SWAP6 SWAP1 SWAP4 POP JUMP JUMPDEST PUSH1 0x0 PUSH1 0x20 DUP3 DUP5 SUB SLT ISZERO PUSH3 0x26A JUMPI PUSH1 0x0 DUP1 REVERT JUMPDEST PUSH3 0x275 DUP3 PUSH3 0x1CA JUMP JUMPDEST SWAP4 SWAP3 POP POP POP JUMP JUMPDEST PUSH1 0x80 MLOAD PUSH1 0xA0 MLOAD PUSH1 0xC0 MLOAD PUSH1 0xE0 MLOAD PUSH2 0x100 MLOAD PUSH2 0x120 MLOAD PUSH2 0x2BBA PUSH3 0x319 PUSH1 0x0 CODECOPY PUSH1 0x0 DUP2 DUP2 PUSH2 0x282 ADD MSTORE DUP2 DUP2 PUSH2 0x1B73 ADD MSTORE PUSH2 0x1C25 ADD MSTORE PUSH1 0x0 DUP2 DUP2 PUSH2 0x615 ADD MSTORE DUP2 DUP2 PUSH2 0x19D7 ADD MSTORE PUSH2 0x1A79 ADD MSTORE PUSH1 0x0 DUP2 DUP2 PUSH2 0x700 ADD MSTORE DUP2 DUP2 PUSH2 0x170E ADD MSTORE PUSH2 0x17C4 ADD MSTORE PUSH1 0x0 DUP2 DUP2 PUSH2 0x308 ADD MSTORE DUP2 DUP2 PUSH2 0x150E ADD MSTORE PUSH2 0x15B7 ADD MSTORE PUSH1 0x0 DUP2 DUP2 PUSH2 0x4ED ADD MSTORE DUP2 DUP2 PUSH2 0x778 ADD MSTORE DUP2 DUP2 PUSH2 0xB30 ADD MSTORE PUSH2 0x10C8 ADD MSTORE PUSH1 0x0 PUSH2 0x231 ADD MSTORE PUSH2 0x2BBA PUSH1 0x0 RETURN INVALID PUSH1 0x80 PUSH1 0x40 MSTORE PUSH1 0x4 CALLDATASIZE LT PUSH2 0x213 JUMPI PUSH1 0x0 CALLDATALOAD PUSH1 0xE0 SHR DUP1 PUSH4 0x79BA5097 GT PUSH2 0x118 JUMPI DUP1 PUSH4 0xAC3AF208 GT PUSH2 0xA0 JUMPI DUP1 PUSH4 0xE30C3978 GT PUSH2 0x6F JUMPI DUP1 PUSH4 0xE30C3978 EQ PUSH2 0x69A JUMPI DUP1 PUSH4 0xE401797F EQ PUSH2 0x6B8 JUMPI DUP1 PUSH4 0xF2FDE38B EQ PUSH2 0x6CE JUMPI DUP1 PUSH4 0xFD829A23 EQ PUSH2 0x6EE JUMPI DUP1 PUSH4 0xFE9FBB80 EQ PUSH2 0x722 JUMPI PUSH1 0x0 DUP1 REVERT JUMPDEST DUP1 PUSH4 0xAC3AF208 EQ PUSH2 0x603 JUMPI DUP1 PUSH4 0xB343A0DF EQ PUSH2 0x637 JUMPI DUP1 PUSH4 0xD2FA635E EQ PUSH2 0x64D JUMPI DUP1 PUSH4 0xE2785E9C EQ PUSH2 0x66D JUMPI PUSH1 0x0 DUP1 REVERT JUMPDEST DUP1 PUSH4 0x958E80E1 GT PUSH2 0xE7 JUMPI DUP1 PUSH4 0x958E80E1 EQ PUSH2 0x577 JUMPI DUP1 PUSH4 0x9EA8741C EQ PUSH2 0x58D JUMPI DUP1 PUSH4 0xA44B3638 EQ PUSH2 0x5A3 JUMPI DUP1 PUSH4 0xAAFC9651 EQ PUSH2 0x5C3 JUMPI DUP1 PUSH4 0xAB63BDB5 EQ PUSH2 0x5E3 JUMPI PUSH1 0x0 DUP1 REVERT JUMPDEST DUP1 PUSH4 0x79BA5097 EQ PUSH2 0x50F JUMPI DUP1 PUSH4 0x7C1D9539 EQ PUSH2 0x524 JUMPI DUP1 PUSH4 0x8456CB59 EQ PUSH2 0x544 JUMPI DUP1 PUSH4 0x8DA5CB5B EQ PUSH2 0x559 JUMPI PUSH1 0x0 DUP1 REVERT JUMPDEST DUP1 PUSH4 0x454BBD29 GT PUSH2 0x19B JUMPI DUP1 PUSH4 0x54B54388 GT PUSH2 0x16A JUMPI DUP1 PUSH4 0x54B54388 EQ PUSH2 0x478 JUMPI DUP1 PUSH4 0x5C975ABB EQ PUSH2 0x48E JUMPI DUP1 PUSH4 0x6FF1C9BC EQ PUSH2 0x4A6 JUMPI DUP1 PUSH4 0x715018A6 EQ PUSH2 0x4C6 JUMPI DUP1 PUSH4 0x7535D246 EQ PUSH2 0x4DB JUMPI PUSH1 0x0 DUP1 REVERT JUMPDEST DUP1 PUSH4 0x454BBD29 EQ PUSH2 0x3C7 JUMPI DUP1 PUSH4 0x4BCDAC0D EQ PUSH2 0x3E7 JUMPI DUP1 PUSH4 0x4D54021C EQ PUSH2 0x428 JUMPI DUP1 PUSH4 0x536FFF6C EQ PUSH2 0x448 JUMPI PUSH1 0x0 DUP1 REVERT JUMPDEST DUP1 PUSH4 0x2C76D7A6 GT PUSH2 0x1E2 JUMPI DUP1 PUSH4 0x2C76D7A6 EQ PUSH2 0x2F6 JUMPI DUP1 PUSH4 0x372D6B27 EQ PUSH2 0x32A JUMPI DUP1 PUSH4 0x3C988EB3 EQ PUSH2 0x361 JUMPI DUP1 PUSH4 0x3DE39C11 EQ PUSH2 0x39C JUMPI DUP1 PUSH4 0x3F4BA83A EQ PUSH2 0x3B2 JUMPI PUSH1 0x0 DUP1 REVERT JUMPDEST DUP1 PUSH4 0x542975C EQ PUSH2 0x21F JUMPI DUP1 PUSH4 0x158274A5 EQ PUSH2 0x270 JUMPI DUP1 PUSH4 0x1B11D0FF EQ PUSH2 0x2A4 JUMPI DUP1 PUSH4 0x1E673D3D EQ PUSH2 0x2D4 JUMPI PUSH1 0x0 DUP1 REVERT JUMPDEST CALLDATASIZE PUSH2 0x21A JUMPI STOP JUMPDEST PUSH1 0x0 DUP1 REVERT JUMPDEST CALLVALUE DUP1 ISZERO PUSH2 0x22B JUMPI PUSH1 0x0 DUP1 REVERT JUMPDEST POP PUSH2 0x253 PUSH32 0x0 DUP2 JUMP JUMPDEST PUSH1 0x40 MLOAD PUSH1 0x1 PUSH1 0x1 PUSH1 0xA0 SHL SUB SWAP1 SWAP2 AND DUP2 MSTORE PUSH1 0x20 ADD JUMPDEST PUSH1 0x40 MLOAD DUP1 SWAP2 SUB SWAP1 RETURN JUMPDEST CALLVALUE DUP1 ISZERO PUSH2 0x27C JUMPI PUSH1 0x0 DUP1 REVERT JUMPDEST POP PUSH2 0x253 PUSH32 0x0 DUP2 JUMP JUMPDEST CALLVALUE DUP1 ISZERO PUSH2 0x2B0 JUMPI PUSH1 0x0 DUP1 REVERT JUMPDEST POP PUSH2 0x2C4 PUSH2 0x2BF CALLDATASIZE PUSH1 0x4 PUSH2 0x1EE2 JUMP JUMPDEST PUSH2 0x742 JUMP JUMPDEST PUSH1 0x40 MLOAD SWAP1 ISZERO ISZERO DUP2 MSTORE PUSH1 0x20 ADD PUSH2 0x267 JUMP JUMPDEST CALLVALUE DUP1 ISZERO PUSH2 0x2E0 JUMPI PUSH1 0x0 DUP1 REVERT JUMPDEST POP PUSH2 0x2F4 PUSH2 0x2EF CALLDATASIZE PUSH1 0x4 PUSH2 0x1F5E JUMP JUMPDEST PUSH2 0xBC4 JUMP JUMPDEST STOP JUMPDEST CALLVALUE DUP1 ISZERO PUSH2 0x302 JUMPI PUSH1 0x0 DUP1 REVERT JUMPDEST POP PUSH2 0x253 PUSH32 0x0 DUP2 JUMP JUMPDEST CALLVALUE DUP1 ISZERO PUSH2 0x336 JUMPI PUSH1 0x0 DUP1 REVERT JUMPDEST POP PUSH2 0x33F PUSH2 0xC5A JUMP JUMPDEST PUSH1 0x40 DUP1 MLOAD SWAP5 DUP6 MSTORE PUSH1 0x20 DUP6 ADD SWAP4 SWAP1 SWAP4 MSTORE SWAP2 DUP4 ADD MSTORE ISZERO ISZERO PUSH1 0x60 DUP3 ADD MSTORE PUSH1 0x80 ADD PUSH2 0x267 JUMP JUMPDEST CALLVALUE DUP1 ISZERO PUSH2 0x36D JUMPI PUSH1 0x0 DUP1 REVERT JUMPDEST POP PUSH2 0x38E PUSH2 0x37C CALLDATASIZE PUSH1 0x4 PUSH2 0x1FA9 JUMP JUMPDEST PUSH1 0x6 PUSH1 0x20 MSTORE PUSH1 0x0 SWAP1 DUP2 MSTORE PUSH1 0x40 SWAP1 KECCAK256 SLOAD DUP2 JUMP JUMPDEST PUSH1 0x40 MLOAD SWAP1 DUP2 MSTORE PUSH1 0x20 ADD PUSH2 0x267 JUMP JUMPDEST CALLVALUE DUP1 ISZERO PUSH2 0x3A8 JUMPI PUSH1 0x0 DUP1 REVERT JUMPDEST POP PUSH2 0x38E PUSH1 0x7 SLOAD DUP2 JUMP JUMPDEST CALLVALUE DUP1 ISZERO PUSH2 0x3BE JUMPI PUSH1 0x0 DUP1 REVERT JUMPDEST POP PUSH2 0x2F4 PUSH2 0xC83 JUMP JUMPDEST CALLVALUE DUP1 ISZERO PUSH2 0x3D3 JUMPI PUSH1 0x0 DUP1 REVERT JUMPDEST POP PUSH2 0x2F4 PUSH2 0x3E2 CALLDATASIZE PUSH1 0x4 PUSH2 0x1FCD JUMP JUMPDEST PUSH2 0xC95 JUMP JUMPDEST CALLVALUE DUP1 ISZERO PUSH2 0x3F3 JUMPI PUSH1 0x0 DUP1 REVERT JUMPDEST POP PUSH2 0x253 PUSH2 0x402 CALLDATASIZE PUSH1 0x4 PUSH2 0x200B JUMP JUMPDEST PUSH1 0x4 PUSH1 0x20 SWAP1 DUP2 MSTORE PUSH1 0x0 SWAP3 DUP4 MSTORE PUSH1 0x40 DUP1 DUP5 KECCAK256 SWAP1 SWAP2 MSTORE SWAP1 DUP3 MSTORE SWAP1 KECCAK256 SLOAD PUSH1 0x1 PUSH1 0x1 PUSH1 0xA0 SHL SUB AND DUP2 JUMP JUMPDEST CALLVALUE DUP1 ISZERO PUSH2 0x434 JUMPI PUSH1 0x0 DUP1 REVERT JUMPDEST POP PUSH2 0x38E PUSH2 0x443 CALLDATASIZE PUSH1 0x4 PUSH2 0x2039 JUMP JUMPDEST PUSH2 0xCFD JUMP JUMPDEST CALLVALUE DUP1 ISZERO PUSH2 0x454 JUMPI PUSH1 0x0 DUP1 REVERT JUMPDEST POP PUSH2 0x2C4 PUSH2 0x463 CALLDATASIZE PUSH1 0x4 PUSH2 0x1FA9 JUMP JUMPDEST PUSH1 0x5 PUSH1 0x20 MSTORE PUSH1 0x0 SWAP1 DUP2 MSTORE PUSH1 0x40 SWAP1 KECCAK256 SLOAD PUSH1 0xFF AND DUP2 JUMP JUMPDEST CALLVALUE DUP1 ISZERO PUSH2 0x484 JUMPI PUSH1 0x0 DUP1 REVERT JUMPDEST POP PUSH2 0x38E PUSH1 0xA SLOAD DUP2 JUMP JUMPDEST CALLVALUE DUP1 ISZERO PUSH2 0x49A JUMPI PUSH1 0x0 DUP1 REVERT JUMPDEST POP PUSH1 0x3 SLOAD PUSH1 0xFF AND PUSH2 0x2C4 JUMP JUMPDEST CALLVALUE DUP1 ISZERO PUSH2 0x4B2 JUMPI PUSH1 0x0 DUP1 REVERT JUMPDEST POP PUSH2 0x2F4 PUSH2 0x4C1 CALLDATASIZE PUSH1 0x4 PUSH2 0x1FA9 JUMP JUMPDEST PUSH2 0xE79 JUMP JUMPDEST CALLVALUE DUP1 ISZERO PUSH2 0x4D2 JUMPI PUSH1 0x0 DUP1 REVERT JUMPDEST POP PUSH2 0x2F4 PUSH2 0xF1E JUMP JUMPDEST CALLVALUE DUP1 ISZERO PUSH2 0x4E7 JUMPI PUSH1 0x0 DUP1 REVERT JUMPDEST POP PUSH2 0x253 PUSH32 0x0 DUP2 JUMP JUMPDEST CALLVALUE DUP1 ISZERO PUSH2 0x51B JUMPI PUSH1 0x0 DUP1 REVERT JUMPDEST POP PUSH2 0x2F4 PUSH2 0xF30 JUMP JUMPDEST CALLVALUE DUP1 ISZERO PUSH2 0x530 JUMPI PUSH1 0x0 DUP1 REVERT JUMPDEST POP PUSH2 0x2F4 PUSH2 0x53F CALLDATASIZE PUSH1 0x4 PUSH2 0x2039 JUMP JUMPDEST PUSH2 0xF79 JUMP JUMPDEST CALLVALUE DUP1 ISZERO PUSH2 0x550 JUMPI PUSH1 0x0 DUP1 REVERT JUMPDEST POP PUSH2 0x2F4 PUSH2 0x1140 JUMP JUMPDEST CALLVALUE DUP1 ISZERO PUSH2 0x565 JUMPI PUSH1 0x0 DUP1 REVERT JUMPDEST POP PUSH1 0x0 SLOAD PUSH1 0x1 PUSH1 0x1 PUSH1 0xA0 SHL SUB AND PUSH2 0x253 JUMP JUMPDEST CALLVALUE DUP1 ISZERO PUSH2 0x583 JUMPI PUSH1 0x0 DUP1 REVERT JUMPDEST POP PUSH2 0x38E PUSH1 0xC SLOAD DUP2 JUMP JUMPDEST CALLVALUE DUP1 ISZERO PUSH2 0x599 JUMPI PUSH1 0x0 DUP1 REVERT JUMPDEST POP PUSH2 0x38E PUSH1 0xB SLOAD DUP2 JUMP JUMPDEST CALLVALUE DUP1 ISZERO PUSH2 0x5AF JUMPI PUSH1 0x0 DUP1 REVERT JUMPDEST POP PUSH2 0x2F4 PUSH2 0x5BE CALLDATASIZE PUSH1 0x4 PUSH2 0x2095 JUMP JUMPDEST PUSH2 0x1150 JUMP JUMPDEST CALLVALUE DUP1 ISZERO PUSH2 0x5CF JUMPI PUSH1 0x0 DUP1 REVERT JUMPDEST POP PUSH2 0x2F4 PUSH2 0x5DE CALLDATASIZE PUSH1 0x4 PUSH2 0x20AE JUMP JUMPDEST PUSH2 0x115D JUMP JUMPDEST CALLVALUE DUP1 ISZERO PUSH2 0x5EF JUMPI PUSH1 0x0 DUP1 REVERT JUMPDEST POP PUSH2 0x2F4 PUSH2 0x5FE CALLDATASIZE PUSH1 0x4 PUSH2 0x20AE JUMP JUMPDEST PUSH2 0x121E JUMP JUMPDEST CALLVALUE DUP1 ISZERO PUSH2 0x60F JUMPI PUSH1 0x0 DUP1 REVERT JUMPDEST POP PUSH2 0x253 PUSH32 0x0 DUP2 JUMP JUMPDEST CALLVALUE DUP1 ISZERO PUSH2 0x643 JUMPI PUSH1 0x0 DUP1 REVERT JUMPDEST POP PUSH2 0x38E PUSH1 0xD SLOAD DUP2 JUMP JUMPDEST CALLVALUE DUP1 ISZERO PUSH2 0x659 JUMPI PUSH1 0x0 DUP1 REVERT JUMPDEST POP PUSH2 0x2F4 PUSH2 0x668 CALLDATASIZE PUSH1 0x4 PUSH2 0x2095 JUMP JUMPDEST PUSH2 0x1273 JUMP JUMPDEST CALLVALUE DUP1 ISZERO PUSH2 0x679 JUMPI PUSH1 0x0 DUP1 REVERT JUMPDEST POP PUSH2 0x38E PUSH2 0x688 CALLDATASIZE PUSH1 0x4 PUSH2 0x1FA9 JUMP JUMPDEST PUSH1 0x8 PUSH1 0x20 MSTORE PUSH1 0x0 SWAP1 DUP2 MSTORE PUSH1 0x40 SWAP1 KECCAK256 SLOAD DUP2 JUMP JUMPDEST CALLVALUE DUP1 ISZERO PUSH2 0x6A6 JUMPI PUSH1 0x0 DUP1 REVERT JUMPDEST POP PUSH1 0x1 SLOAD PUSH1 0x1 PUSH1 0x1 PUSH1 0xA0 SHL SUB AND PUSH2 0x253 JUMP JUMPDEST CALLVALUE DUP1 ISZERO PUSH2 0x6C4 JUMPI PUSH1 0x0 DUP1 REVERT JUMPDEST POP PUSH2 0x38E PUSH1 0x9 SLOAD DUP2 JUMP JUMPDEST CALLVALUE DUP1 ISZERO PUSH2 0x6DA JUMPI PUSH1 0x0 DUP1 REVERT JUMPDEST POP PUSH2 0x2F4 PUSH2 0x6E9 CALLDATASIZE PUSH1 0x4 PUSH2 0x1FA9 JUMP JUMPDEST PUSH2 0x1280 JUMP JUMPDEST CALLVALUE DUP1 ISZERO PUSH2 0x6FA JUMPI PUSH1 0x0 DUP1 REVERT JUMPDEST POP PUSH2 0x253 PUSH32 0x0 DUP2 JUMP JUMPDEST CALLVALUE DUP1 ISZERO PUSH2 0x72E JUMPI PUSH1 0x0 DUP1 REVERT JUMPDEST POP PUSH2 0x2C4 PUSH2 0x73D CALLDATASIZE PUSH1 0x4 PUSH2 0x1FA9 JUMP JUMPDEST PUSH2 0x12F1 JUMP JUMPDEST PUSH1 0x0 PUSH1 0x1 PUSH1 0x1 PUSH1 0xA0 SHL SUB DUP5 AND ADDRESS EQ PUSH2 0x76D JUMPI PUSH1 0x40 MLOAD PUSH4 0x49088F59 PUSH1 0xE1 SHL DUP2 MSTORE PUSH1 0x4 ADD PUSH1 0x40 MLOAD DUP1 SWAP2 SUB SWAP1 REVERT JUMPDEST CALLER PUSH1 0x1 PUSH1 0x1 PUSH1 0xA0 SHL SUB PUSH32 0x0 AND EQ PUSH2 0x7B6 JUMPI PUSH1 0x40 MLOAD PUSH4 0x5C427CD9 PUSH1 0xE0 SHL DUP2 MSTORE PUSH1 0x4 ADD PUSH1 0x40 MLOAD DUP1 SWAP2 SUB SWAP1 REVERT JUMPDEST PUSH1 0x40 MLOAD PUSH4 0x70A08231 PUSH1 0xE0 SHL DUP2 MSTORE ADDRESS PUSH1 0x4 DUP3 ADD MSTORE PUSH1 0x0 SWAP1 PUSH1 0x1 PUSH1 0x1 PUSH1 0xA0 SHL SUB DUP10 AND SWAP1 PUSH4 0x70A08231 SWAP1 PUSH1 0x24 ADD PUSH1 0x20 PUSH1 0x40 MLOAD DUP1 DUP4 SUB DUP2 DUP7 GAS STATICCALL ISZERO DUP1 ISZERO PUSH2 0x7FD JUMPI RETURNDATASIZE PUSH1 0x0 DUP1 RETURNDATACOPY RETURNDATASIZE PUSH1 0x0 REVERT JUMPDEST POP POP POP POP PUSH1 0x40 MLOAD RETURNDATASIZE PUSH1 0x1F NOT PUSH1 0x1F DUP3 ADD AND DUP3 ADD DUP1 PUSH1 0x40 MSTORE POP DUP2 ADD SWAP1 PUSH2 0x821 SWAP2 SWAP1 PUSH2 0x20DA JUMP JUMPDEST PUSH1 0x40 MLOAD PUSH4 0x13550087 PUSH1 0xE2 SHL DUP2 MSTORE SWAP1 SWAP2 POP ADDRESS SWAP1 PUSH4 0x4D54021C SWAP1 PUSH2 0x84D SWAP1 DUP12 SWAP1 DUP12 SWAP1 DUP10 SWAP1 DUP10 SWAP1 PUSH1 0x4 ADD PUSH2 0x211C JUMP JUMPDEST PUSH1 0x20 PUSH1 0x40 MLOAD DUP1 DUP4 SUB DUP2 PUSH1 0x0 DUP8 GAS CALL SWAP3 POP POP POP DUP1 ISZERO PUSH2 0x888 JUMPI POP PUSH1 0x40 DUP1 MLOAD PUSH1 0x1F RETURNDATASIZE SWAP1 DUP2 ADD PUSH1 0x1F NOT AND DUP3 ADD SWAP1 SWAP3 MSTORE PUSH2 0x885 SWAP2 DUP2 ADD SWAP1 PUSH2 0x20DA JUMP JUMPDEST PUSH1 0x1 JUMPDEST PUSH2 0x94D JUMPI PUSH2 0x894 PUSH2 0x2144 JUMP JUMPDEST DUP1 PUSH4 0x8C379A0 SUB PUSH2 0x8FD JUMPI POP PUSH2 0x8A8 PUSH2 0x21A3 JUMP JUMPDEST DUP1 PUSH2 0x8B3 JUMPI POP PUSH2 0x8FF JUMP JUMPDEST DUP9 PUSH1 0x1 PUSH1 0x1 PUSH1 0xA0 SHL SUB AND PUSH1 0x0 DUP1 MLOAD PUSH1 0x20 PUSH2 0x2B65 DUP4 CODECOPY DUP2 MLOAD SWAP2 MSTORE DUP10 DUP4 PUSH1 0x40 MLOAD PUSH2 0x8DC SWAP3 SWAP2 SWAP1 PUSH2 0x227D JUMP JUMPDEST PUSH1 0x40 MLOAD DUP1 SWAP2 SUB SWAP1 LOG2 PUSH1 0x40 MLOAD PUSH4 0x81CEFF3 PUSH1 0xE4 SHL DUP2 MSTORE PUSH1 0x4 ADD PUSH1 0x40 MLOAD DUP1 SWAP2 SUB SWAP1 REVERT JUMPDEST POP JUMPDEST DUP8 PUSH1 0x1 PUSH1 0x1 PUSH1 0xA0 SHL SUB AND PUSH1 0x0 DUP1 MLOAD PUSH1 0x20 PUSH2 0x2B65 DUP4 CODECOPY DUP2 MLOAD SWAP2 MSTORE DUP9 PUSH1 0x40 MLOAD PUSH2 0x8DC SWAP2 DUP2 MSTORE PUSH1 0x40 PUSH1 0x20 DUP3 ADD DUP2 SWAP1 MSTORE PUSH1 0xD SWAP1 DUP3 ADD MSTORE PUSH13 0x2AB735B737BBB71032B93937B9 PUSH1 0x99 SHL PUSH1 0x60 DUP3 ADD MSTORE PUSH1 0x80 ADD SWAP1 JUMP JUMPDEST PUSH1 0x0 PUSH2 0x959 DUP9 DUP11 PUSH2 0x22B4 JUMP JUMPDEST SWAP1 POP DUP1 DUP3 LT ISZERO PUSH2 0xA4E JUMPI PUSH1 0x0 PUSH2 0x96F DUP4 DUP4 PUSH2 0x22C7 JUMP JUMPDEST SWAP1 POP DUP1 PUSH1 0xC PUSH1 0x0 DUP3 DUP3 SLOAD PUSH2 0x983 SWAP2 SWAP1 PUSH2 0x22B4 JUMP JUMPDEST SWAP1 SWAP2 SSTORE POP POP PUSH1 0xB SLOAD PUSH1 0xC SLOAD GT ISZERO PUSH2 0x9D8 JUMPI PUSH2 0x99C PUSH2 0x132B JUMP JUMPDEST PUSH32 0xB93E15598C0191B5E8AD4033B4BFB998A7C8BA85D6B77F9DCE086455BD2E8E22 PUSH1 0xC SLOAD PUSH1 0x40 MLOAD PUSH2 0x9CF SWAP2 DUP2 MSTORE PUSH1 0x20 ADD SWAP1 JUMP JUMPDEST PUSH1 0x40 MLOAD DUP1 SWAP2 SUB SWAP1 LOG1 JUMPDEST DUP11 PUSH1 0x1 PUSH1 0x1 PUSH1 0xA0 SHL SUB AND PUSH1 0x0 DUP1 MLOAD PUSH1 0x20 PUSH2 0x2B65 DUP4 CODECOPY DUP2 MLOAD SWAP2 MSTORE DUP12 PUSH1 0x40 MLOAD PUSH2 0xA2D SWAP2 DUP2 MSTORE PUSH1 0x40 PUSH1 0x20 DUP3 ADD DUP2 SWAP1 MSTORE PUSH1 0x14 SWAP1 DUP3 ADD MSTORE PUSH20 0x496E73756666696369656E742072657475726E73 PUSH1 0x60 SHL PUSH1 0x60 DUP3 ADD MSTORE PUSH1 0x80 ADD SWAP1 JUMP JUMPDEST PUSH1 0x40 MLOAD DUP1 SWAP2 SUB SWAP1 LOG2 PUSH1 0x40 MLOAD PUSH4 0x2723FC75 PUSH1 0xE1 SHL DUP2 MSTORE PUSH1 0x4 ADD PUSH1 0x40 MLOAD DUP1 SWAP2 SUB SWAP1 REVERT JUMPDEST PUSH1 0x0 PUSH2 0xA5A DUP3 DUP5 PUSH2 0x22C7 JUMP JUMPDEST SWAP1 POP PUSH1 0x0 PUSH2 0x2710 PUSH2 0xA6C PUSH1 0x1E DUP14 PUSH2 0x22DA JUMP JUMPDEST PUSH2 0xA76 SWAP2 SWAP1 PUSH2 0x22F1 JUMP JUMPDEST SWAP1 POP DUP1 DUP3 LT ISZERO PUSH2 0xADE JUMPI DUP12 PUSH1 0x1 PUSH1 0x1 PUSH1 0xA0 SHL SUB AND PUSH1 0x0 DUP1 MLOAD PUSH1 0x20 PUSH2 0x2B65 DUP4 CODECOPY DUP2 MLOAD SWAP2 MSTORE DUP13 PUSH1 0x40 MLOAD PUSH2 0xA2D SWAP2 DUP2 MSTORE PUSH1 0x40 PUSH1 0x20 DUP3 ADD DUP2 SWAP1 MSTORE PUSH1 0x1E SWAP1 DUP3 ADD MSTORE PUSH32 0x42656C6F77206D696E696D756D2070726F666974207468726573686F6C640000 PUSH1 0x60 DUP3 ADD MSTORE PUSH1 0x80 ADD SWAP1 JUMP JUMPDEST PUSH1 0x1 PUSH1 0x1 PUSH1 0xA0 SHL SUB DUP13 AND PUSH1 0x0 SWAP1 DUP2 MSTORE PUSH1 0x8 PUSH1 0x20 MSTORE PUSH1 0x40 DUP2 KECCAK256 DUP1 SLOAD DUP5 SWAP3 SWAP1 PUSH2 0xB06 SWAP1 DUP5 SWAP1 PUSH2 0x22B4 JUMP JUMPDEST SWAP1 SWAP2 SSTORE POP POP PUSH1 0xA DUP1 SLOAD SWAP1 PUSH1 0x0 PUSH2 0xB1B DUP4 PUSH2 0x2313 JUMP JUMPDEST SWAP1 SWAP2 SSTORE POP PUSH2 0xB55 SWAP1 POP PUSH1 0x1 PUSH1 0x1 PUSH1 0xA0 SHL SUB DUP14 AND PUSH32 0x0 DUP6 PUSH2 0x1385 JUMP JUMPDEST PUSH1 0x0 PUSH2 0xB63 DUP9 DUP11 ADD DUP11 PUSH2 0x254A JUMP JUMPDEST POP POP POP SWAP1 POP DUP13 PUSH1 0x1 PUSH1 0x1 PUSH1 0xA0 SHL SUB AND PUSH32 0xDEC2CC5245D3AF0F32F4A5967E8EE0301AB099B021E28C19CA1349F2C5595995 DUP14 DUP6 DUP5 DUP11 PUSH1 0x40 MLOAD PUSH2 0xBA7 SWAP5 SWAP4 SWAP3 SWAP2 SWAP1 PUSH2 0x2687 JUMP JUMPDEST PUSH1 0x40 MLOAD DUP1 SWAP2 SUB SWAP1 LOG2 PUSH1 0x1 SWAP7 POP POP POP POP POP POP POP JUMPDEST SWAP7 SWAP6 POP POP POP POP POP POP JUMP JUMPDEST PUSH2 0xBCC PUSH2 0x1449 JUMP JUMPDEST PUSH1 0x1 PUSH1 0x1 PUSH1 0xA0 SHL SUB DUP4 DUP2 AND PUSH1 0x0 DUP2 DUP2 MSTORE PUSH1 0x4 PUSH1 0x20 DUP2 DUP2 MSTORE PUSH1 0x40 DUP1 DUP5 KECCAK256 DUP9 DUP8 AND DUP1 DUP7 MSTORE SWAP1 DUP4 MSTORE DUP2 DUP6 KECCAK256 DUP1 SLOAD SWAP8 DUP10 AND PUSH1 0x1 PUSH1 0x1 PUSH1 0xA0 SHL SUB NOT SWAP9 DUP10 AND DUP2 OR SWAP1 SWAP2 SSTORE SWAP4 DUP4 MSTORE DUP2 DUP6 KECCAK256 DUP7 DUP7 MSTORE DUP4 MSTORE SWAP4 DUP2 SWAP1 KECCAK256 DUP1 SLOAD SWAP1 SWAP7 AND DUP4 OR SWAP1 SWAP6 SSTORE SWAP4 MLOAD SWAP1 DUP2 MSTORE SWAP1 SWAP3 PUSH32 0x6B3EFAA5C37AC07B67043F5D784B7C7134975EED33A064EF74B31746F5635B0B SWAP2 ADD PUSH1 0x40 MLOAD DUP1 SWAP2 SUB SWAP1 LOG3 POP POP POP JUMP JUMPDEST PUSH1 0x0 DUP1 PUSH1 0x0 DUP1 PUSH1 0x9 SLOAD PUSH1 0xA SLOAD PUSH1 0xC SLOAD PUSH2 0xC75 PUSH1 0x3 SLOAD PUSH1 0xFF AND SWAP1 JUMP JUMPDEST SWAP4 POP SWAP4 POP SWAP4 POP SWAP4 POP SWAP1 SWAP2 SWAP3 SWAP4 JUMP JUMPDEST PUSH2 0xC8B PUSH2 0x1449 JUMP JUMPDEST PUSH2 0xC93 PUSH2 0x1476 JUMP JUMPDEST JUMP JUMPDEST PUSH2 0xC9D PUSH2 0x1449 JUMP JUMPDEST PUSH1 0x1 PUSH1 0x1 PUSH1 0xA0 SHL SUB DUP3 AND PUSH1 0x0 DUP2 DUP2 MSTORE PUSH1 0x5 PUSH1 0x20 SWAP1 DUP2 MSTORE PUSH1 0x40 SWAP2 DUP3 SWAP1 KECCAK256 DUP1 SLOAD PUSH1 0xFF NOT AND DUP6 ISZERO ISZERO SWAP1 DUP2 OR SWAP1 SWAP2 SSTORE SWAP2 MLOAD SWAP2 DUP3 MSTORE PUSH32 0xAD857FA38C9319CB80848F1EF2F924383B90297EB5D71755738FF037D100FAA1 SWAP2 ADD JUMPDEST PUSH1 0x40 MLOAD DUP1 SWAP2 SUB SWAP1 LOG2 POP POP JUMP JUMPDEST PUSH1 0x0 CALLER ADDRESS EQ PUSH2 0xD1F JUMPI PUSH1 0x40 MLOAD PUSH4 0x5C427CD9 PUSH1 0xE0 SHL DUP2 MSTORE PUSH1 0x4 ADD PUSH1 0x40 MLOAD DUP1 SWAP2 SUB SWAP1 REVERT JUMPDEST PUSH1 0x0 DUP1 DUP1 DUP1 PUSH2 0xD30 DUP7 DUP9 ADD DUP9 PUSH2 0x254A JUMP JUMPDEST SWAP4 POP SWAP4 POP SWAP4 POP SWAP4 POP DUP4 MLOAD PUSH1 0x0 EQ DUP1 PUSH2 0xD4A JUMPI POP DUP1 MLOAD DUP5 MLOAD EQ ISZERO JUMPDEST ISZERO PUSH2 0xD68 JUMPI PUSH1 0x40 MLOAD PUSH4 0xE523909 PUSH1 0xE4 SHL DUP2 MSTORE PUSH1 0x4 ADD PUSH1 0x40 MLOAD DUP1 SWAP2 SUB SWAP1 REVERT JUMPDEST DUP8 DUP10 PUSH1 0x0 JUMPDEST DUP7 MLOAD DUP2 LT ISZERO PUSH2 0xE38 JUMPI PUSH1 0x0 DUP6 DUP3 DUP2 MLOAD DUP2 LT PUSH2 0xD8A JUMPI PUSH2 0xD8A PUSH2 0x2700 JUMP JUMPDEST PUSH1 0x20 MUL PUSH1 0x20 ADD ADD MLOAD SWAP1 POP PUSH1 0x0 DUP8 DUP4 DUP2 MLOAD DUP2 LT PUSH2 0xDA8 JUMPI PUSH2 0xDA8 PUSH2 0x2700 JUMP JUMPDEST PUSH1 0x20 MUL PUSH1 0x20 ADD ADD MLOAD SWAP1 POP PUSH1 0x0 PUSH2 0x2710 PUSH2 0x12C PUSH2 0x2710 PUSH2 0xDC7 SWAP2 SWAP1 PUSH2 0x22C7 JUMP JUMPDEST PUSH2 0xDD1 SWAP1 DUP5 PUSH2 0x22DA JUMP JUMPDEST PUSH2 0xDDB SWAP2 SWAP1 PUSH2 0x22F1 JUMP JUMPDEST SWAP1 POP PUSH2 0xE1D DUP11 DUP6 DUP2 MLOAD DUP2 LT PUSH2 0xDF2 JUMPI PUSH2 0xDF2 PUSH2 0x2700 JUMP JUMPDEST PUSH1 0x20 MUL PUSH1 0x20 ADD ADD MLOAD DUP7 DUP6 DUP10 DUP6 DUP13 DUP11 DUP2 MLOAD DUP2 LT PUSH2 0xE10 JUMPI PUSH2 0xE10 PUSH2 0x2700 JUMP JUMPDEST PUSH1 0x20 MUL PUSH1 0x20 ADD ADD MLOAD PUSH2 0x14AF JUMP JUMPDEST SWAP6 POP DUP3 SWAP5 POP POP POP POP DUP1 DUP1 PUSH2 0xE30 SWAP1 PUSH2 0x2313 JUMP JUMPDEST SWAP2 POP POP PUSH2 0xD6D JUMP JUMPDEST POP DUP11 PUSH1 0x1 PUSH1 0x1 PUSH1 0xA0 SHL SUB AND DUP2 PUSH1 0x1 PUSH1 0x1 PUSH1 0xA0 SHL SUB AND EQ PUSH2 0xE6B JUMPI PUSH1 0x40 MLOAD PUSH4 0xE523909 PUSH1 0xE4 SHL DUP2 MSTORE PUSH1 0x4 ADD PUSH1 0x40 MLOAD DUP1 SWAP2 SUB SWAP1 REVERT JUMPDEST POP SWAP10 SWAP9 POP POP POP POP POP POP POP POP POP JUMP JUMPDEST PUSH2 0xE81 PUSH2 0x1449 JUMP JUMPDEST PUSH1 0x40 MLOAD PUSH4 0x70A08231 PUSH1 0xE0 SHL DUP2 MSTORE ADDRESS PUSH1 0x4 DUP3 ADD MSTORE PUSH1 0x0 SWAP1 PUSH1 0x1 PUSH1 0x1 PUSH1 0xA0 SHL SUB DUP4 AND SWAP1 PUSH4 0x70A08231 SWAP1 PUSH1 0x24 ADD PUSH1 0x20 PUSH1 0x40 MLOAD DUP1 DUP4 SUB DUP2 DUP7 GAS STATICCALL ISZERO DUP1 ISZERO PUSH2 0xEC8 JUMPI RETURNDATASIZE PUSH1 0x0 DUP1 RETURNDATACOPY RETURNDATASIZE PUSH1 0x0 REVERT JUMPDEST POP POP POP POP PUSH1 0x40 MLOAD RETURNDATASIZE PUSH1 0x1F NOT PUSH1 0x1F DUP3 ADD AND DUP3 ADD DUP1 PUSH1 0x40 MSTORE POP DUP2 ADD SWAP1 PUSH2 0xEEC SWAP2 SWAP1 PUSH2 0x20DA JUMP JUMPDEST SWAP1 POP DUP1 ISZERO PUSH2 0xF1A JUMPI PUSH2 0xF1A PUSH2 0xF09 PUSH1 0x0 SLOAD PUSH1 0x1 PUSH1 0x1 PUSH1 0xA0 SHL SUB AND SWAP1 JUMP JUMPDEST PUSH1 0x1 PUSH1 0x1 PUSH1 0xA0 SHL SUB DUP5 AND SWAP1 DUP4 PUSH2 0x1CE8 JUMP JUMPDEST POP POP JUMP JUMPDEST PUSH2 0xF26 PUSH2 0x1449 JUMP JUMPDEST PUSH2 0xC93 PUSH1 0x0 PUSH2 0x1D19 JUMP JUMPDEST PUSH1 0x1 SLOAD CALLER SWAP1 PUSH1 0x1 PUSH1 0x1 PUSH1 0xA0 SHL SUB AND DUP2 EQ PUSH2 0xF6D JUMPI PUSH1 0x40 MLOAD PUSH4 0x118CDAA7 PUSH1 0xE0 SHL DUP2 MSTORE PUSH1 0x1 PUSH1 0x1 PUSH1 0xA0 SHL SUB DUP3 AND PUSH1 0x4 DUP3 ADD MSTORE PUSH1 0x24 ADD JUMPDEST PUSH1 0x40 MLOAD DUP1 SWAP2 SUB SWAP1 REVERT JUMPDEST PUSH2 0xF76 DUP2 PUSH2 0x1D19 JUMP JUMPDEST POP JUMP JUMPDEST CALLER PUSH1 0x0 SWAP1 DUP2 MSTORE PUSH1 0x5 PUSH1 0x20 MSTORE PUSH1 0x40 SWAP1 KECCAK256 SLOAD PUSH1 0xFF AND ISZERO DUP1 ISZERO PUSH2 0xFA4 JUMPI POP PUSH1 0x0 SLOAD PUSH1 0x1 PUSH1 0x1 PUSH1 0xA0 SHL SUB AND CALLER EQ ISZERO JUMPDEST ISZERO PUSH2 0xFC2 JUMPI PUSH1 0x40 MLOAD PUSH4 0x5C427CD9 PUSH1 0xE0 SHL DUP2 MSTORE PUSH1 0x4 ADD PUSH1 0x40 MLOAD DUP1 SWAP2 SUB SWAP1 REVERT JUMPDEST PUSH1 0x7 SLOAD GASPRICE GT ISZERO PUSH2 0xFE5 JUMPI PUSH1 0x40 MLOAD PUSH4 0x4755FF19 PUSH1 0xE0 SHL DUP2 MSTORE PUSH1 0x4 ADD PUSH1 0x40 MLOAD DUP1 SWAP2 SUB SWAP1 REVERT JUMPDEST PUSH2 0xFED PUSH2 0x1D32 JUMP JUMPDEST PUSH1 0xD SLOAD PUSH2 0xFFD SWAP1 PUSH3 0x15180 PUSH2 0x22B4 JUMP JUMPDEST TIMESTAMP GT ISZERO PUSH2 0x100E JUMPI PUSH1 0x0 PUSH1 0xC SSTORE TIMESTAMP PUSH1 0xD SSTORE JUMPDEST PUSH1 0x1 PUSH1 0x1 PUSH1 0xA0 SHL SUB DUP5 AND ISZERO DUP1 PUSH2 0x1022 JUMPI POP DUP3 ISZERO JUMPDEST ISZERO PUSH2 0x1040 JUMPI PUSH1 0x40 MLOAD PUSH4 0xE523909 PUSH1 0xE4 SHL DUP2 MSTORE PUSH1 0x4 ADD PUSH1 0x40 MLOAD DUP1 SWAP2 SUB SWAP1 REVERT JUMPDEST PUSH1 0x1 PUSH1 0x1 PUSH1 0xA0 SHL SUB DUP5 AND PUSH1 0x0 SWAP1 DUP2 MSTORE PUSH1 0x6 PUSH1 0x20 MSTORE PUSH1 0x40 SWAP1 KECCAK256 SLOAD ISZERO DUP1 ISZERO SWAP1 PUSH2 0x107E JUMPI POP PUSH1 0x1 PUSH1 0x1 PUSH1 0xA0 SHL SUB DUP5 AND PUSH1 0x0 SWAP1 DUP2 MSTORE PUSH1 0x6 PUSH1 0x20 MSTORE PUSH1 0x40 SWAP1 KECCAK256 SLOAD DUP4 GT JUMPDEST ISZERO PUSH2 0x109C JUMPI PUSH1 0x40 MLOAD PUSH4 0xE523909 PUSH1 0xE4 SHL DUP2 MSTORE PUSH1 0x4 ADD PUSH1 0x40 MLOAD DUP1 SWAP2 SUB SWAP1 REVERT JUMPDEST PUSH1 0x9 DUP1 SLOAD SWAP1 PUSH1 0x0 PUSH2 0x10AC DUP4 PUSH2 0x2313 JUMP JUMPDEST SWAP1 SWAP2 SSTORE POP POP PUSH1 0x40 MLOAD PUSH4 0x10AC2DDF PUSH1 0xE2 SHL DUP2 MSTORE PUSH1 0x1 PUSH1 0x1 PUSH1 0xA0 SHL SUB PUSH32 0x0 AND SWAP1 PUSH4 0x42B0B77C SWAP1 PUSH2 0x1108 SWAP1 ADDRESS SWAP1 DUP9 SWAP1 DUP9 SWAP1 DUP9 SWAP1 DUP9 SWAP1 PUSH1 0x0 SWAP1 PUSH1 0x4 ADD PUSH2 0x2716 JUMP JUMPDEST PUSH1 0x0 PUSH1 0x40 MLOAD DUP1 DUP4 SUB DUP2 PUSH1 0x0 DUP8 DUP1 EXTCODESIZE ISZERO DUP1 ISZERO PUSH2 0x1122 JUMPI PUSH1 0x0 DUP1 REVERT JUMPDEST POP GAS CALL ISZERO DUP1 ISZERO PUSH2 0x1136 JUMPI RETURNDATASIZE PUSH1 0x0 DUP1 RETURNDATACOPY RETURNDATASIZE PUSH1 0x0 REVERT JUMPDEST POP POP POP POP POP POP POP POP JUMP JUMPDEST PUSH2 0x1148 PUSH2 0x1449 JUMP JUMPDEST PUSH2 0xC93 PUSH2 0x132B JUMP JUMPDEST PUSH2 0x1158 PUSH2 0x1449 JUMP JUMPDEST PUSH1 0xB SSTORE JUMP JUMPDEST PUSH2 0x1165 PUSH2 0x1449 JUMP JUMPDEST PUSH1 0x40 MLOAD PUSH4 0x70A08231 PUSH1 0xE0 SHL DUP2 MSTORE ADDRESS PUSH1 0x4 DUP3 ADD MSTORE PUSH1 0x0 SWAP1 PUSH1 0x1 PUSH1 0x1 PUSH1 0xA0 SHL SUB DUP5 AND SWAP1 PUSH4 0x70A08231 SWAP1 PUSH1 0x24 ADD PUSH1 0x20 PUSH1 0x40 MLOAD DUP1 DUP4 SUB DUP2 DUP7 GAS STATICCALL ISZERO DUP1 ISZERO PUSH2 0x11AC JUMPI RETURNDATASIZE PUSH1 0x0 DUP1 RETURNDATACOPY RETURNDATASIZE PUSH1 0x0 REVERT JUMPDEST POP POP POP POP PUSH1 0x40 MLOAD RETURNDATASIZE PUSH1 0x1F NOT PUSH1 0x1F DUP3 ADD AND DUP3 ADD DUP1 PUSH1 0x40 MSTORE POP DUP2 ADD SWAP1 PUSH2 0x11D0 SWAP2 SWAP1 PUSH2 0x20DA JUMP JUMPDEST SWAP1 POP DUP1 DUP3 GT ISZERO PUSH2 0x11F3 JUMPI PUSH1 0x40 MLOAD PUSH4 0xE523909 PUSH1 0xE4 SHL DUP2 MSTORE PUSH1 0x4 ADD PUSH1 0x40 MLOAD DUP1 SWAP2 SUB SWAP1 REVERT JUMPDEST PUSH2 0x1219 PUSH2 0x1208 PUSH1 0x0 SLOAD PUSH1 0x1 PUSH1 0x1 PUSH1 0xA0 SHL SUB AND SWAP1 JUMP JUMPDEST PUSH1 0x1 PUSH1 0x1 PUSH1 0xA0 SHL SUB DUP6 AND SWAP1 DUP5 PUSH2 0x1CE8 JUMP JUMPDEST POP POP POP JUMP JUMPDEST PUSH2 0x1226 PUSH2 0x1449 JUMP JUMPDEST PUSH1 0x1 PUSH1 0x1 PUSH1 0xA0 SHL SUB DUP3 AND PUSH1 0x0 DUP2 DUP2 MSTORE PUSH1 0x6 PUSH1 0x20 MSTORE PUSH1 0x40 SWAP1 DUP2 SWAP1 KECCAK256 DUP4 SWAP1 SSTORE MLOAD PUSH32 0xE88DEB8818AB3C3CF7ACD473D7E1D5260C0A931DAA19A6EAA067C6E22CC7E2FB SWAP1 PUSH2 0xCF1 SWAP1 DUP5 DUP2 MSTORE PUSH1 0x20 ADD SWAP1 JUMP JUMPDEST PUSH2 0x127B PUSH2 0x1449 JUMP JUMPDEST PUSH1 0x7 SSTORE JUMP JUMPDEST PUSH2 0x1288 PUSH2 0x1449 JUMP JUMPDEST PUSH1 0x1 DUP1 SLOAD PUSH1 0x1 PUSH1 0x1 PUSH1 0xA0 SHL SUB DUP4 AND PUSH1 0x1 PUSH1 0x1 PUSH1 0xA0 SHL SUB NOT SWAP1 SWAP2 AND DUP2 OR SWAP1 SWAP2 SSTORE PUSH2 0x12B9 PUSH1 0x0 SLOAD PUSH1 0x1 PUSH1 0x1 PUSH1 0xA0 SHL SUB AND SWAP1 JUMP JUMPDEST PUSH1 0x1 PUSH1 0x1 PUSH1 0xA0 SHL SUB AND PUSH32 0x38D16B8CAC22D99FC7C124B9CD0DE2D3FA1FAEF420BFE791D8C362D765E22700 PUSH1 0x40 MLOAD PUSH1 0x40 MLOAD DUP1 SWAP2 SUB SWAP1 LOG3 POP JUMP JUMPDEST PUSH1 0x1 PUSH1 0x1 PUSH1 0xA0 SHL SUB DUP2 AND PUSH1 0x0 SWAP1 DUP2 MSTORE PUSH1 0x5 PUSH1 0x20 MSTORE PUSH1 0x40 DUP2 KECCAK256 SLOAD PUSH1 0xFF AND DUP1 PUSH2 0x1325 JUMPI POP PUSH1 0x0 SLOAD PUSH1 0x1 PUSH1 0x1 PUSH1 0xA0 SHL SUB DUP4 DUP2 AND SWAP2 AND EQ JUMPDEST SWAP3 SWAP2 POP POP JUMP JUMPDEST PUSH2 0x1333 PUSH2 0x1D32 JUMP JUMPDEST PUSH1 0x3 DUP1 SLOAD PUSH1 0xFF NOT AND PUSH1 0x1 OR SWAP1 SSTORE PUSH32 0x62E78CEA01BEE320CD4E420270B5EA74000D11B0C9F74754EBDBFC544B05A258 PUSH2 0x1368 CALLER SWAP1 JUMP JUMPDEST PUSH1 0x40 MLOAD PUSH1 0x1 PUSH1 0x1 PUSH1 0xA0 SHL SUB SWAP1 SWAP2 AND DUP2 MSTORE PUSH1 0x20 ADD PUSH1 0x40 MLOAD DUP1 SWAP2 SUB SWAP1 LOG1 JUMP JUMPDEST PUSH1 0x40 DUP1 MLOAD PUSH1 0x1 PUSH1 0x1 PUSH1 0xA0 SHL SUB DUP5 AND PUSH1 0x24 DUP3 ADD MSTORE PUSH1 0x44 DUP1 DUP3 ADD DUP5 SWAP1 MSTORE DUP3 MLOAD DUP1 DUP4 SUB SWAP1 SWAP2 ADD DUP2 MSTORE PUSH1 0x64 SWAP1 SWAP2 ADD SWAP1 SWAP2 MSTORE PUSH1 0x20 DUP2 ADD DUP1 MLOAD PUSH1 0x1 PUSH1 0x1 PUSH1 0xE0 SHL SUB AND PUSH4 0x95EA7B3 PUSH1 0xE0 SHL OR SWAP1 MSTORE PUSH2 0x13D6 DUP5 DUP3 PUSH2 0x1D56 JUMP JUMPDEST PUSH2 0x1443 JUMPI PUSH1 0x40 MLOAD PUSH1 0x1 PUSH1 0x1 PUSH1 0xA0 SHL SUB DUP5 DUP2 AND PUSH1 0x24 DUP4 ADD MSTORE PUSH1 0x0 PUSH1 0x44 DUP4 ADD MSTORE PUSH2 0x1439 SWAP2 DUP7 SWAP2 DUP3 AND SWAP1 PUSH4 0x95EA7B3 SWAP1 PUSH1 0x64 ADD JUMPDEST PUSH1 0x40 MLOAD PUSH1 0x20 DUP2 DUP4 SUB SUB DUP2 MSTORE SWAP1 PUSH1 0x40 MSTORE SWAP2 POP PUSH1 0xE0 SHL PUSH1 0x20 DUP3 ADD DUP1 MLOAD PUSH1 0x1 PUSH1 0x1 PUSH1 0xE0 SHL SUB DUP4 DUP2 DUP4 AND OR DUP4 MSTORE POP POP POP POP PUSH2 0x1DA0 JUMP JUMPDEST PUSH2 0x1443 DUP5 DUP3 PUSH2 0x1DA0 JUMP JUMPDEST POP POP POP POP JUMP JUMPDEST PUSH1 0x0 SLOAD PUSH1 0x1 PUSH1 0x1 PUSH1 0xA0 SHL SUB AND CALLER EQ PUSH2 0xC93 JUMPI PUSH1 0x40 MLOAD PUSH4 0x118CDAA7 PUSH1 0xE0 SHL DUP2 MSTORE CALLER PUSH1 0x4 DUP3 ADD MSTORE PUSH1 0x24 ADD PUSH2 0xF64 JUMP JUMPDEST PUSH2 0x147E PUSH2 0x1E11 JUMP JUMPDEST PUSH1 0x3 DUP1 SLOAD PUSH1 0xFF NOT AND SWAP1 SSTORE PUSH32 0x5DB9EE0A495BF2E6FF9C91A7834C1BA4FDD244A5E8AA4E537BD38AEAE4B073AA CALLER PUSH2 0x1368 JUMP JUMPDEST PUSH1 0x40 DUP1 MLOAD DUP1 DUP3 ADD SWAP1 SWAP2 MSTORE PUSH1 0x9 DUP2 MSTORE PUSH9 0x556E69737761705633 PUSH1 0xB8 SHL PUSH1 0x20 SWAP2 DUP3 ADD MSTORE DUP7 MLOAD SWAP1 DUP8 ADD KECCAK256 PUSH1 0x0 SWAP1 PUSH32 0x55BBC5B76385AB5CE5DA1B40DA3183BAF1EBE0027A4440C291328A6FCF83BAE7 ADD PUSH2 0x16B2 JUMPI PUSH2 0x1533 PUSH1 0x1 PUSH1 0x1 PUSH1 0xA0 SHL SUB DUP8 AND PUSH32 0x0 DUP7 PUSH2 0x1385 JUMP JUMPDEST PUSH1 0x0 DUP1 DUP4 DUP1 PUSH1 0x20 ADD SWAP1 MLOAD DUP2 ADD SWAP1 PUSH2 0x154A SWAP2 SWAP1 PUSH2 0x2761 JUMP JUMPDEST SWAP2 POP SWAP2 POP PUSH1 0x0 PUSH1 0x40 MLOAD DUP1 PUSH2 0x100 ADD PUSH1 0x40 MSTORE DUP1 DUP11 PUSH1 0x1 PUSH1 0x1 PUSH1 0xA0 SHL SUB AND DUP2 MSTORE PUSH1 0x20 ADD DUP10 PUSH1 0x1 PUSH1 0x1 PUSH1 0xA0 SHL SUB AND DUP2 MSTORE PUSH1 0x20 ADD DUP5 PUSH3 0xFFFFFF AND DUP2 MSTORE PUSH1 0x20 ADD ADDRESS PUSH1 0x1 PUSH1 0x1 PUSH1 0xA0 SHL SUB AND DUP2 MSTORE PUSH1 0x20 ADD TIMESTAMP DUP2 MSTORE PUSH1 0x20 ADD DUP9 DUP2 MSTORE PUSH1 0x20 ADD DUP8 DUP2 MSTORE PUSH1 0x20 ADD DUP4 PUSH1 0x1 PUSH1 0x1 PUSH1 0xA0 SHL SUB AND DUP2 MSTORE POP SWAP1 POP PUSH32 0x0 PUSH1 0x1 PUSH1 0x1 PUSH1 0xA0 SHL SUB AND PUSH4 0x414BF389 DUP3 PUSH1 0x40 MLOAD DUP3 PUSH4 0xFFFFFFFF AND PUSH1 0xE0 SHL DUP2 MSTORE PUSH1 0x4 ADD PUSH2 0x1665 SWAP2 SWAP1 DUP2 MLOAD PUSH1 0x1 PUSH1 0x1 PUSH1 0xA0 SHL SUB SWAP1 DUP2 AND DUP3 MSTORE PUSH1 0x20 DUP1 DUP5 ADD MLOAD DUP3 AND SWAP1 DUP4 ADD MSTORE PUSH1 0x40 DUP1 DUP5 ADD MLOAD PUSH3 0xFFFFFF AND SWAP1 DUP4 ADD MSTORE PUSH1 0x60 DUP1 DUP5 ADD MLOAD DUP3 AND SWAP1 DUP4 ADD MSTORE PUSH1 0x80 DUP1 DUP5 ADD MLOAD SWAP1 DUP4 ADD MSTORE PUSH1 0xA0 DUP4 DUP2 ADD MLOAD SWAP1 DUP4 ADD MSTORE PUSH1 0xC0 DUP1 DUP5 ADD MLOAD SWAP1 DUP4 ADD MSTORE PUSH1 0xE0 SWAP3 DUP4 ADD MLOAD AND SWAP2 DUP2 ADD SWAP2 SWAP1 SWAP2 MSTORE PUSH2 0x100 ADD SWAP1 JUMP JUMPDEST PUSH1 0x20 PUSH1 0x40 MLOAD DUP1 DUP4 SUB DUP2 PUSH1 0x0 DUP8 GAS CALL ISZERO DUP1 ISZERO PUSH2 0x1684 JUMPI RETURNDATASIZE PUSH1 0x0 DUP1 RETURNDATACOPY RETURNDATASIZE PUSH1 0x0 REVERT JUMPDEST POP POP POP POP PUSH1 0x40 MLOAD RETURNDATASIZE PUSH1 0x1F NOT PUSH1 0x1F DUP3 ADD AND DUP3 ADD DUP1 PUSH1 0x40 MSTORE POP DUP2 ADD SWAP1 PUSH2 0x16A8 SWAP2 SWAP1 PUSH2 0x20DA JUMP JUMPDEST SWAP4 POP POP POP POP PUSH2 0x1CC7 JUMP JUMPDEST PUSH1 0x40 DUP1 MLOAD DUP1 DUP3 ADD SWAP1 SWAP2 MSTORE PUSH1 0x9 DUP2 MSTORE PUSH9 0x53757368695377617 PUSH1 0xBC SHL PUSH1 0x20 SWAP2 DUP3 ADD MSTORE DUP8 MLOAD SWAP1 DUP9 ADD KECCAK256 PUSH32 0x9FD79529140912D426F996F8FD17D8C0A099CDCAF4CA5AA0192BEBAD6312B384 ADD PUSH2 0x187A JUMPI PUSH2 0x1733 PUSH1 0x1 PUSH1 0x1 PUSH1 0xA0 SHL SUB DUP8 AND PUSH32 0x0 DUP7 PUSH2 0x1385 JUMP JUMPDEST PUSH1 0x40 DUP1 MLOAD PUSH1 0x2 DUP1 DUP3 MSTORE PUSH1 0x60 DUP3 ADD DUP4 MSTORE PUSH1 0x0 SWAP3 PUSH1 0x20 DUP4 ADD SWAP1 DUP1 CALLDATASIZE DUP4 CALLDATACOPY ADD SWAP1 POP POP SWAP1 POP DUP7 DUP2 PUSH1 0x0 DUP2 MLOAD DUP2 LT PUSH2 0x1768 JUMPI PUSH2 0x1768 PUSH2 0x2700 JUMP JUMPDEST PUSH1 0x20 MUL PUSH1 0x20 ADD ADD SWAP1 PUSH1 0x1 PUSH1 0x1 PUSH1 0xA0 SHL SUB AND SWAP1 DUP2 PUSH1 0x1 PUSH1 0x1 PUSH1 0xA0 SHL SUB AND DUP2 MSTORE POP POP DUP6 DUP2 PUSH1 0x1 DUP2 MLOAD DUP2 LT PUSH2 0x179C JUMPI PUSH2 0x179C PUSH2 0x2700 JUMP JUMPDEST PUSH1 0x1 PUSH1 0x1 PUSH1 0xA0 SHL SUB SWAP3 DUP4 AND PUSH1 0x20 SWAP2 DUP3 MUL SWAP3 SWAP1 SWAP3 ADD ADD MSTORE PUSH1 0x40 MLOAD PUSH4 0x38ED1739 PUSH1 0xE0 SHL DUP2 MSTORE PUSH1 0x0 SWAP2 PUSH32 0x0 AND SWAP1 PUSH4 0x38ED1739 SWAP1 PUSH2 0x1801 SWAP1 DUP10 SWAP1 DUP10 SWAP1 DUP8 SWAP1 ADDRESS SWAP1 TIMESTAMP SWAP1 PUSH1 0x4 ADD PUSH2 0x2798 JUMP JUMPDEST PUSH1 0x0 PUSH1 0x40 MLOAD DUP1 DUP4 SUB DUP2 PUSH1 0x0 DUP8 GAS CALL ISZERO DUP1 ISZERO PUSH2 0x1820 JUMPI RETURNDATASIZE PUSH1 0x0 DUP1 RETURNDATACOPY RETURNDATASIZE PUSH1 0x0 REVERT JUMPDEST POP POP POP POP PUSH1 0x40 MLOAD RETURNDATASIZE PUSH1 0x0 DUP3 RETURNDATACOPY PUSH1 0x1F RETURNDATASIZE SWAP1 DUP2 ADD PUSH1 0x1F NOT AND DUP3 ADD PUSH1 0x40 MSTORE PUSH2 0x1848 SWAP2 SWAP1 DUP2 ADD SWAP1 PUSH2 0x2809 JUMP JUMPDEST SWAP1 POP DUP1 PUSH1 0x1 DUP3 MLOAD PUSH2 0x1859 SWAP2 SWAP1 PUSH2 0x22C7 JUMP JUMPDEST DUP2 MLOAD DUP2 LT PUSH2 0x1869 JUMPI PUSH2 0x1869 PUSH2 0x2700 JUMP JUMPDEST PUSH1 0x20 MUL PUSH1 0x20 ADD ADD MLOAD SWAP3 POP POP POP PUSH2 0x1CC7 JUMP JUMPDEST PUSH1 0x40 DUP1 MLOAD DUP1 DUP3 ADD SWAP1 SWAP2 MSTORE PUSH1 0x5 DUP2 MSTORE PUSH5 0x4375727665 PUSH1 0xD8 SHL PUSH1 0x20 SWAP2 DUP3 ADD MSTORE DUP8 MLOAD SWAP1 DUP9 ADD KECCAK256 PUSH32 0xB41FBC53F8D9D9A3E2554B031E110CDE08304BEB0D6AEF8F1C8AE28628B05F1D ADD PUSH2 0x197F JUMPI PUSH1 0x1 PUSH1 0x1 PUSH1 0xA0 SHL SUB DUP1 DUP8 AND PUSH1 0x0 SWAP1 DUP2 MSTORE PUSH1 0x4 PUSH1 0x20 SWAP1 DUP2 MSTORE PUSH1 0x40 DUP1 DUP4 KECCAK256 DUP10 DUP6 AND DUP5 MSTORE SWAP1 SWAP2 MSTORE SWAP1 KECCAK256 SLOAD AND DUP1 PUSH2 0x1909 JUMPI PUSH1 0x40 MLOAD PUSH4 0xE523909 PUSH1 0xE4 SHL DUP2 MSTORE PUSH1 0x4 ADD PUSH1 0x40 MLOAD DUP1 SWAP2 SUB SWAP1 REVERT JUMPDEST PUSH2 0x191D PUSH1 0x1 PUSH1 0x1 PUSH1 0xA0 SHL SUB DUP9 AND DUP3 DUP8 PUSH2 0x1385 JUMP JUMPDEST PUSH1 0x0 DUP1 DUP5 DUP1 PUSH1 0x20 ADD SWAP1 MLOAD DUP2 ADD SWAP1 PUSH2 0x1934 SWAP2 SWAP1 PUSH2 0x28BC JUMP JUMPDEST PUSH1 0x40 MLOAD PUSH4 0xF7C0849 PUSH1 0xE2 SHL DUP2 MSTORE PUSH1 0xF DUP4 DUP2 SIGNEXTEND PUSH1 0x4 DUP4 ADD MSTORE DUP3 SWAP1 SIGNEXTEND PUSH1 0x24 DUP3 ADD MSTORE PUSH1 0x44 DUP2 ADD DUP11 SWAP1 MSTORE PUSH1 0x64 DUP2 ADD DUP10 SWAP1 MSTORE SWAP2 SWAP4 POP SWAP2 POP PUSH1 0x1 PUSH1 0x1 PUSH1 0xA0 SHL SUB DUP5 AND SWAP1 PUSH4 0x3DF02124 SWAP1 PUSH1 0x84 ADD PUSH2 0x1665 JUMP JUMPDEST PUSH1 0x40 DUP1 MLOAD DUP1 DUP3 ADD SWAP1 SWAP2 MSTORE PUSH1 0x5 DUP2 MSTORE PUSH5 0x62D2DCC6D PUSH1 0xDB SHL PUSH1 0x20 SWAP2 DUP3 ADD MSTORE DUP8 MLOAD SWAP1 DUP9 ADD KECCAK256 PUSH32 0x2640F3F13FDF2E5D94599675DB24C5AC7DEA27040CFA774222196B7783B34AA2 ADD PUSH2 0x1B18 JUMPI PUSH2 0x19FC PUSH1 0x1 PUSH1 0x1 PUSH1 0xA0 SHL SUB DUP8 AND PUSH32 0x0 DUP7 PUSH2 0x1385 JUMP JUMPDEST PUSH1 0x0 DUP1 PUSH1 0x0 DUP5 DUP1 PUSH1 0x20 ADD SWAP1 MLOAD DUP2 ADD SWAP1 PUSH2 0x1A15 SWAP2 SWAP1 PUSH2 0x2947 JUMP JUMPDEST SWAP3 POP SWAP3 POP SWAP3 POP PUSH1 0x0 PUSH1 0x40 MLOAD DUP1 PUSH1 0xE0 ADD PUSH1 0x40 MSTORE DUP1 DUP12 PUSH1 0x1 PUSH1 0x1 PUSH1 0xA0 SHL SUB AND DUP2 MSTORE PUSH1 0x20 ADD DUP11 PUSH1 0x1 PUSH1 0x1 PUSH1 0xA0 SHL SUB AND DUP2 MSTORE PUSH1 0x20 ADD DUP6 PUSH1 0x1 PUSH1 0x1 PUSH1 0xA0 SHL SUB AND DUP2 MSTORE PUSH1 0x20 ADD ADDRESS PUSH1 0x1 PUSH1 0x1 PUSH1 0xA0 SHL SUB AND DUP2 MSTORE PUSH1 0x20 ADD DUP10 DUP2 MSTORE PUSH1 0x20 ADD DUP9 DUP2 MSTORE PUSH1 0x20 ADD PUSH1 0x0 DUP2 MSTORE POP SWAP1 POP PUSH32 0x0 PUSH1 0x1 PUSH1 0x1 PUSH1 0xA0 SHL SUB AND PUSH4 0x12AA3CAF DUP6 DUP4 DUP7 DUP7 PUSH1 0x40 MLOAD DUP6 PUSH4 0xFFFFFFFF AND PUSH1 0xE0 SHL DUP2 MSTORE PUSH1 0x4 ADD PUSH2 0x1AC9 SWAP5 SWAP4 SWAP3 SWAP2 SWAP1 PUSH2 0x29BE JUMP JUMPDEST PUSH1 0x40 DUP1 MLOAD DUP1 DUP4 SUB DUP2 PUSH1 0x0 DUP8 GAS CALL ISZERO DUP1 ISZERO PUSH2 0x1AE7 JUMPI RETURNDATASIZE PUSH1 0x0 DUP1 RETURNDATACOPY RETURNDATASIZE PUSH1 0x0 REVERT JUMPDEST POP POP POP POP PUSH1 0x40 MLOAD RETURNDATASIZE PUSH1 0x1F NOT PUSH1 0x1F DUP3 ADD AND DUP3 ADD DUP1 PUSH1 0x40 MSTORE POP DUP2 ADD SWAP1 PUSH2 0x1B0B SWAP2 SWAP1 PUSH2 0x2A43 JUMP JUMPDEST POP SWAP5 POP PUSH2 0x1CC7 SWAP4 POP POP POP POP JUMP JUMPDEST PUSH1 0x40 DUP1 MLOAD DUP1 DUP3 ADD SWAP1 SWAP2 MSTORE PUSH1 0x8 DUP2 MSTORE PUSH8 0x2130B630B731B2B9 PUSH1 0xC1 SHL PUSH1 0x20 SWAP2 DUP3 ADD MSTORE DUP8 MLOAD SWAP1 DUP9 ADD KECCAK256 PUSH32 0xF7F53F66846AF2AD3F241C2F641949F42BF8CA68233EEE9DC73521512229D6C1 ADD PUSH2 0x1CAE JUMPI PUSH2 0x1B98 PUSH1 0x1 PUSH1 0x1 PUSH1 0xA0 SHL SUB DUP8 AND PUSH32 0x0 DUP7 PUSH2 0x1385 JUMP JUMPDEST PUSH1 0x0 DUP1 DUP4 DUP1 PUSH1 0x20 ADD SWAP1 MLOAD DUP2 ADD SWAP1 PUSH2 0x1BAF SWAP2 SWAP1 PUSH2 0x2A67 JUMP JUMPDEST PUSH1 0x40 DUP1 MLOAD PUSH1 0xC0 DUP2 ADD DUP3 MSTORE DUP4 DUP2 MSTORE PUSH1 0x0 PUSH1 0x20 DUP1 DUP4 ADD DUP3 SWAP1 MSTORE PUSH1 0x1 PUSH1 0x1 PUSH1 0xA0 SHL SUB DUP1 DUP16 AND DUP5 DUP7 ADD MSTORE DUP14 DUP2 AND PUSH1 0x60 DUP1 DUP7 ADD SWAP2 SWAP1 SWAP2 MSTORE PUSH1 0x80 DUP1 DUP7 ADD DUP16 SWAP1 MSTORE PUSH1 0xA0 DUP7 ADD DUP9 SWAP1 MSTORE DUP7 MLOAD SWAP1 DUP2 ADD DUP8 MSTORE ADDRESS DUP1 DUP3 MSTORE SWAP4 DUP2 ADD DUP6 SWAP1 MSTORE DUP1 DUP8 ADD SWAP4 SWAP1 SWAP4 MSTORE DUP3 ADD SWAP3 SWAP1 SWAP3 MSTORE SWAP3 MLOAD PUSH4 0x52BBBE29 PUSH1 0xE0 SHL DUP2 MSTORE SWAP5 SWAP7 POP SWAP3 SWAP5 POP SWAP3 SWAP1 SWAP2 PUSH32 0x0 AND SWAP1 PUSH4 0x52BBBE29 SWAP1 PUSH2 0x1C60 SWAP1 DUP6 SWAP1 DUP6 SWAP1 DUP13 SWAP1 TIMESTAMP SWAP1 PUSH1 0x4 ADD PUSH2 0x2AAE JUMP JUMPDEST PUSH1 0x20 PUSH1 0x40 MLOAD DUP1 DUP4 SUB DUP2 PUSH1 0x0 DUP8 GAS CALL ISZERO DUP1 ISZERO PUSH2 0x1C7F JUMPI RETURNDATASIZE PUSH1 0x0 DUP1 RETURNDATACOPY RETURNDATASIZE PUSH1 0x0 REVERT JUMPDEST POP POP POP POP PUSH1 0x40 MLOAD RETURNDATASIZE PUSH1 0x1F NOT PUSH1 0x1F DUP3 ADD AND DUP3 ADD DUP1 PUSH1 0x40 MSTORE POP DUP2 ADD SWAP1 PUSH2 0x1CA3 SWAP2 SWAP1 PUSH2 0x20DA JUMP JUMPDEST SWAP5 POP POP POP POP POP PUSH2 0x1CC7 JUMP JUMPDEST PUSH1 0x40 MLOAD PUSH4 0xE523909 PUSH1 0xE4 SHL DUP2 MSTORE PUSH1 0x4 ADD PUSH1 0x40 MLOAD DUP1 SWAP2 SUB SWAP1 REVERT JUMPDEST DUP3 DUP2 LT ISZERO PUSH2 0xBBA JUMPI PUSH1 0x40 MLOAD PUSH4 0x2723FC75 PUSH1 0xE1 SHL DUP2 MSTORE PUSH1 0x4 ADD PUSH1 0x40 MLOAD DUP1 SWAP2 SUB SWAP1 REVERT JUMPDEST PUSH1 0x40 MLOAD PUSH1 0x1 PUSH1 0x1 PUSH1 0xA0 SHL SUB DUP4 DUP2 AND PUSH1 0x24 DUP4 ADD MSTORE PUSH1 0x44 DUP3 ADD DUP4 SWAP1 MSTORE PUSH2 0x1219 SWAP2 DUP6 SWAP2 DUP3 AND SWAP1 PUSH4 0xA9059CBB SWAP1 PUSH1 0x64 ADD PUSH2 0x1407 JUMP JUMPDEST PUSH1 0x1 DUP1 SLOAD PUSH1 0x1 PUSH1 0x1 PUSH1 0xA0 SHL SUB NOT AND SWAP1 SSTORE PUSH2 0xF76 DUP2 PUSH2 0x1E34 JUMP JUMPDEST PUSH1 0x3 SLOAD PUSH1 0xFF AND ISZERO PUSH2 0xC93 JUMPI PUSH1 0x40 MLOAD PUSH4 0xD93C0665 PUSH1 0xE0 SHL DUP2 MSTORE PUSH1 0x4 ADD PUSH1 0x40 MLOAD DUP1 SWAP2 SUB SWAP1 REVERT JUMPDEST PUSH1 0x0 DUP1 PUSH1 0x0 DUP1 PUSH1 0x20 PUSH1 0x0 DUP7 MLOAD PUSH1 0x20 DUP9 ADD PUSH1 0x0 DUP11 GAS CALL SWAP3 POP RETURNDATASIZE SWAP2 POP PUSH1 0x0 MLOAD SWAP1 POP DUP3 DUP1 ISZERO PUSH2 0xBBA JUMPI POP DUP2 ISZERO PUSH2 0x1D8C JUMPI DUP1 PUSH1 0x1 EQ PUSH2 0xBBA JUMP JUMPDEST POP POP POP POP POP PUSH1 0x1 PUSH1 0x1 PUSH1 0xA0 SHL SUB AND EXTCODESIZE ISZERO ISZERO SWAP1 JUMP JUMPDEST PUSH1 0x0 DUP1 PUSH1 0x20 PUSH1 0x0 DUP5 MLOAD PUSH1 0x20 DUP7 ADD PUSH1 0x0 DUP9 GAS CALL DUP1 PUSH2 0x1DC3 JUMPI PUSH1 0x40 MLOAD RETURNDATASIZE PUSH1 0x0 DUP3 RETURNDATACOPY RETURNDATASIZE DUP2 REVERT JUMPDEST POP POP PUSH1 0x0 MLOAD RETURNDATASIZE SWAP2 POP DUP2 ISZERO PUSH2 0x1DDB JUMPI DUP1 PUSH1 0x1 EQ ISZERO PUSH2 0x1DE8 JUMP JUMPDEST PUSH1 0x1 PUSH1 0x1 PUSH1 0xA0 SHL SUB DUP5 AND EXTCODESIZE ISZERO JUMPDEST ISZERO PUSH2 0x1443 JUMPI PUSH1 0x40 MLOAD PUSH4 0x5274AFE7 PUSH1 0xE0 SHL DUP2 MSTORE PUSH1 0x1 PUSH1 0x1 PUSH1 0xA0 SHL SUB DUP6 AND PUSH1 0x4 DUP3 ADD MSTORE PUSH1 0x24 ADD PUSH2 0xF64 JUMP JUMPDEST PUSH1 0x3 SLOAD PUSH1 0xFF AND PUSH2 0xC93 JUMPI PUSH1 0x40 MLOAD PUSH4 0x8DFC202B PUSH1 0xE0 SHL DUP2 MSTORE PUSH1 0x4 ADD PUSH1 0x40 MLOAD DUP1 SWAP2 SUB SWAP1 REVERT JUMPDEST PUSH1 0x0 DUP1 SLOAD PUSH1 0x1 PUSH1 0x1 PUSH1 0xA0 SHL SUB DUP4 DUP2 AND PUSH1 0x1 PUSH1 0x1 PUSH1 0xA0 SHL SUB NOT DUP4 AND DUP2 OR DUP5 SSTORE PUSH1 0x40 MLOAD SWAP2 SWAP1 SWAP3 AND SWAP3 DUP4 SWAP2 PUSH32 0x8BE0079C531659141344CD1FD0A4F28419497F9722A3DAAFE3B4186F6B6457E0 SWAP2 SWAP1 LOG3 POP POP JUMP JUMPDEST PUSH1 0x1 PUSH1 0x1 PUSH1 0xA0 SHL SUB DUP2 AND DUP2 EQ PUSH2 0xF76 JUMPI PUSH1 0x0 DUP1 REVERT JUMPDEST PUSH1 0x0 DUP1 DUP4 PUSH1 0x1F DUP5 ADD SLT PUSH2 0x1EAB JUMPI PUSH1 0x0 DUP1 REVERT JUMPDEST POP DUP2 CALLDATALOAD PUSH8 0xFFFFFFFFFFFFFFFF DUP2 GT ISZERO PUSH2 0x1EC3 JUMPI PUSH1 0x0 DUP1 REVERT JUMPDEST PUSH1 0x20 DUP4 ADD SWAP2 POP DUP4 PUSH1 0x20 DUP3 DUP6 ADD ADD GT ISZERO PUSH2 0x1EDB JUMPI PUSH1 0x0 DUP1 REVERT JUMPDEST SWAP3 POP SWAP3 SWAP1 POP JUMP JUMPDEST PUSH1 0x0 DUP1 PUSH1 0x0 DUP1 PUSH1 0x0 DUP1 PUSH1 0xA0 DUP8 DUP10 SUB SLT ISZERO PUSH2 0x1EFB JUMPI PUSH1 0x0 DUP1 REVERT JUMPDEST DUP7 CALLDATALOAD PUSH2 0x1F06 DUP2 PUSH2 0x1E84 JUMP JUMPDEST SWAP6 POP PUSH1 0x20 DUP8 ADD CALLDATALOAD SWAP5 POP PUSH1 0x40 DUP8 ADD CALLDATALOAD SWAP4 POP PUSH1 0x60 DUP8 ADD CALLDATALOAD PUSH2 0x1F24 DUP2 PUSH2 0x1E84 JUMP JUMPDEST SWAP3 POP PUSH1 0x80 DUP8 ADD CALLDATALOAD PUSH8 0xFFFFFFFFFFFFFFFF DUP2 GT ISZERO PUSH2 0x1F40 JUMPI PUSH1 0x0 DUP1 REVERT JUMPDEST PUSH2 0x1F4C DUP10 DUP3 DUP11 ADD PUSH2 0x1E99 JUMP JUMPDEST SWAP8 SWAP11 SWAP7 SWAP10 POP SWAP5 SWAP8 POP SWAP3 SWAP6 SWAP4 SWAP5 SWAP3 POP POP POP JUMP JUMPDEST PUSH1 0x0 DUP1 PUSH1 0x0 PUSH1 0x60 DUP5 DUP7 SUB SLT ISZERO PUSH2 0x1F73 JUMPI PUSH1 0x0 DUP1 REVERT JUMPDEST DUP4 CALLDATALOAD PUSH2 0x1F7E DUP2 PUSH2 0x1E84 JUMP JUMPDEST SWAP3 POP PUSH1 0x20 DUP5 ADD CALLDATALOAD PUSH2 0x1F8E DUP2 PUSH2 0x1E84 JUMP JUMPDEST SWAP2 POP PUSH1 0x40 DUP5 ADD CALLDATALOAD PUSH2 0x1F9E DUP2 PUSH2 0x1E84 JUMP JUMPDEST DUP1 SWAP2 POP POP SWAP3 POP SWAP3 POP SWAP3 JUMP JUMPDEST PUSH1 0x0 PUSH1 0x20 DUP3 DUP5 SUB SLT ISZERO PUSH2 0x1FBB JUMPI PUSH1 0x0 DUP1 REVERT JUMPDEST DUP2 CALLDATALOAD PUSH2 0x1FC6 DUP2 PUSH2 0x1E84 JUMP JUMPDEST SWAP4 SWAP3 POP POP POP JUMP JUMPDEST PUSH1 0x0 DUP1 PUSH1 0x40 DUP4 DUP6 SUB SLT ISZERO PUSH2 0x1FE0 JUMPI PUSH1 0x0 DUP1 REVERT JUMPDEST DUP3 CALLDATALOAD PUSH2 0x1FEB DUP2 PUSH2 0x1E84 JUMP JUMPDEST SWAP2 POP PUSH1 0x20 DUP4 ADD CALLDATALOAD DUP1 ISZERO ISZERO DUP2 EQ PUSH2 0x2000 JUMPI PUSH1 0x0 DUP1 REVERT JUMPDEST DUP1 SWAP2 POP POP SWAP3 POP SWAP3 SWAP1 POP JUMP JUMPDEST PUSH1 0x0 DUP1 PUSH1 0x40 DUP4 DUP6 SUB SLT ISZERO PUSH2 0x201E JUMPI PUSH1 0x0 DUP1 REVERT JUMPDEST DUP3 CALLDATALOAD PUSH2 0x2029 DUP2 PUSH2 0x1E84 JUMP JUMPDEST SWAP2 POP PUSH1 0x20 DUP4 ADD CALLDATALOAD PUSH2 0x2000 DUP2 PUSH2 0x1E84 JUMP JUMPDEST PUSH1 0x0 DUP1 PUSH1 0x0 DUP1 PUSH1 0x60 DUP6 DUP8 SUB SLT ISZERO PUSH2 0x204F JUMPI PUSH1 0x0 DUP1 REVERT JUMPDEST DUP5 CALLDATALOAD PUSH2 0x205A DUP2 PUSH2 0x1E84 JUMP JUMPDEST SWAP4 POP PUSH1 0x20 DUP6 ADD CALLDATALOAD SWAP3 POP PUSH1 0x40 DUP6 ADD CALLDATALOAD PUSH8 0xFFFFFFFFFFFFFFFF DUP2 GT ISZERO PUSH2 0x207D JUMPI PUSH1 0x0 DUP1 REVERT JUMPDEST PUSH2 0x2089 DUP8 DUP3 DUP9 ADD PUSH2 0x1E99 JUMP JUMPDEST SWAP6 SWAP9 SWAP5 SWAP8 POP SWAP6 POP POP POP POP JUMP JUMPDEST PUSH1 0x0 PUSH1 0x20 DUP3 DUP5 SUB SLT ISZERO PUSH2 0x20A7 JUMPI PUSH1 0x0 DUP1 REVERT JUMPDEST POP CALLDATALOAD SWAP2 SWAP1 POP JUMP JUMPDEST PUSH1 0x0 DUP1 PUSH1 0x40 DUP4 DUP6 SUB SLT ISZERO PUSH2 0x20C1 JUMPI PUSH1 0x0 DUP1 REVERT JUMPDEST DUP3 CALLDATALOAD PUSH2 0x20CC DUP2 PUSH2 0x1E84 JUMP JUMPDEST SWAP5 PUSH1 0x20 SWAP4 SWAP1 SWAP4 ADD CALLDATALOAD SWAP4 POP POP POP JUMP JUMPDEST PUSH1 0x0 PUSH1 0x20 DUP3 DUP5 SUB SLT ISZERO PUSH2 0x20EC JUMPI PUSH1 0x0 DUP1 REVERT JUMPDEST POP MLOAD SWAP2 SWAP1 POP JUMP JUMPDEST DUP2 DUP4 MSTORE DUP2 DUP2 PUSH1 0x20 DUP6 ADD CALLDATACOPY POP PUSH1 0x0 DUP3 DUP3 ADD PUSH1 0x20 SWAP1 DUP2 ADD SWAP2 SWAP1 SWAP2 MSTORE PUSH1 0x1F SWAP1 SWAP2 ADD PUSH1 0x1F NOT AND SWAP1 SWAP2 ADD ADD SWAP1 JUMP JUMPDEST PUSH1 0x1 DUP1 PUSH1 0xA0 SHL SUB DUP6 AND DUP2 MSTORE DUP4 PUSH1 0x20 DUP3 ADD MSTORE PUSH1 0x60 PUSH1 0x40 DUP3 ADD MSTORE PUSH1 0x0 PUSH2 0xBBA PUSH1 0x60 DUP4 ADD DUP5 DUP7 PUSH2 0x20F3 JUMP JUMPDEST PUSH1 0x0 PUSH1 0x3 RETURNDATASIZE GT ISZERO PUSH2 0x215D JUMPI PUSH1 0x4 PUSH1 0x0 DUP1 RETURNDATACOPY POP PUSH1 0x0 MLOAD PUSH1 0xE0 SHR JUMPDEST SWAP1 JUMP JUMPDEST PUSH4 0x4E487B71 PUSH1 0xE0 SHL PUSH1 0x0 MSTORE PUSH1 0x41 PUSH1 0x4 MSTORE PUSH1 0x24 PUSH1 0x0 REVERT JUMPDEST PUSH1 0x1F DUP3 ADD PUSH1 0x1F NOT AND DUP2 ADD PUSH8 0xFFFFFFFFFFFFFFFF DUP2 GT DUP3 DUP3 LT OR ISZERO PUSH2 0x219C JUMPI PUSH2 0x219C PUSH2 0x2160 JUMP JUMPDEST PUSH1 0x40 MSTORE POP POP JUMP JUMPDEST PUSH1 0x0 PUSH1 0x44 RETURNDATASIZE LT ISZERO PUSH2 0x21B1 JUMPI SWAP1 JUMP JUMPDEST PUSH1 0x40 MLOAD PUSH1 0x3 NOT RETURNDATASIZE DUP2 ADD PUSH1 0x4 DUP4 RETURNDATACOPY DUP2 MLOAD RETURNDATASIZE PUSH8 0xFFFFFFFFFFFFFFFF DUP2 PUSH1 0x24 DUP5 ADD GT DUP2 DUP5 GT OR ISZERO PUSH2 0x21E1 JUMPI POP POP POP POP POP SWAP1 JUMP JUMPDEST DUP3 DUP6 ADD SWAP2 POP DUP2 MLOAD DUP2 DUP2 GT ISZERO PUSH2 0x21F9 JUMPI POP POP POP POP POP POP SWAP1 JUMP JUMPDEST DUP5 RETURNDATASIZE DUP8 ADD ADD PUSH1 0x20 DUP3 DUP6 ADD ADD GT ISZERO PUSH2 0x2213 JUMPI POP POP POP POP POP POP SWAP1 JUMP JUMPDEST PUSH2 0x2222 PUSH1 0x20 DUP3 DUP7 ADD ADD DUP8 PUSH2 0x2176 JUMP JUMPDEST POP SWAP1 SWAP6 SWAP5 POP POP POP POP POP JUMP JUMPDEST PUSH1 0x0 JUMPDEST DUP4 DUP2 LT ISZERO PUSH2 0x2248 JUMPI DUP2 DUP2 ADD MLOAD DUP4 DUP3 ADD MSTORE PUSH1 0x20 ADD PUSH2 0x2230 JUMP JUMPDEST POP POP PUSH1 0x0 SWAP2 ADD MSTORE JUMP JUMPDEST PUSH1 0x0 DUP2 MLOAD DUP1 DUP5 MSTORE PUSH2 0x2269 DUP2 PUSH1 0x20 DUP7 ADD PUSH1 0x20 DUP7 ADD PUSH2 0x222D JUMP JUMPDEST PUSH1 0x1F ADD PUSH1 0x1F NOT AND SWAP3 SWAP1 SWAP3 ADD PUSH1 0x20 ADD SWAP3 SWAP2 POP POP JUMP JUMPDEST DUP3 DUP2 MSTORE PUSH1 0x40 PUSH1 0x20 DUP3 ADD MSTORE PUSH1 0x0 PUSH2 0x2296 PUSH1 0x40 DUP4 ADD DUP5 PUSH2 0x2251 JUMP JUMPDEST SWAP5 SWAP4 POP POP POP POP JUMP JUMPDEST PUSH4 0x4E487B71 PUSH1 0xE0 SHL PUSH1 0x0 MSTORE PUSH1 0x11 PUSH1 0x4 MSTORE PUSH1 0x24 PUSH1 0x0 REVERT JUMPDEST DUP1 DUP3 ADD DUP1 DUP3 GT ISZERO PUSH2 0x1325 JUMPI PUSH2 0x1325 PUSH2 0x229E JUMP JUMPDEST DUP2 DUP2 SUB DUP2 DUP2 GT ISZERO PUSH2 0x1325 JUMPI PUSH2 0x1325 PUSH2 0x229E JUMP JUMPDEST DUP1 DUP3 MUL DUP2 ISZERO DUP3 DUP3 DIV DUP5 EQ OR PUSH2 0x1325 JUMPI PUSH2 0x1325 PUSH2 0x229E JUMP JUMPDEST PUSH1 0x0 DUP3 PUSH2 0x230E JUMPI PUSH4 0x4E487B71 PUSH1 0xE0 SHL PUSH1 0x0 MSTORE PUSH1 0x12 PUSH1 0x4 MSTORE PUSH1 0x24 PUSH1 0x0 REVERT JUMPDEST POP DIV SWAP1 JUMP JUMPDEST PUSH1 0x0 PUSH1 0x1 DUP3 ADD PUSH2 0x2325 JUMPI PUSH2 0x2325 PUSH2 0x229E JUMP JUMPDEST POP PUSH1 0x1 ADD SWAP1 JUMP JUMPDEST PUSH1 0x0 PUSH8 0xFFFFFFFFFFFFFFFF DUP3 GT ISZERO PUSH2 0x2346 JUMPI PUSH2 0x2346 PUSH2 0x2160 JUMP JUMPDEST POP PUSH1 0x5 SHL PUSH1 0x20 ADD SWAP1 JUMP JUMPDEST PUSH1 0x0 PUSH8 0xFFFFFFFFFFFFFFFF DUP3 GT ISZERO PUSH2 0x236A JUMPI PUSH2 0x236A PUSH2 0x2160 JUMP JUMPDEST POP PUSH1 0x1F ADD PUSH1 0x1F NOT AND PUSH1 0x20 ADD SWAP1 JUMP JUMPDEST PUSH1 0x0 PUSH2 0x2383 DUP4 PUSH2 0x2350 JUMP JUMPDEST PUSH1 0x40 MLOAD PUSH2 0x2390 DUP3 DUP3 PUSH2 0x2176 JUMP JUMPDEST DUP1 SWAP3 POP DUP5 DUP2 MSTORE DUP6 DUP6 DUP6 ADD GT ISZERO PUSH2 0x23A5 JUMPI PUSH1 0x0 DUP1 REVERT JUMPDEST DUP5 DUP5 PUSH1 0x20 DUP4 ADD CALLDATACOPY PUSH1 0x0 PUSH1 0x20 DUP7 DUP4 ADD ADD MSTORE POP POP SWAP4 SWAP3 POP POP POP JUMP JUMPDEST PUSH1 0x0 DUP3 PUSH1 0x1F DUP4 ADD SLT PUSH2 0x23CF JUMPI PUSH1 0x0 DUP1 REVERT JUMPDEST DUP2 CALLDATALOAD PUSH1 0x20 PUSH2 0x23DC DUP3 PUSH2 0x232C JUMP JUMPDEST PUSH1 0x40 MLOAD PUSH2 0x23E9 DUP3 DUP3 PUSH2 0x2176 JUMP JUMPDEST DUP4 DUP2 MSTORE PUSH1 0x5 SWAP4 SWAP1 SWAP4 SHL DUP6 ADD DUP3 ADD SWAP3 DUP3 DUP2 ADD SWAP2 POP DUP7 DUP5 GT ISZERO PUSH2 0x2409 JUMPI PUSH1 0x0 DUP1 REVERT JUMPDEST DUP3 DUP7 ADD JUMPDEST DUP5 DUP2 LT ISZERO PUSH2 0x2424 JUMPI DUP1 CALLDATALOAD DUP4 MSTORE SWAP2 DUP4 ADD SWAP2 DUP4 ADD PUSH2 0x240D JUMP JUMPDEST POP SWAP7 SWAP6 POP POP POP POP POP POP JUMP JUMPDEST PUSH1 0x0 DUP3 PUSH1 0x1F DUP4 ADD SLT PUSH2 0x2440 JUMPI PUSH1 0x0 DUP1 REVERT JUMPDEST DUP2 CALLDATALOAD PUSH1 0x20 PUSH2 0x244D DUP3 PUSH2 0x232C JUMP JUMPDEST PUSH1 0x40 MLOAD PUSH2 0x245A DUP3 DUP3 PUSH2 0x2176 JUMP JUMPDEST DUP4 DUP2 MSTORE PUSH1 0x5 SWAP4 SWAP1 SWAP4 SHL DUP6 ADD DUP3 ADD SWAP3 DUP3 DUP2 ADD SWAP2 POP DUP7 DUP5 GT ISZERO PUSH2 0x247A JUMPI PUSH1 0x0 DUP1 REVERT JUMPDEST DUP3 DUP7 ADD JUMPDEST DUP5 DUP2 LT ISZERO PUSH2 0x2424 JUMPI DUP1 CALLDATALOAD PUSH2 0x2491 DUP2 PUSH2 0x1E84 JUMP JUMPDEST DUP4 MSTORE SWAP2 DUP4 ADD SWAP2 DUP4 ADD PUSH2 0x247E JUMP JUMPDEST PUSH1 0x0 DUP3 PUSH1 0x1F DUP4 ADD SLT PUSH2 0x24AF JUMPI PUSH1 0x0 DUP1 REVERT JUMPDEST DUP2 CALLDATALOAD PUSH1 0x20 PUSH2 0x24BC DUP3 PUSH2 0x232C JUMP JUMPDEST PUSH1 0x40 DUP1 MLOAD PUSH2 0x24CA DUP4 DUP3 PUSH2 0x2176 JUMP JUMPDEST DUP5 DUP2 MSTORE PUSH1 0x5 SWAP5 SWAP1 SWAP5 SHL DUP7 ADD DUP4 ADD SWAP4 DUP4 DUP2 ADD SWAP3 POP DUP8 DUP6 GT ISZERO PUSH2 0x24EA JUMPI PUSH1 0x0 DUP1 REVERT JUMPDEST DUP4 DUP8 ADD JUMPDEST DUP6 DUP2 LT ISZERO PUSH2 0x253E JUMPI DUP1 CALLDATALOAD PUSH8 0xFFFFFFFFFFFFFFFF DUP2 GT ISZERO PUSH2 0x250E JUMPI PUSH1 0x0 DUP1 DUP2 REVERT JUMPDEST DUP9 ADD PUSH1 0x3F DUP2 ADD DUP11 SGT PUSH2 0x2520 JUMPI PUSH1 0x0 DUP1 DUP2 REVERT JUMPDEST PUSH2 0x2530 DUP11 DUP8 DUP4 ADD CALLDATALOAD DUP7 DUP5 ADD PUSH2 0x2378 JUMP JUMPDEST DUP6 MSTORE POP SWAP3 DUP5 ADD SWAP3 DUP5 ADD PUSH2 0x24EE JUMP JUMPDEST POP SWAP8 SWAP7 POP POP POP POP POP POP POP JUMP JUMPDEST PUSH1 0x0 DUP1 PUSH1 0x0 DUP1 PUSH1 0x80 DUP6 DUP8 SUB SLT ISZERO PUSH2 0x2560 JUMPI PUSH1 0x0 DUP1 REVERT JUMPDEST DUP5 CALLDATALOAD PUSH8 0xFFFFFFFFFFFFFFFF DUP1 DUP3 GT ISZERO PUSH2 0x2578 JUMPI PUSH1 0x0 DUP1 REVERT JUMPDEST DUP2 DUP8 ADD SWAP2 POP DUP8 PUSH1 0x1F DUP4 ADD SLT PUSH2 0x258C JUMPI PUSH1 0x0 DUP1 REVERT JUMPDEST DUP2 CALLDATALOAD PUSH1 0x20 PUSH2 0x2599 DUP3 PUSH2 0x232C JUMP JUMPDEST PUSH1 0x40 DUP1 MLOAD PUSH2 0x25A7 DUP4 DUP3 PUSH2 0x2176 JUMP JUMPDEST DUP5 DUP2 MSTORE PUSH1 0x5 SWAP5 SWAP1 SWAP5 SHL DUP7 ADD DUP4 ADD SWAP4 DUP4 DUP2 ADD SWAP3 POP DUP13 DUP6 GT ISZERO PUSH2 0x25C7 JUMPI PUSH1 0x0 DUP1 REVERT JUMPDEST DUP4 DUP8 ADD JUMPDEST DUP6 DUP2 LT ISZERO PUSH2 0x2613 JUMPI DUP1 CALLDATALOAD DUP8 DUP2 GT ISZERO PUSH2 0x25E3 JUMPI PUSH1 0x0 DUP1 DUP2 REVERT JUMPDEST DUP9 ADD PUSH1 0x3F DUP2 ADD DUP16 SGT PUSH2 0x25F5 JUMPI PUSH1 0x0 DUP1 DUP2 REVERT JUMPDEST PUSH2 0x2605 DUP16 DUP8 DUP4 ADD CALLDATALOAD DUP7 DUP5 ADD PUSH2 0x2378 JUMP JUMPDEST DUP6 MSTORE POP SWAP3 DUP5 ADD SWAP3 DUP5 ADD PUSH2 0x25CB JUMP JUMPDEST POP SWAP10 POP DUP11 DUP4 ADD CALLDATALOAD SWAP6 POP DUP5 DUP7 GT ISZERO PUSH2 0x2629 JUMPI PUSH1 0x0 DUP1 REVERT JUMPDEST PUSH2 0x2635 DUP13 DUP8 DUP14 ADD PUSH2 0x23BE JUMP JUMPDEST SWAP9 POP DUP11 ADD CALLDATALOAD SWAP5 POP POP POP POP DUP1 DUP3 GT ISZERO PUSH2 0x264C JUMPI PUSH1 0x0 DUP1 REVERT JUMPDEST PUSH2 0x2658 DUP9 DUP4 DUP10 ADD PUSH2 0x242F JUMP JUMPDEST SWAP4 POP PUSH1 0x60 DUP8 ADD CALLDATALOAD SWAP2 POP DUP1 DUP3 GT ISZERO PUSH2 0x266E JUMPI PUSH1 0x0 DUP1 REVERT JUMPDEST POP PUSH2 0x267B DUP8 DUP3 DUP9 ADD PUSH2 0x249E JUMP JUMPDEST SWAP2 POP POP SWAP3 SWAP6 SWAP2 SWAP5 POP SWAP3 POP JUMP JUMPDEST PUSH1 0x0 PUSH1 0x80 DUP3 ADD DUP7 DUP4 MSTORE PUSH1 0x20 DUP7 DUP2 DUP6 ADD MSTORE PUSH1 0x80 PUSH1 0x40 DUP6 ADD MSTORE DUP2 DUP7 MLOAD DUP1 DUP5 MSTORE PUSH1 0xA0 DUP7 ADD SWAP2 POP PUSH1 0xA0 DUP2 PUSH1 0x5 SHL DUP8 ADD ADD SWAP4 POP DUP3 DUP9 ADD PUSH1 0x0 JUMPDEST DUP3 DUP2 LT ISZERO PUSH2 0x26E9 JUMPI PUSH1 0x9F NOT DUP9 DUP8 SUB ADD DUP5 MSTORE PUSH2 0x26D7 DUP7 DUP4 MLOAD PUSH2 0x2251 JUMP JUMPDEST SWAP6 POP SWAP3 DUP5 ADD SWAP3 SWAP1 DUP5 ADD SWAP1 PUSH1 0x1 ADD PUSH2 0x26BB JUMP JUMPDEST POP POP POP POP POP PUSH1 0x60 SWAP3 SWAP1 SWAP3 ADD SWAP3 SWAP1 SWAP3 MSTORE SWAP5 SWAP4 POP POP POP POP JUMP JUMPDEST PUSH4 0x4E487B71 PUSH1 0xE0 SHL PUSH1 0x0 MSTORE PUSH1 0x32 PUSH1 0x4 MSTORE PUSH1 0x24 PUSH1 0x0 REVERT JUMPDEST PUSH1 0x1 PUSH1 0x1 PUSH1 0xA0 SHL SUB DUP8 DUP2 AND DUP3 MSTORE DUP7 AND PUSH1 0x20 DUP3 ADD MSTORE PUSH1 0x40 DUP2 ADD DUP6 SWAP1 MSTORE PUSH1 0xA0 PUSH1 0x60 DUP3 ADD DUP2 SWAP1 MSTORE PUSH1 0x0 SWAP1 PUSH2 0x274A SWAP1 DUP4 ADD DUP6 DUP8 PUSH2 0x20F3 JUMP JUMPDEST SWAP1 POP PUSH2 0xFFFF DUP4 AND PUSH1 0x80 DUP4 ADD MSTORE SWAP8 SWAP7 POP POP POP POP POP POP POP JUMP JUMPDEST PUSH1 0x0 DUP1 PUSH1 0x40 DUP4 DUP6 SUB SLT ISZERO PUSH2 0x2774 JUMPI PUSH1 0x0 DUP1 REVERT JUMPDEST DUP3 MLOAD PUSH3 0xFFFFFF DUP2 AND DUP2 EQ PUSH2 0x2787 JUMPI PUSH1 0x0 DUP1 REVERT JUMPDEST PUSH1 0x20 DUP5 ADD MLOAD SWAP1 SWAP3 POP PUSH2 0x2000 DUP2 PUSH2 0x1E84 JUMP JUMPDEST PUSH1 0x0 PUSH1 0xA0 DUP3 ADD DUP8 DUP4 MSTORE PUSH1 0x20 DUP8 DUP2 DUP6 ADD MSTORE PUSH1 0xA0 PUSH1 0x40 DUP6 ADD MSTORE DUP2 DUP8 MLOAD DUP1 DUP5 MSTORE PUSH1 0xC0 DUP7 ADD SWAP2 POP DUP3 DUP10 ADD SWAP4 POP PUSH1 0x0 JUMPDEST DUP2 DUP2 LT ISZERO PUSH2 0x27E8 JUMPI DUP5 MLOAD PUSH1 0x1 PUSH1 0x1 PUSH1 0xA0 SHL SUB AND DUP4 MSTORE SWAP4 DUP4 ADD SWAP4 SWAP2 DUP4 ADD SWAP2 PUSH1 0x1 ADD PUSH2 0x27C3 JUMP JUMPDEST POP POP PUSH1 0x1 PUSH1 0x1 PUSH1 0xA0 SHL SUB SWAP7 SWAP1 SWAP7 AND PUSH1 0x60 DUP6 ADD MSTORE POP POP POP PUSH1 0x80 ADD MSTORE SWAP4 SWAP3 POP POP POP JUMP JUMPDEST PUSH1 0x0 PUSH1 0x20 DUP1 DUP4 DUP6 SUB SLT ISZERO PUSH2 0x281C JUMPI PUSH1 0x0 DUP1 REVERT JUMPDEST DUP3 MLOAD PUSH8 0xFFFFFFFFFFFFFFFF DUP2 GT ISZERO PUSH2 0x2833 JUMPI PUSH1 0x0 DUP1 REVERT JUMPDEST DUP4 ADD PUSH1 0x1F DUP2 ADD DUP6 SGT PUSH2 0x2844 JUMPI PUSH1 0x0 DUP1 REVERT JUMPDEST DUP1 MLOAD PUSH2 0x284F DUP2 PUSH2 0x232C JUMP JUMPDEST PUSH1 0x40 MLOAD PUSH2 0x285C DUP3 DUP3 PUSH2 0x2176 JUMP JUMPDEST DUP3 DUP2 MSTORE PUSH1 0x5 SWAP3 SWAP1 SWAP3 SHL DUP4 ADD DUP5 ADD SWAP2 DUP5 DUP2 ADD SWAP2 POP DUP8 DUP4 GT ISZERO PUSH2 0x287C JUMPI PUSH1 0x0 DUP1 REVERT JUMPDEST SWAP3 DUP5 ADD SWAP3 JUMPDEST DUP3 DUP5 LT ISZERO PUSH2 0x289A JUMPI DUP4 MLOAD DUP3 MSTORE SWAP3 DUP5 ADD SWAP3 SWAP1 DUP5 ADD SWAP1 PUSH2 0x2881 JUMP JUMPDEST SWAP8 SWAP7 POP POP POP POP POP POP POP JUMP JUMPDEST DUP1 MLOAD PUSH1 0xF DUP2 SWAP1 SIGNEXTEND DUP2 EQ PUSH2 0x28B7 JUMPI PUSH1 0x0 DUP1 REVERT JUMPDEST SWAP2 SWAP1 POP JUMP JUMPDEST PUSH1 0x0 DUP1 PUSH1 0x40 DUP4 DUP6 SUB SLT ISZERO PUSH2 0x28CF JUMPI PUSH1 0x0 DUP1 REVERT JUMPDEST PUSH2 0x28D8 DUP4 PUSH2 0x28A5 JUMP JUMPDEST SWAP2 POP PUSH2 0x28E6 PUSH1 0x20 DUP5 ADD PUSH2 0x28A5 JUMP JUMPDEST SWAP1 POP SWAP3 POP SWAP3 SWAP1 POP JUMP JUMPDEST PUSH1 0x0 DUP3 PUSH1 0x1F DUP4 ADD SLT PUSH2 0x2900 JUMPI PUSH1 0x0 DUP1 REVERT JUMPDEST DUP2 MLOAD PUSH2 0x290B DUP2 PUSH2 0x2350 JUMP JUMPDEST PUSH1 0x40 MLOAD PUSH2 0x2918 DUP3 DUP3 PUSH2 0x2176 JUMP JUMPDEST DUP3 DUP2 MSTORE DUP6 PUSH1 0x20 DUP5 DUP8 ADD ADD GT ISZERO PUSH2 0x292D JUMPI PUSH1 0x0 DUP1 REVERT JUMPDEST PUSH2 0x293E DUP4 PUSH1 0x20 DUP4 ADD PUSH1 0x20 DUP9 ADD PUSH2 0x222D JUMP JUMPDEST SWAP6 SWAP5 POP POP POP POP POP JUMP JUMPDEST PUSH1 0x0 DUP1 PUSH1 0x0 PUSH1 0x60 DUP5 DUP7 SUB SLT ISZERO PUSH2 0x295C JUMPI PUSH1 0x0 DUP1 REVERT JUMPDEST DUP4 MLOAD PUSH2 0x2967 DUP2 PUSH2 0x1E84 JUMP JUMPDEST PUSH1 0x20 DUP6 ADD MLOAD SWAP1 SWAP4 POP PUSH8 0xFFFFFFFFFFFFFFFF DUP1 DUP3 GT ISZERO PUSH2 0x2985 JUMPI PUSH1 0x0 DUP1 REVERT JUMPDEST PUSH2 0x2991 DUP8 DUP4 DUP9 ADD PUSH2 0x28EF JUMP JUMPDEST SWAP4 POP PUSH1 0x40 DUP7 ADD MLOAD SWAP2 POP DUP1 DUP3 GT ISZERO PUSH2 0x29A7 JUMPI PUSH1 0x0 DUP1 REVERT JUMPDEST POP PUSH2 0x29B4 DUP7 DUP3 DUP8 ADD PUSH2 0x28EF JUMP JUMPDEST SWAP2 POP POP SWAP3 POP SWAP3 POP SWAP3 JUMP JUMPDEST PUSH1 0x0 PUSH2 0x140 PUSH1 0x1 DUP1 PUSH1 0xA0 SHL SUB DUP1 DUP9 AND DUP5 MSTORE DUP1 DUP8 MLOAD AND PUSH1 0x20 DUP6 ADD MSTORE DUP1 PUSH1 0x20 DUP9 ADD MLOAD AND PUSH1 0x40 DUP6 ADD MSTORE DUP1 PUSH1 0x40 DUP9 ADD MLOAD AND PUSH1 0x60 DUP6 ADD MSTORE DUP1 PUSH1 0x60 DUP9 ADD MLOAD AND PUSH1 0x80 DUP6 ADD MSTORE POP PUSH1 0x80 DUP7 ADD MLOAD PUSH1 0xA0 DUP5 ADD MSTORE PUSH1 0xA0 DUP7 ADD MLOAD PUSH1 0xC0 DUP5 ADD MSTORE PUSH1 0xC0 DUP7 ADD MLOAD PUSH1 0xE0 DUP5 ADD MSTORE DUP1 PUSH2 0x100 DUP5 ADD MSTORE PUSH2 0x2A2E DUP2 DUP5 ADD DUP7 PUSH2 0x2251 JUMP JUMPDEST SWAP1 POP DUP3 DUP2 SUB PUSH2 0x120 DUP5 ADD MSTORE PUSH2 0x289A DUP2 DUP6 PUSH2 0x2251 JUMP JUMPDEST PUSH1 0x0 DUP1 PUSH1 0x40 DUP4 DUP6 SUB SLT ISZERO PUSH2 0x2A56 JUMPI PUSH1 0x0 DUP1 REVERT JUMPDEST POP POP DUP1 MLOAD PUSH1 0x20 SWAP1 SWAP2 ADD MLOAD SWAP1 SWAP3 SWAP1 SWAP2 POP JUMP JUMPDEST PUSH1 0x0 DUP1 PUSH1 0x40 DUP4 DUP6 SUB SLT ISZERO PUSH2 0x2A7A JUMPI PUSH1 0x0 DUP1 REVERT JUMPDEST DUP3 MLOAD SWAP2 POP PUSH1 0x20 DUP4 ADD MLOAD PUSH8 0xFFFFFFFFFFFFFFFF DUP2 GT ISZERO PUSH2 0x2A98 JUMPI PUSH1 0x0 DUP1 REVERT JUMPDEST PUSH2 0x2AA4 DUP6 DUP3 DUP7 ADD PUSH2 0x28EF JUMP JUMPDEST SWAP2 POP POP SWAP3 POP SWAP3 SWAP1 POP JUMP JUMPDEST PUSH1 0xE0 DUP1 DUP3 MSTORE DUP6 MLOAD SWAP1 DUP3 ADD MSTORE PUSH1 0x20 DUP6 ADD MLOAD PUSH1 0xFF AND PUSH2 0x100 DUP3 ADD MSTORE PUSH1 0x40 DUP6 ADD MLOAD PUSH1 0x1 PUSH1 0x1 PUSH1 0xA0 SHL SUB SWAP1 DUP2 AND PUSH2 0x120 DUP4 ADD MSTORE PUSH1 0x60 DUP7 ADD MLOAD AND PUSH2 0x140 DUP3 ADD MSTORE PUSH1 0x80 DUP6 ADD MLOAD PUSH2 0x160 DUP3 ADD MSTORE PUSH1 0xA0 DUP6 ADD MLOAD PUSH1 0xC0 PUSH2 0x180 DUP4 ADD MSTORE PUSH1 0x0 SWAP1 PUSH2 0x2B12 PUSH2 0x1A0 DUP5 ADD DUP3 PUSH2 0x2251 JUMP JUMPDEST SWAP2 POP POP PUSH2 0x2B52 PUSH1 0x20 DUP4 ADD DUP7 DUP1 MLOAD PUSH1 0x1 PUSH1 0x1 PUSH1 0xA0 SHL SUB SWAP1 DUP2 AND DUP4 MSTORE PUSH1 0x20 DUP1 DUP4 ADD MLOAD ISZERO ISZERO SWAP1 DUP5 ADD MSTORE PUSH1 0x40 DUP1 DUP4 ADD MLOAD SWAP1 SWAP2 AND SWAP1 DUP4 ADD MSTORE PUSH1 0x60 SWAP1 DUP2 ADD MLOAD ISZERO ISZERO SWAP2 ADD MSTORE JUMP JUMPDEST PUSH1 0xA0 DUP3 ADD SWAP4 SWAP1 SWAP4 MSTORE PUSH1 0xC0 ADD MSTORE SWAP3 SWAP2 POP POP JUMP INVALID 0xE NOT 0x2B LOG1 SWAP7 LOG0 0xE3 0xAE 0xD1 0xF CALLER 0xE5 DUP9 GT POP 0xA8 SSTORE REVERT 0xCC 0xE8 SWAP2 SWAP4 PUSH9 0xF474C59D3741573A72 LOG2 PUSH5 0x6970667358 0x22 SLT KECCAK256 MLOAD 0xF PUSH3 0x336227 KECCAK256 0x1E DUP5 XOR 0xA7 0xB9 PUSH26 0xF62CAA8B17469C9DE791D981B2BA5980FC9AF364736F6C634300 ADDMOD EQ STOP CALLER "},"methodIdentifiers":{"ADDRESSES_PROVIDER()":"0542975c","POOL()":"7535d246","_executeArbitrageInternal(address,uint256,bytes)":"4d54021c","acceptOwnership()":"79ba5097","authorizedCallers(address)":"536fff6c","balancerVault()":"158274a5","currentDayLoss()":"958e80e1","curvePools(address,address)":"4bcdac0d","emergencyWithdraw(address)":"6ff1c9bc","executeArbitrage(address,uint256,bytes)":"7c1d9539","executeOperation(address,uint256,uint256,address,bytes)":"1b11d0ff","getStatistics()":"372d6b27","isAuthorized(address)":"fe9fbb80","lastResetTimestamp()":"b343a0df","maxDailyLoss()":"9ea8741c","maxFlashLoanAmount(address)":"3c988eb3","maxGasPrice()":"3de39c11","oneInchRouter()":"ac3af208","owner()":"8da5cb5b","pause()":"8456cb59","paused()":"5c975abb","pendingOwner()":"e30c3978","renounceOwnership()":"715018a6","setAuthorizedCaller(address,bool)":"454bbd29","setCurvePool(address,address,address)":"1e673d3d","setMaxDailyLoss(uint256)":"a44b3638","setMaxFlashLoanAmount(address,uint256)":"ab63bdb5","setMaxGasPrice(uint256)":"d2fa635e","successfulArbitrageCount()":"54b54388","sushiSwapRouter()":"fd829a23","totalArbitrageCount()":"e401797f","totalProfitByToken(address)":"e2785e9c","transferOwnership(address)":"f2fde38b","uniswapV3Router()":"2c76d7a6","unpause()":"3f4ba83a","withdrawProfits(address,uint256)":"aafc9651"}}}}}