{
  "_format": "hh-sol-artifact-1",
  "contractName": "MockDEXRouter",
  "sourceName": "contracts/mocks/MockDEXRouter.sol",
  "abi": [
    {
      "inputs": [
        {
          "internalType": "address",
          "name": "_weth",
          "type": "address"
        },
        {
          "internalType": "address[]",
          "name": "_supportedTokens",
          "type": "address[]"
        }
      ],
      "stateMutability": "nonpayable",
      "type": "constructor"
    },
    {
      "inputs": [
        {
          "internalType": "address",
          "name": "token",
          "type": "address"
        }
      ],
      "name": "SafeERC20FailedOperation",
      "type": "error"
    },
    {
      "inputs": [],
      "name": "WETH",
      "outputs": [
        {
          "internalType": "address",
          "name": "",
          "type": "address"
        }
      ],
      "stateMutability": "view",
      "type": "function"
    },
    {
      "inputs": [
        {
          "internalType": "address",
          "name": "tokenA",
          "type": "address"
        },
        {
          "internalType": "address",
          "name": "tokenB",
          "type": "address"
        },
        {
          "internalType": "uint256",
          "name": "amountADesired",
          "type": "uint256"
        },
        {
          "internalType": "uint256",
          "name": "amountBDesired",
          "type": "uint256"
        },
        {
          "internalType": "uint256",
          "name": "amountAMin",
          "type": "uint256"
        },
        {
          "internalType": "uint256",
          "name": "amountBMin",
          "type": "uint256"
        },
        {
          "internalType": "address",
          "name": "to",
          "type": "address"
        },
        {
          "internalType": "uint256",
          "name": "deadline",
          "type": "uint256"
        }
      ],
      "name": "addLiquidity",
      "outputs": [
        {
          "internalType": "uint256",
          "name": "amountA",
          "type": "uint256"
        },
        {
          "internalType": "uint256",
          "name": "amountB",
          "type": "uint256"
        },
        {
          "internalType": "uint256",
          "name": "liquidity",
          "type": "uint256"
        }
      ],
      "stateMutability": "nonpayable",
      "type": "function"
    },
    {
      "inputs": [
        {
          "internalType": "uint256",
          "name": "amountIn",
          "type": "uint256"
        },
        {
          "internalType": "address[]",
          "name": "path",
          "type": "address[]"
        }
      ],
      "name": "getAmountsOut",
      "outputs": [
        {
          "internalType": "uint256[]",
          "name": "amounts",
          "type": "uint256[]"
        }
      ],
      "stateMutability": "view",
      "type": "function"
    },
    {
      "inputs": [
        {
          "internalType": "address",
          "name": "",
          "type": "address"
        },
        {
          "internalType": "address",
          "name": "",
          "type": "address"
        }
      ],
      "name": "priceRatios",
      "outputs": [
        {
          "internalType": "uint256",
          "name": "",
          "type": "uint256"
        }
      ],
      "stateMutability": "view",
      "type": "function"
    },
    {
      "inputs": [
        {
          "internalType": "uint256",
          "name": "amountA",
          "type": "uint256"
        },
        {
          "internalType": "uint256",
          "name": "reserveA",
          "type": "uint256"
        },
        {
          "internalType": "uint256",
          "name": "reserveB",
          "type": "uint256"
        }
      ],
      "name": "quote",
      "outputs": [
        {
          "internalType": "uint256",
          "name": "amountB",
          "type": "uint256"
        }
      ],
      "stateMutability": "pure",
      "type": "function"
    },
    {
      "inputs": [
        {
          "internalType": "address",
          "name": "tokenA",
          "type": "address"
        },
        {
          "internalType": "address",
          "name": "tokenB",
          "type": "address"
        },
        {
          "internalType": "uint256",
          "name": "amountB",
          "type": "uint256"
        },
        {
          "internalType": "uint256",
          "name": "amountA",
          "type": "uint256"
        }
      ],
      "name": "setPriceRatio",
      "outputs": [],
      "stateMutability": "nonpayable",
      "type": "function"
    },
    {
      "inputs": [
        {
          "internalType": "address",
          "name": "",
          "type": "address"
        }
      ],
      "name": "supportedTokens",
      "outputs": [
        {
          "internalType": "bool",
          "name": "",
          "type": "bool"
        }
      ],
      "stateMutability": "view",
      "type": "function"
    },
    {
      "inputs": [
        {
          "internalType": "uint256",
          "name": "amountIn",
          "type": "uint256"
        },
        {
          "internalType": "uint256",
          "name": "amountOutMin",
          "type": "uint256"
        },
        {
          "internalType": "address[]",
          "name": "path",
          "type": "address[]"
        },
        {
          "internalType": "address",
          "name": "to",
          "type": "address"
        },
        {
          "internalType": "uint256",
          "name": "deadline",
          "type": "uint256"
        }
      ],
      "name": "swapExactTokensForTokens",
      "outputs": [
        {
          "internalType": "uint256[]",
          "name": "amounts",
          "type": "uint256[]"
        }
      ],
      "stateMutability": "nonpayable",
      "type": "function"
    }
  ],
  "bytecode": "0x60a06040523480156200001157600080fd5b506040516200107a3803806200107a8339810160408190526200003491620000eb565b6001600160a01b03821660805260005b8151811015620000af576001806000848481518110620000685762000068620001d4565b6020908102919091018101516001600160a01b03168252810191909152604001600020805460ff191691151591909117905580620000a681620001ea565b91505062000044565b50505062000212565b80516001600160a01b0381168114620000d057600080fd5b919050565b634e487b7160e01b600052604160045260246000fd5b60008060408385031215620000ff57600080fd5b6200010a83620000b8565b602084810151919350906001600160401b03808211156200012a57600080fd5b818601915086601f8301126200013f57600080fd5b815181811115620001545762000154620000d5565b8060051b604051601f19603f830116810181811085821117156200017c576200017c620000d5565b6040529182528482019250838101850191898311156200019b57600080fd5b938501935b82851015620001c457620001b485620000b8565b84529385019392850192620001a0565b8096505050505050509250929050565b634e487b7160e01b600052603260045260246000fd5b6000600182016200020b57634e487b7160e01b600052601160045260246000fd5b5060010190565b608051610e4c6200022e60003960006101200152610e4c6000f3fe608060405234801561001057600080fd5b50600436106100885760003560e01c8063ad615dec1161005b578063ad615dec1461015a578063c71cbb591461016d578063d06ca61f14610182578063e8e337001461019557600080fd5b80630e5efd521461008d57806338ed1739146100c857806368c4ac26146100e8578063ad5c46481461011b575b600080fd5b6100b561009b366004610ad3565b600060208181529281526040808220909352908152205481565b6040519081526020015b60405180910390f35b6100db6100d6366004610b52565b6101c3565b6040516100bf9190610bc2565b61010b6100f6366004610c06565b60016020526000908152604090205460ff1681565b60405190151581526020016100bf565b6101427f000000000000000000000000000000000000000000000000000000000000000081565b6040516001600160a01b0390911681526020016100bf565b6100b5610168366004610c28565b610509565b61018061017b366004610c54565b6105c2565b005b6100db610190366004610c96565b610650565b6101a86101a3366004610ce2565b6107e6565b604080519384526020840192909252908201526060016100bf565b60604282101561020d5760405162461bcd60e51b815260206004820152601060248201526f111958591b1a5b9948195e1c1a5c995960821b60448201526064015b60405180910390fd5b600284101561024d5760405162461bcd60e51b815260206004820152600c60248201526b092dcecc2d8d2c840e0c2e8d60a31b6044820152606401610204565b8367ffffffffffffffff81111561026657610266610d56565b60405190808252806020026020018201604052801561028f578160200160208202803683370190505b50905086816000815181106102a6576102a6610d6c565b6020026020010181815250506102f1333089888860008181106102cb576102cb610d6c565b90506020020160208101906102e09190610c06565b6001600160a01b03169291906109a3565b8660005b610300600187610d98565b81101561041857600080600089898581811061031e5761031e610d6c565b90506020020160208101906103339190610c06565b6001600160a01b03166001600160a01b03168152602001908152602001600020600089898560016103649190610db1565b81811061037357610373610d6c565b90506020020160208101906103889190610c06565b6001600160a01b03166001600160a01b03168152602001908152602001600020549050806000036103be5750670de0b6b3a76400005b670de0b6b3a76400006103d18285610dc4565b6103db9190610ddb565b925082846103ea846001610db1565b815181106103fa576103fa610d6c565b6020908102919091010152508061041081610dfd565b9150506102f5565b508682600184516104299190610d98565b8151811061043957610439610d6c565b6020026020010151101561048f5760405162461bcd60e51b815260206004820152601a60248201527f496e73756666696369656e74206f757470757420616d6f756e740000000000006044820152606401610204565b6104fe8483600185516104a29190610d98565b815181106104b2576104b2610d6c565b602090810291909101015188886104ca600182610d98565b8181106104d9576104d9610d6c565b90506020020160208101906104ee9190610c06565b6001600160a01b03169190610a10565b509695505050505050565b60008084116105505760405162461bcd60e51b8152602060048201526013602482015272125b9cdd59999a58da595b9d08185b5bdd5b9d606a1b6044820152606401610204565b6000831180156105605750600082115b6105a55760405162461bcd60e51b8152602060048201526016602482015275496e73756666696369656e74206c697175696469747960501b6044820152606401610204565b826105b08386610dc4565b6105ba9190610ddb565b949350505050565b806105d583670de0b6b3a7640000610dc4565b6105df9190610ddb565b6001600160a01b03808616600090815260208181526040808320938816835292905220558161061682670de0b6b3a7640000610dc4565b6106209190610ddb565b6001600160a01b039384166000908152602081815260408083209790961682529590955292909320919091555050565b60608167ffffffffffffffff81111561066b5761066b610d56565b604051908082528060200260200182016040528015610694578160200160208202803683370190505b50905083816000815181106106ab576106ab610d6c565b60209081029190910101528360005b6106c5600185610d98565b8110156107dd5760008060008787858181106106e3576106e3610d6c565b90506020020160208101906106f89190610c06565b6001600160a01b03166001600160a01b03168152602001908152602001600020600087878560016107299190610db1565b81811061073857610738610d6c565b905060200201602081019061074d9190610c06565b6001600160a01b03166001600160a01b03168152602001908152602001600020549050806000036107835750670de0b6b3a76400005b670de0b6b3a76400006107968285610dc4565b6107a09190610ddb565b925082846107af846001610db1565b815181106107bf576107bf610d6c565b602090810291909101015250806107d581610dfd565b9150506106ba565b50509392505050565b60008060004284101561082e5760405162461bcd60e51b815260206004820152601060248201526f111958591b1a5b9948195e1c1a5c995960821b6044820152606401610204565b6001600160a01b038b1660009081526001602052604090205460ff16801561086e57506001600160a01b038a1660009081526001602052604090205460ff165b6108ae5760405162461bcd60e51b81526020600482015260116024820152702ab739bab83837b93a32b2103a37b5b2b760791b6044820152606401610204565b6108c36001600160a01b038c1633308c6109a3565b6108d86001600160a01b038b1633308b6109a3565b886108eb89670de0b6b3a7640000610dc4565b6108f59190610ddb565b6001600160a01b03808d16600090815260208181526040808320938f16835292905220558761092c8a670de0b6b3a7640000610dc4565b6109369190610ddb565b6000808c6001600160a01b03166001600160a01b0316815260200190815260200160002060008d6001600160a01b03166001600160a01b03168152602001908152602001600020819055508888898b61098f9190610db1565b925092509250985098509895505050505050565b6040516001600160a01b038481166024830152838116604483015260648201839052610a0a9186918216906323b872dd906084015b604051602081830303815290604052915060e01b6020820180516001600160e01b038381831617835250505050610a46565b50505050565b6040516001600160a01b03838116602483015260448201839052610a4191859182169063a9059cbb906064016109d8565b505050565b600080602060008451602086016000885af180610a69576040513d6000823e3d81fd5b50506000513d91508115610a81578060011415610a8e565b6001600160a01b0384163b155b15610a0a57604051635274afe760e01b81526001600160a01b0385166004820152602401610204565b80356001600160a01b0381168114610ace57600080fd5b919050565b60008060408385031215610ae657600080fd5b610aef83610ab7565b9150610afd60208401610ab7565b90509250929050565b60008083601f840112610b1857600080fd5b50813567ffffffffffffffff811115610b3057600080fd5b6020830191508360208260051b8501011115610b4b57600080fd5b9250929050565b60008060008060008060a08789031215610b6b57600080fd5b8635955060208701359450604087013567ffffffffffffffff811115610b9057600080fd5b610b9c89828a01610b06565b9095509350610baf905060608801610ab7565b9150608087013590509295509295509295565b6020808252825182820181905260009190848201906040850190845b81811015610bfa57835183529284019291840191600101610bde565b50909695505050505050565b600060208284031215610c1857600080fd5b610c2182610ab7565b9392505050565b600080600060608486031215610c3d57600080fd5b505081359360208301359350604090920135919050565b60008060008060808587031215610c6a57600080fd5b610c7385610ab7565b9350610c8160208601610ab7565b93969395505050506040820135916060013590565b600080600060408486031215610cab57600080fd5b83359250602084013567ffffffffffffffff811115610cc957600080fd5b610cd586828701610b06565b9497909650939450505050565b600080600080600080600080610100898b031215610cff57600080fd5b610d0889610ab7565b9750610d1660208a01610ab7565b965060408901359550606089013594506080890135935060a08901359250610d4060c08a01610ab7565b915060e089013590509295985092959890939650565b634e487b7160e01b600052604160045260246000fd5b634e487b7160e01b600052603260045260246000fd5b634e487b7160e01b600052601160045260246000fd5b81810381811115610dab57610dab610d82565b92915050565b80820180821115610dab57610dab610d82565b8082028115828204841417610dab57610dab610d82565b600082610df857634e487b7160e01b600052601260045260246000fd5b500490565b600060018201610e0f57610e0f610d82565b506001019056fea26469706673582212205f9689ae1f6a9cad6973887eb9c14e247b961959109afdc50855e7aef9b0411764736f6c63430008140033",
  "linkReferences": {},
  "deployedLinkReferences": {}
}